{
  "address": "0x6BDe81297042ecCC894766eF4CF316389aC1900D",
  "abi": [
    {
      "inputs": [
        {
          "internalType": "contract ElpisHeroesData",
          "name": "_elpisHeroesData",
          "type": "address"
        }
      ],
      "stateMutability": "nonpayable",
      "type": "constructor"
    },
    {
      "anonymous": false,
      "inputs": [
        {
          "indexed": true,
          "internalType": "address",
          "name": "owner",
          "type": "address"
        },
        {
          "indexed": true,
          "internalType": "address",
          "name": "approved",
          "type": "address"
        },
        {
          "indexed": true,
          "internalType": "uint256",
          "name": "tokenId",
          "type": "uint256"
        }
      ],
      "name": "Approval",
      "type": "event"
    },
    {
      "anonymous": false,
      "inputs": [
        {
          "indexed": true,
          "internalType": "address",
          "name": "owner",
          "type": "address"
        },
        {
          "indexed": true,
          "internalType": "address",
          "name": "operator",
          "type": "address"
        },
        {
          "indexed": false,
          "internalType": "bool",
          "name": "approved",
          "type": "bool"
        }
      ],
      "name": "ApprovalForAll",
      "type": "event"
    },
    {
      "anonymous": false,
      "inputs": [
        {
          "indexed": false,
          "internalType": "address",
          "name": "account",
          "type": "address"
        }
      ],
      "name": "Paused",
      "type": "event"
    },
    {
      "anonymous": false,
      "inputs": [
        {
          "indexed": true,
          "internalType": "bytes32",
          "name": "role",
          "type": "bytes32"
        },
        {
          "indexed": true,
          "internalType": "bytes32",
          "name": "previousAdminRole",
          "type": "bytes32"
        },
        {
          "indexed": true,
          "internalType": "bytes32",
          "name": "newAdminRole",
          "type": "bytes32"
        }
      ],
      "name": "RoleAdminChanged",
      "type": "event"
    },
    {
      "anonymous": false,
      "inputs": [
        {
          "indexed": true,
          "internalType": "bytes32",
          "name": "role",
          "type": "bytes32"
        },
        {
          "indexed": true,
          "internalType": "address",
          "name": "account",
          "type": "address"
        },
        {
          "indexed": true,
          "internalType": "address",
          "name": "sender",
          "type": "address"
        }
      ],
      "name": "RoleGranted",
      "type": "event"
    },
    {
      "anonymous": false,
      "inputs": [
        {
          "indexed": true,
          "internalType": "bytes32",
          "name": "role",
          "type": "bytes32"
        },
        {
          "indexed": true,
          "internalType": "address",
          "name": "account",
          "type": "address"
        },
        {
          "indexed": true,
          "internalType": "address",
          "name": "sender",
          "type": "address"
        }
      ],
      "name": "RoleRevoked",
      "type": "event"
    },
    {
      "anonymous": false,
      "inputs": [
        {
          "indexed": true,
          "internalType": "address",
          "name": "from",
          "type": "address"
        },
        {
          "indexed": true,
          "internalType": "address",
          "name": "to",
          "type": "address"
        },
        {
          "indexed": true,
          "internalType": "uint256",
          "name": "tokenId",
          "type": "uint256"
        }
      ],
      "name": "Transfer",
      "type": "event"
    },
    {
      "anonymous": false,
      "inputs": [
        {
          "indexed": false,
          "internalType": "address",
          "name": "account",
          "type": "address"
        }
      ],
      "name": "Unpaused",
      "type": "event"
    },
    {
      "inputs": [],
      "name": "DEFAULT_ADMIN_ROLE",
      "outputs": [
        {
          "internalType": "bytes32",
          "name": "",
          "type": "bytes32"
        }
      ],
      "stateMutability": "view",
      "type": "function"
    },
    {
      "inputs": [],
      "name": "MINTER_ROLE",
      "outputs": [
        {
          "internalType": "bytes32",
          "name": "",
          "type": "bytes32"
        }
      ],
      "stateMutability": "view",
      "type": "function"
    },
    {
      "inputs": [],
      "name": "PAUSER_ROLE",
      "outputs": [
        {
          "internalType": "bytes32",
          "name": "",
          "type": "bytes32"
        }
      ],
      "stateMutability": "view",
      "type": "function"
    },
    {
      "inputs": [
        {
          "internalType": "address",
          "name": "to",
          "type": "address"
        },
        {
          "internalType": "uint256",
          "name": "tokenId",
          "type": "uint256"
        }
      ],
      "name": "approve",
      "outputs": [],
      "stateMutability": "nonpayable",
      "type": "function"
    },
    {
      "inputs": [
        {
          "internalType": "address",
          "name": "owner",
          "type": "address"
        }
      ],
      "name": "balanceOf",
      "outputs": [
        {
          "internalType": "uint256",
          "name": "",
          "type": "uint256"
        }
      ],
      "stateMutability": "view",
      "type": "function"
    },
    {
      "inputs": [
        {
          "internalType": "uint256",
          "name": "tokenId",
          "type": "uint256"
        }
      ],
      "name": "burn",
      "outputs": [],
      "stateMutability": "nonpayable",
      "type": "function"
    },
    {
      "inputs": [
        {
          "internalType": "uint256",
          "name": "",
          "type": "uint256"
        }
      ],
      "name": "elpisHeroIndexes",
      "outputs": [
        {
          "internalType": "uint256",
          "name": "",
          "type": "uint256"
        }
      ],
      "stateMutability": "view",
      "type": "function"
    },
    {
      "inputs": [
        {
          "internalType": "uint256",
          "name": "tokenId",
          "type": "uint256"
        }
      ],
      "name": "getApproved",
      "outputs": [
        {
          "internalType": "address",
          "name": "",
          "type": "address"
        }
      ],
      "stateMutability": "view",
      "type": "function"
    },
    {
      "inputs": [
        {
          "internalType": "bytes32",
          "name": "role",
          "type": "bytes32"
        }
      ],
      "name": "getRoleAdmin",
      "outputs": [
        {
          "internalType": "bytes32",
          "name": "",
          "type": "bytes32"
        }
      ],
      "stateMutability": "view",
      "type": "function"
    },
    {
      "inputs": [
        {
          "internalType": "bytes32",
          "name": "role",
          "type": "bytes32"
        },
        {
          "internalType": "uint256",
          "name": "index",
          "type": "uint256"
        }
      ],
      "name": "getRoleMember",
      "outputs": [
        {
          "internalType": "address",
          "name": "",
          "type": "address"
        }
      ],
      "stateMutability": "view",
      "type": "function"
    },
    {
      "inputs": [
        {
          "internalType": "bytes32",
          "name": "role",
          "type": "bytes32"
        }
      ],
      "name": "getRoleMemberCount",
      "outputs": [
        {
          "internalType": "uint256",
          "name": "",
          "type": "uint256"
        }
      ],
      "stateMutability": "view",
      "type": "function"
    },
    {
      "inputs": [
        {
          "internalType": "bytes32",
          "name": "role",
          "type": "bytes32"
        },
        {
          "internalType": "address",
          "name": "account",
          "type": "address"
        }
      ],
      "name": "grantRole",
      "outputs": [],
      "stateMutability": "nonpayable",
      "type": "function"
    },
    {
      "inputs": [
        {
          "internalType": "bytes32",
          "name": "role",
          "type": "bytes32"
        },
        {
          "internalType": "address",
          "name": "account",
          "type": "address"
        }
      ],
      "name": "hasRole",
      "outputs": [
        {
          "internalType": "bool",
          "name": "",
          "type": "bool"
        }
      ],
      "stateMutability": "view",
      "type": "function"
    },
    {
      "inputs": [
        {
          "internalType": "address",
          "name": "owner",
          "type": "address"
        },
        {
          "internalType": "address",
          "name": "operator",
          "type": "address"
        }
      ],
      "name": "isApprovedForAll",
      "outputs": [
        {
          "internalType": "bool",
          "name": "",
          "type": "bool"
        }
      ],
      "stateMutability": "view",
      "type": "function"
    },
    {
      "inputs": [
        {
          "internalType": "address",
          "name": "to",
          "type": "address"
        },
        {
          "internalType": "string",
          "name": "_elpisHeroName",
          "type": "string"
        }
      ],
      "name": "mint",
      "outputs": [],
      "stateMutability": "nonpayable",
      "type": "function"
    },
    {
      "inputs": [],
      "name": "name",
      "outputs": [
        {
          "internalType": "string",
          "name": "",
          "type": "string"
        }
      ],
      "stateMutability": "view",
      "type": "function"
    },
    {
      "inputs": [
        {
          "internalType": "uint256",
          "name": "tokenId",
          "type": "uint256"
        }
      ],
      "name": "ownerOf",
      "outputs": [
        {
          "internalType": "address",
          "name": "",
          "type": "address"
        }
      ],
      "stateMutability": "view",
      "type": "function"
    },
    {
      "inputs": [],
      "name": "pause",
      "outputs": [],
      "stateMutability": "nonpayable",
      "type": "function"
    },
    {
      "inputs": [],
      "name": "paused",
      "outputs": [
        {
          "internalType": "bool",
          "name": "",
          "type": "bool"
        }
      ],
      "stateMutability": "view",
      "type": "function"
    },
    {
      "inputs": [
        {
          "internalType": "bytes32",
          "name": "role",
          "type": "bytes32"
        },
        {
          "internalType": "address",
          "name": "account",
          "type": "address"
        }
      ],
      "name": "renounceRole",
      "outputs": [],
      "stateMutability": "nonpayable",
      "type": "function"
    },
    {
      "inputs": [
        {
          "internalType": "uint256",
          "name": "tokenId",
          "type": "uint256"
        }
      ],
      "name": "revokeApprove",
      "outputs": [],
      "stateMutability": "nonpayable",
      "type": "function"
    },
    {
      "inputs": [
        {
          "internalType": "bytes32",
          "name": "role",
          "type": "bytes32"
        },
        {
          "internalType": "address",
          "name": "account",
          "type": "address"
        }
      ],
      "name": "revokeRole",
      "outputs": [],
      "stateMutability": "nonpayable",
      "type": "function"
    },
    {
      "inputs": [
        {
          "internalType": "address",
          "name": "from",
          "type": "address"
        },
        {
          "internalType": "address",
          "name": "to",
          "type": "address"
        },
        {
          "internalType": "uint256",
          "name": "tokenId",
          "type": "uint256"
        }
      ],
      "name": "safeTransferFrom",
      "outputs": [],
      "stateMutability": "nonpayable",
      "type": "function"
    },
    {
      "inputs": [
        {
          "internalType": "address",
          "name": "from",
          "type": "address"
        },
        {
          "internalType": "address",
          "name": "to",
          "type": "address"
        },
        {
          "internalType": "uint256",
          "name": "tokenId",
          "type": "uint256"
        },
        {
          "internalType": "bytes",
          "name": "_data",
          "type": "bytes"
        }
      ],
      "name": "safeTransferFrom",
      "outputs": [],
      "stateMutability": "nonpayable",
      "type": "function"
    },
    {
      "inputs": [
        {
          "internalType": "address",
          "name": "operator",
          "type": "address"
        },
        {
          "internalType": "bool",
          "name": "approved",
          "type": "bool"
        }
      ],
      "name": "setApprovalForAll",
      "outputs": [],
      "stateMutability": "nonpayable",
      "type": "function"
    },
    {
      "inputs": [
        {
          "internalType": "string",
          "name": "_uri",
          "type": "string"
        }
      ],
      "name": "setBaseURI",
      "outputs": [],
      "stateMutability": "nonpayable",
      "type": "function"
    },
    {
      "inputs": [
        {
          "internalType": "bytes4",
          "name": "interfaceId",
          "type": "bytes4"
        }
      ],
      "name": "supportsInterface",
      "outputs": [
        {
          "internalType": "bool",
          "name": "",
          "type": "bool"
        }
      ],
      "stateMutability": "view",
      "type": "function"
    },
    {
      "inputs": [],
      "name": "symbol",
      "outputs": [
        {
          "internalType": "string",
          "name": "",
          "type": "string"
        }
      ],
      "stateMutability": "view",
      "type": "function"
    },
    {
      "inputs": [
        {
          "internalType": "uint256",
          "name": "index",
          "type": "uint256"
        }
      ],
      "name": "tokenByIndex",
      "outputs": [
        {
          "internalType": "uint256",
          "name": "",
          "type": "uint256"
        }
      ],
      "stateMutability": "view",
      "type": "function"
    },
    {
      "inputs": [
        {
          "internalType": "address",
          "name": "owner",
          "type": "address"
        },
        {
          "internalType": "uint256",
          "name": "index",
          "type": "uint256"
        }
      ],
      "name": "tokenOfOwnerByIndex",
      "outputs": [
        {
          "internalType": "uint256",
          "name": "",
          "type": "uint256"
        }
      ],
      "stateMutability": "view",
      "type": "function"
    },
    {
      "inputs": [
        {
          "internalType": "uint256",
          "name": "tokenId",
          "type": "uint256"
        }
      ],
      "name": "tokenURI",
      "outputs": [
        {
          "internalType": "string",
          "name": "",
          "type": "string"
        }
      ],
      "stateMutability": "view",
      "type": "function"
    },
    {
      "inputs": [],
      "name": "totalSupply",
      "outputs": [
        {
          "internalType": "uint256",
          "name": "",
          "type": "uint256"
        }
      ],
      "stateMutability": "view",
      "type": "function"
    },
    {
      "inputs": [
        {
          "internalType": "address",
          "name": "from",
          "type": "address"
        },
        {
          "internalType": "address",
          "name": "to",
          "type": "address"
        },
        {
          "internalType": "uint256",
          "name": "tokenId",
          "type": "uint256"
        }
      ],
      "name": "transferFrom",
      "outputs": [],
      "stateMutability": "nonpayable",
      "type": "function"
    },
    {
      "inputs": [],
      "name": "unpause",
      "outputs": [],
      "stateMutability": "nonpayable",
      "type": "function"
    }
  ],
  "transactionHash": "0x0f645040e45163a025ee3eabc501d8d28ab95a4f801090f43264ccb2e8cfdd6f",
  "args": [
    "0x29371119C860f0B7dc96AD8014614364604482E7"
  ],
  "numDeployments": 7,
  "solcInputHash": "6cecc9f1dc28fa89048a032f401faef4",
  "bytecode": "0x60806040523480156200001157600080fd5b50604051620036af380380620036af833981016040819052620000349162000abb565b604080518082018252601681527f456c706973204d6574617665727365204865726f65730000000000000000000060208083019182528351808501909452600384526208a9a960eb1b908401528151919291620000949160029162000a15565b508051620000aa90600390602084019062000a15565b5050600c805460ff191690555033620000c56000826200022e565b620000f17f9f2df0fed2c77648de5860a4cc508cd0818c85b8b8a1ab4ceeef8d981c8956a6826200022e565b6200011d7f65d7a28e3265b37a6474929f336521b332c1681b933f6cb9f3376673440d862a826200022e565b600c8054610100600160a81b0319166101006001600160a01b038516021790556040805180820190915260078152665469677265737360c81b60208201526200016890829062000271565b6200019881604051806040016040528060068152602001654d616e74697360d01b8152506200027160201b60201c565b620001c781604051806040016040528060058152602001642b34b832b960d91b8152506200027160201b60201c565b620001f681604051806040016040528060058152602001644372616e6560d81b8152506200027160201b60201c565b6200022681604051806040016040528060068152602001654d6f6e6b657960d01b8152506200027160201b60201c565b505062000bf0565b620002458282620003ba60201b620010b11760201c565b60008281526001602090815260409091206200026c918390620010bb620003c6821b17901c565b505050565b3360009081527f0781d7cac9c378efa22a7481e4d4d29704a680ddf504b3bc50b517700ee11e6c602052604090205460ff16620002e95760405162461bcd60e51b8152602060048201526011602482015270454d483a206f6e6c79206d696e7465727360781b60448201526064015b60405180910390fd5b6200030b8262000305600d620003e660201b620010d01760201c565b620003ea565b600c60019054906101000a90046001600160a01b03166001600160a01b031663aef843d762000346600d620003e660201b620010d01760201c565b838560006040518563ffffffff1660e01b81526004016200036b949392919062000aeb565b600060405180830381600087803b1580156200038657600080fd5b505af11580156200039b573d6000803e3d6000fd5b50505050620003b6600d6200054060201b620010d41760201c565b5050565b620003b6828262000549565b6000620003dd836001600160a01b038416620005e9565b90505b92915050565b5490565b6001600160a01b038216620004425760405162461bcd60e51b815260206004820181905260248201527f4552433732313a206d696e7420746f20746865207a65726f20616464726573736044820152606401620002e0565b6000818152600460205260409020546001600160a01b031615620004a95760405162461bcd60e51b815260206004820152601c60248201527f4552433732313a20746f6b656e20616c7265616479206d696e746564000000006044820152606401620002e0565b620004b7600083836200063b565b6001600160a01b0382166000908152600560205260408120805460019290620004e290849062000b68565b909155505060008181526004602052604080822080546001600160a01b0319166001600160a01b03861690811790915590518392907fddf252ad1be2c89b69c2b068fc378daa952ba7f163c4a11628f55a4df523b3ef908290a45050565b80546001019055565b6000828152602081815260408083206001600160a01b038516845290915290205460ff16620003b6576000828152602081815260408083206001600160a01b03851684529091529020805460ff19166001179055620005a53390565b6001600160a01b0316816001600160a01b0316837f2f8788117e7eff1d82e926ec794901d17c78024a50270940304540a733656f0d60405160405180910390a45050565b60008181526001830160205260408120546200063257508154600181810184556000848152602080822090930184905584548482528286019093526040902091909155620003e0565b506000620003e0565b6200026c8383836200065360201b620010dd1760201c565b6200066b838383620006d460201b620011611760201c565b600c5460ff16156200026c5760405162461bcd60e51b815260206004820152602b60248201527f4552433732315061757361626c653a20746f6b656e207472616e73666572207760448201526a1a1a5b19481c185d5cd95960aa1b6064820152608401620002e0565b620006ec8383836200026c60201b6200078d1760201c565b6001600160a01b0383166200074a576200074481600a80546000838152600b60205260408120829055600182018355919091527fc65a7bb8d6351c1cf70c95a316cc6a92839c986682d98bc35f958f4883f9d2a80155565b62000770565b816001600160a01b0316836001600160a01b0316146200077057620007708382620007b0565b6001600160a01b0382166200078a576200026c816200085d565b826001600160a01b0316826001600160a01b0316146200026c576200026c82826200093b565b60006001620007ca846200098c60201b62000bf91760201c565b620007d6919062000b83565b6000838152600960205260409020549091508082146200082a576001600160a01b03841660009081526008602090815260408083208584528252808320548484528184208190558352600990915290208190555b5060009182526009602090815260408084208490556001600160a01b039094168352600881528383209183525290812055565b600a54600090620008719060019062000b83565b6000838152600b6020526040812054600a8054939450909284908110620008a857634e487b7160e01b600052603260045260246000fd5b9060005260206000200154905080600a8381548110620008d857634e487b7160e01b600052603260045260246000fd5b6000918252602080832090910192909255828152600b9091526040808220849055858252812055600a8054806200091f57634e487b7160e01b600052603160045260246000fd5b6001900381819060005260206000200160009055905550505050565b600062000953836200098c60201b62000bf91760201c565b6001600160a01b039093166000908152600860209081526040808320868452825280832085905593825260099052919091209190915550565b60006001600160a01b038216620009f95760405162461bcd60e51b815260206004820152602a60248201527f4552433732313a2062616c616e636520717565727920666f7220746865207a65604482015269726f206164647265737360b01b6064820152608401620002e0565b506001600160a01b031660009081526005602052604090205490565b82805462000a239062000b9d565b90600052602060002090601f01602090048101928262000a47576000855562000a92565b82601f1062000a6257805160ff191683800117855562000a92565b8280016001018555821562000a92579182015b8281111562000a9257825182559160200191906001019062000a75565b5062000aa092915062000aa4565b5090565b5b8082111562000aa0576000815560010162000aa5565b60006020828403121562000acd578081fd5b81516001600160a01b038116811462000ae4578182fd5b9392505050565b848152600060206080818401528551806080850152825b8181101562000b205787810183015185820160a00152820162000b02565b8181111562000b32578360a083870101525b50601f01601f1916830160a001915062000b59905060408301856001600160a01b03169052565b82606083015295945050505050565b6000821982111562000b7e5762000b7e62000bda565b500190565b60008282101562000b985762000b9862000bda565b500390565b600181811c9082168062000bb257607f821691505b6020821081141562000bd457634e487b7160e01b600052602260045260246000fd5b50919050565b634e487b7160e01b600052601160045260246000fd5b612aaf8062000c006000396000f3fe608060405234801561001057600080fd5b50600436106102265760003560e01c80636352211e1161012a578063a22cb465116100bd578063d0def5211161008c578063d547741f11610071578063d547741f146104c9578063e63ab1e9146104dc578063e985e9c51461050357600080fd5b8063d0def5211461048f578063d5391393146104a257600080fd5b8063a22cb46514610443578063b88d4fde14610456578063c87b56dd14610469578063ca15c8731461047c57600080fd5b80639010d07c116100f95780639010d07c146103e957806391d14854146103fc57806395d89b4114610433578063a217fddf1461043b57600080fd5b80636352211e146103a857806370a08231146103bb5780637b167781146103ce5780638456cb59146103e157600080fd5b80632f745c59116101bd57806342842e0e1161018c5780634f6ccce7116101715780634f6ccce71461037757806355f804b31461038a5780635c975abb1461039d57600080fd5b806342842e0e1461035157806342966c681461036457600080fd5b80632f745c591461030357806336568abe1461031657806338399d79146103295780633f4ba83a1461034957600080fd5b806318160ddd116101f957806318160ddd146102a857806323b872dd146102ba578063248a9ca3146102cd5780632f2ff15d146102f057600080fd5b806301ffc9a71461022b57806306fdde0314610253578063081812fc14610268578063095ea7b314610293575b600080fd5b61023e610239366004612770565b61053f565b60405190151581526020015b60405180910390f35b61025b610550565b60405161024a91906128f3565b61027b610276366004612715565b6105e2565b6040516001600160a01b03909116815260200161024a565b6102a66102a13660046126ec565b61067c565b005b600a545b60405190815260200161024a565b6102a66102c83660046125b2565b610792565b6102ac6102db366004612715565b60009081526020819052604090206001015490565b6102a66102fe36600461272d565b61081a565b6102ac6103113660046126ec565b61083c565b6102a661032436600461272d565b6108e4565b6102ac610337366004612715565b600f6020526000908152604090205481565b6102a6610906565b6102a661035f3660046125b2565b6109ac565b6102a6610372366004612715565b6109c7565b6102ac610385366004612715565b610a4e565b6102a66103983660046127a8565b610b00565b600c5460ff1661023e565b61027b6103b6366004612715565b610b6e565b6102ac6103c9366004612566565b610bf9565b6102a66103dc366004612715565b610c93565b6102a6610c9e565b61027b6103f736600461274f565b610d1c565b61023e61040a36600461272d565b6000918252602082815260408084206001600160a01b0393909316845291905290205460ff1690565b61025b610d3b565b6102ac600081565b6102a6610451366004612666565b610d4a565b6102a66104643660046125ed565b610e0f565b61025b610477366004612715565b610e9d565b6102ac61048a366004612715565b610f85565b6102a661049d3660046126a0565b610f9c565b6102ac7f9f2df0fed2c77648de5860a4cc508cd0818c85b8b8a1ab4ceeef8d981c8956a681565b6102a66104d736600461272d565b6110a7565b6102ac7f65d7a28e3265b37a6474929f336521b332c1681b933f6cb9f3376673440d862a81565b61023e610511366004612580565b6001600160a01b03918216600090815260076020908152604080832093909416825291909152205460ff1690565b600061054a82611219565b92915050565b60606002805461055f906129e0565b80601f016020809104026020016040519081016040528092919081815260200182805461058b906129e0565b80156105d85780601f106105ad576101008083540402835291602001916105d8565b820191906000526020600020905b8154815290600101906020018083116105bb57829003601f168201915b5050505050905090565b6000818152600460205260408120546001600160a01b03166106605760405162461bcd60e51b815260206004820152602c60248201527f4552433732313a20617070726f76656420717565727920666f72206e6f6e657860448201526b34b9ba32b73a103a37b5b2b760a11b60648201526084015b60405180910390fd5b506000908152600660205260409020546001600160a01b031690565b600061068782610b6e565b9050806001600160a01b0316836001600160a01b031614156106f55760405162461bcd60e51b815260206004820152602160248201527f4552433732313a20617070726f76616c20746f2063757272656e74206f776e656044820152603960f91b6064820152608401610657565b336001600160a01b038216148061071157506107118133610511565b6107835760405162461bcd60e51b815260206004820152603860248201527f4552433732313a20617070726f76652063616c6c6572206973206e6f74206f7760448201527f6e6572206e6f7220617070726f76656420666f7220616c6c00000000000000006064820152608401610657565b61078d838361123e565b505050565b61079d335b826112ac565b61080f5760405162461bcd60e51b815260206004820152603160248201527f4552433732313a207472616e736665722063616c6c6572206973206e6f74206f60448201527f776e6572206e6f7220617070726f7665640000000000000000000000000000006064820152608401610657565b61078d8383836113a3565b6108248282611562565b600082815260016020526040902061078d90826110bb565b600061084783610bf9565b82106108bb5760405162461bcd60e51b815260206004820152602b60248201527f455243373231456e756d657261626c653a206f776e657220696e646578206f7560448201527f74206f6620626f756e64730000000000000000000000000000000000000000006064820152608401610657565b506001600160a01b03919091166000908152600860209081526040808320938352929052205490565b6108ee8282611588565b600082815260016020526040902061078d9082611610565b6109307f65d7a28e3265b37a6474929f336521b332c1681b933f6cb9f3376673440d862a3361040a565b6109a25760405162461bcd60e51b815260206004820152602560248201527f454d483a206d75737420686176652070617573657220726f6c6520746f20756e60448201527f70617573650000000000000000000000000000000000000000000000000000006064820152608401610657565b6109aa611625565b565b61078d83838360405180602001604052806000815250610e0f565b6109d033610797565b610a425760405162461bcd60e51b815260206004820152603060248201527f4552433732314275726e61626c653a2063616c6c6572206973206e6f74206f7760448201527f6e6572206e6f7220617070726f766564000000000000000000000000000000006064820152608401610657565b610a4b816116c1565b50565b6000610a59600a5490565b8210610acd5760405162461bcd60e51b815260206004820152602c60248201527f455243373231456e756d657261626c653a20676c6f62616c20696e646578206f60448201527f7574206f6620626f756e647300000000000000000000000000000000000000006064820152608401610657565b600a8281548110610aee57634e487b7160e01b600052603260045260246000fd5b90600052602060002001549050919050565b610b0b60003361040a565b610b575760405162461bcd60e51b815260206004820152600f60248201527f454d483a206f6e6c792061646d696e00000000000000000000000000000000006044820152606401610657565b8051610b6a90600e90602084019061241c565b5050565b6000818152600460205260408120546001600160a01b03168061054a5760405162461bcd60e51b815260206004820152602960248201527f4552433732313a206f776e657220717565727920666f72206e6f6e657869737460448201527f656e7420746f6b656e00000000000000000000000000000000000000000000006064820152608401610657565b60006001600160a01b038216610c775760405162461bcd60e51b815260206004820152602a60248201527f4552433732313a2062616c616e636520717565727920666f7220746865207a6560448201527f726f2061646472657373000000000000000000000000000000000000000000006064820152608401610657565b506001600160a01b031660009081526005602052604090205490565b610a4b60008261067c565b610cc87f65d7a28e3265b37a6474929f336521b332c1681b933f6cb9f3376673440d862a3361040a565b610d145760405162461bcd60e51b815260206004820152601060248201527f454d483a206f6e6c7920706175736572000000000000000000000000000000006044820152606401610657565b6109aa611768565b6000828152600160205260408120610d3490836117f0565b9392505050565b60606003805461055f906129e0565b6001600160a01b038216331415610da35760405162461bcd60e51b815260206004820152601960248201527f4552433732313a20617070726f766520746f2063616c6c6572000000000000006044820152606401610657565b3360008181526007602090815260408083206001600160a01b03871680855290835292819020805460ff191686151590811790915590519081529192917f17307eab39ab6107e8899845ad3d59bd9653f200f220920489ca2b5937696c31910160405180910390a35050565b610e1933836112ac565b610e8b5760405162461bcd60e51b815260206004820152603160248201527f4552433732313a207472616e736665722063616c6c6572206973206e6f74206f60448201527f776e6572206e6f7220617070726f7665640000000000000000000000000000006064820152608401610657565b610e97848484846117fc565b50505050565b6000818152600460205260409020546060906001600160a01b0316610f2a5760405162461bcd60e51b815260206004820152602f60248201527f4552433732314d657461646174613a2055524920717565727920666f72206e6f60448201527f6e6578697374656e7420746f6b656e00000000000000000000000000000000006064820152608401610657565b6000610f34611885565b90506000815111610f545760405180602001604052806000815250610d34565b80610f5e84611894565b604051602001610f6f929190612807565b6040516020818303038152906040529392505050565b600081815260016020526040812061054a906119ae565b610fc67f9f2df0fed2c77648de5860a4cc508cd0818c85b8b8a1ab4ceeef8d981c8956a63361040a565b6110125760405162461bcd60e51b815260206004820152601160248201527f454d483a206f6e6c79206d696e746572730000000000000000000000000000006044820152606401610657565b6110248261101f600d5490565b6119b8565b600c546001600160a01b036101009091041663aef843d7611044600d5490565b838560006040518563ffffffff1660e01b81526004016110679493929190612906565b600060405180830381600087803b15801561108157600080fd5b505af1158015611095573d6000803e3d6000fd5b50505050610b6a600d80546001019055565b6108ee8282611b06565b610b6a8282611b2c565b6000610d34836001600160a01b038416611bca565b5490565b80546001019055565b6110e8838383611161565b600c5460ff161561078d5760405162461bcd60e51b815260206004820152602b60248201527f4552433732315061757361626c653a20746f6b656e207472616e73666572207760448201527f68696c65207061757365640000000000000000000000000000000000000000006064820152608401610657565b6001600160a01b0383166111bc576111b781600a80546000838152600b60205260408120829055600182018355919091527fc65a7bb8d6351c1cf70c95a316cc6a92839c986682d98bc35f958f4883f9d2a80155565b6111df565b816001600160a01b0316836001600160a01b0316146111df576111df8382611c19565b6001600160a01b0382166111f65761078d81611cb6565b826001600160a01b0316826001600160a01b03161461078d5761078d8282611d8f565b60006001600160e01b0319821663780e9d6360e01b148061054a575061054a82611dd3565b600081815260066020526040902080546001600160a01b0319166001600160a01b038416908117909155819061127382610b6e565b6001600160a01b03167f8c5be1e5ebec7d5bd14f71427d1e84f3dd0314c0f7b2291e5b200ac8c7c3b92560405160405180910390a45050565b6000818152600460205260408120546001600160a01b03166113255760405162461bcd60e51b815260206004820152602c60248201527f4552433732313a206f70657261746f7220717565727920666f72206e6f6e657860448201526b34b9ba32b73a103a37b5b2b760a11b6064820152608401610657565b600061133083610b6e565b9050806001600160a01b0316846001600160a01b0316148061136b5750836001600160a01b0316611360846105e2565b6001600160a01b0316145b8061139b57506001600160a01b0380821660009081526007602090815260408083209388168352929052205460ff165b949350505050565b826001600160a01b03166113b682610b6e565b6001600160a01b0316146114325760405162461bcd60e51b815260206004820152602960248201527f4552433732313a207472616e73666572206f6620746f6b656e2074686174206960448201527f73206e6f74206f776e00000000000000000000000000000000000000000000006064820152608401610657565b6001600160a01b0382166114945760405162461bcd60e51b8152602060048201526024808201527f4552433732313a207472616e7366657220746f20746865207a65726f206164646044820152637265737360e01b6064820152608401610657565b61149f838383611e13565b6114aa60008261123e565b6001600160a01b03831660009081526005602052604081208054600192906114d3908490612986565b90915550506001600160a01b038216600090815260056020526040812080546001929061150190849061293b565b909155505060008181526004602052604080822080546001600160a01b0319166001600160a01b0386811691821790925591518493918716917fddf252ad1be2c89b69c2b068fc378daa952ba7f163c4a11628f55a4df523b3ef91a4505050565b60008281526020819052604090206001015461157e8133611e1e565b61078d8383611b2c565b6001600160a01b03811633146116065760405162461bcd60e51b815260206004820152602f60248201527f416363657373436f6e74726f6c3a2063616e206f6e6c792072656e6f756e636560448201527f20726f6c657320666f722073656c6600000000000000000000000000000000006064820152608401610657565b610b6a8282611e9c565b6000610d34836001600160a01b038416611f1b565b600c5460ff166116775760405162461bcd60e51b815260206004820152601460248201527f5061757361626c653a206e6f74207061757365640000000000000000000000006044820152606401610657565b600c805460ff191690557f5db9ee0a495bf2e6ff9c91a7834c1ba4fdd244a5e8aa4e537bd38aeae4b073aa335b6040516001600160a01b03909116815260200160405180910390a1565b60006116cc82610b6e565b90506116da81600084611e13565b6116e560008361123e565b6001600160a01b038116600090815260056020526040812080546001929061170e908490612986565b909155505060008281526004602052604080822080546001600160a01b0319169055518391906001600160a01b038416907fddf252ad1be2c89b69c2b068fc378daa952ba7f163c4a11628f55a4df523b3ef908390a45050565b600c5460ff16156117bb5760405162461bcd60e51b815260206004820152601060248201527f5061757361626c653a20706175736564000000000000000000000000000000006044820152606401610657565b600c805460ff191660011790557f62e78cea01bee320cd4e420270b5ea74000d11b0c9f74754ebdbfc544b05a2586116a43390565b6000610d348383612038565b6118078484846113a3565b61181384848484612070565b610e975760405162461bcd60e51b815260206004820152603260248201527f4552433732313a207472616e7366657220746f206e6f6e20455243373231526560448201527f63656976657220696d706c656d656e74657200000000000000000000000000006064820152608401610657565b6060600e805461055f906129e0565b6060816118b85750506040805180820190915260018152600360fc1b602082015290565b8160005b81156118e257806118cc81612a1b565b91506118db9050600a83612953565b91506118bc565b60008167ffffffffffffffff81111561190b57634e487b7160e01b600052604160045260246000fd5b6040519080825280601f01601f191660200182016040528015611935576020820181803683370190505b5090505b841561139b5761194a600183612986565b9150611957600a86612a36565b61196290603061293b565b60f81b81838151811061198557634e487b7160e01b600052603260045260246000fd5b60200101906001600160f81b031916908160001a9053506119a7600a86612953565b9450611939565b600061054a825490565b6001600160a01b038216611a0e5760405162461bcd60e51b815260206004820181905260248201527f4552433732313a206d696e7420746f20746865207a65726f20616464726573736044820152606401610657565b6000818152600460205260409020546001600160a01b031615611a735760405162461bcd60e51b815260206004820152601c60248201527f4552433732313a20746f6b656e20616c7265616479206d696e746564000000006044820152606401610657565b611a7f60008383611e13565b6001600160a01b0382166000908152600560205260408120805460019290611aa890849061293b565b909155505060008181526004602052604080822080546001600160a01b0319166001600160a01b03861690811790915590518392907fddf252ad1be2c89b69c2b068fc378daa952ba7f163c4a11628f55a4df523b3ef908290a45050565b600082815260208190526040902060010154611b228133611e1e565b61078d8383611e9c565b6000828152602081815260408083206001600160a01b038516845290915290205460ff16610b6a576000828152602081815260408083206001600160a01b03851684529091529020805460ff19166001179055611b863390565b6001600160a01b0316816001600160a01b0316837f2f8788117e7eff1d82e926ec794901d17c78024a50270940304540a733656f0d60405160405180910390a45050565b6000818152600183016020526040812054611c115750815460018181018455600084815260208082209093018490558454848252828601909352604090209190915561054a565b50600061054a565b60006001611c2684610bf9565b611c309190612986565b600083815260096020526040902054909150808214611c83576001600160a01b03841660009081526008602090815260408083208584528252808320548484528184208190558352600990915290208190555b5060009182526009602090815260408084208490556001600160a01b039094168352600881528383209183525290812055565b600a54600090611cc890600190612986565b6000838152600b6020526040812054600a8054939450909284908110611cfe57634e487b7160e01b600052603260045260246000fd5b9060005260206000200154905080600a8381548110611d2d57634e487b7160e01b600052603260045260246000fd5b6000918252602080832090910192909255828152600b9091526040808220849055858252812055600a805480611d7357634e487b7160e01b600052603160045260246000fd5b6001900381819060005260206000200160009055905550505050565b6000611d9a83610bf9565b6001600160a01b039093166000908152600860209081526040808320868452825280832085905593825260099052919091209190915550565b60006001600160e01b031982166380ac58cd60e01b1480611e0457506001600160e01b03198216635b5e139f60e01b145b8061054a575061054a826121d3565b61078d8383836110dd565b6000828152602081815260408083206001600160a01b038516845290915290205460ff16610b6a57611e5a816001600160a01b031660146121f8565b611e658360206121f8565b604051602001611e76929190612836565b60408051601f198184030181529082905262461bcd60e51b8252610657916004016128f3565b6000828152602081815260408083206001600160a01b038516845290915290205460ff1615610b6a576000828152602081815260408083206001600160a01b0385168085529252808320805460ff1916905551339285917ff6391f5c32d9c69d2a47ea670b442974b53935d1edc7fd64eb21e047a839171b9190a45050565b6000818152600183016020526040812054801561202e576000611f3f600183612986565b8554909150600090611f5390600190612986565b9050818114611fd4576000866000018281548110611f8157634e487b7160e01b600052603260045260246000fd5b9060005260206000200154905080876000018481548110611fb257634e487b7160e01b600052603260045260246000fd5b6000918252602080832090910192909255918252600188019052604090208390555b8554869080611ff357634e487b7160e01b600052603160045260246000fd5b60019003818190600052602060002001600090559055856001016000868152602001908152602001600020600090556001935050505061054a565b600091505061054a565b600082600001828154811061205d57634e487b7160e01b600052603260045260246000fd5b9060005260206000200154905092915050565b60006001600160a01b0384163b156121c857604051630a85bd0160e11b81526001600160a01b0385169063150b7a02906120b49033908990889088906004016128b7565b602060405180830381600087803b1580156120ce57600080fd5b505af19250505080156120fe575060408051601f3d908101601f191682019092526120fb9181019061278c565b60015b6121ae573d80801561212c576040519150601f19603f3d011682016040523d82523d6000602084013e612131565b606091505b5080516121a65760405162461bcd60e51b815260206004820152603260248201527f4552433732313a207472616e7366657220746f206e6f6e20455243373231526560448201527f63656976657220696d706c656d656e74657200000000000000000000000000006064820152608401610657565b805181602001fd5b6001600160e01b031916630a85bd0160e11b14905061139b565b506001949350505050565b60006001600160e01b03198216635a05180f60e01b148061054a575061054a826123e7565b60606000612207836002612967565b61221290600261293b565b67ffffffffffffffff81111561223857634e487b7160e01b600052604160045260246000fd5b6040519080825280601f01601f191660200182016040528015612262576020820181803683370190505b509050600360fc1b8160008151811061228b57634e487b7160e01b600052603260045260246000fd5b60200101906001600160f81b031916908160001a905350600f60fb1b816001815181106122c857634e487b7160e01b600052603260045260246000fd5b60200101906001600160f81b031916908160001a90535060006122ec846002612967565b6122f790600161293b565b90505b6001811115612398577f303132333435363738396162636465660000000000000000000000000000000085600f166010811061234657634e487b7160e01b600052603260045260246000fd5b1a60f81b82828151811061236a57634e487b7160e01b600052603260045260246000fd5b60200101906001600160f81b031916908160001a90535060049490941c93612391816129c9565b90506122fa565b508315610d345760405162461bcd60e51b815260206004820181905260248201527f537472696e67733a20686578206c656e67746820696e73756666696369656e746044820152606401610657565b60006001600160e01b03198216637965db0b60e01b148061054a57506301ffc9a760e01b6001600160e01b031983161461054a565b828054612428906129e0565b90600052602060002090601f01602090048101928261244a5760008555612490565b82601f1061246357805160ff1916838001178555612490565b82800160010185558215612490579182015b82811115612490578251825591602001919060010190612475565b5061249c9291506124a0565b5090565b5b8082111561249c57600081556001016124a1565b600067ffffffffffffffff808411156124d0576124d0612a76565b604051601f8501601f19908116603f011681019082821181831017156124f8576124f8612a76565b8160405280935085815286868601111561251157600080fd5b858560208301376000602087830101525050509392505050565b80356001600160a01b038116811461254257600080fd5b919050565b600082601f830112612557578081fd5b610d34838335602085016124b5565b600060208284031215612577578081fd5b610d348261252b565b60008060408385031215612592578081fd5b61259b8361252b565b91506125a96020840161252b565b90509250929050565b6000806000606084860312156125c6578081fd5b6125cf8461252b565b92506125dd6020850161252b565b9150604084013590509250925092565b60008060008060808587031215612602578081fd5b61260b8561252b565b93506126196020860161252b565b925060408501359150606085013567ffffffffffffffff81111561263b578182fd5b8501601f8101871361264b578182fd5b61265a878235602084016124b5565b91505092959194509250565b60008060408385031215612678578182fd5b6126818361252b565b915060208301358015158114612695578182fd5b809150509250929050565b600080604083850312156126b2578182fd5b6126bb8361252b565b9150602083013567ffffffffffffffff8111156126d6578182fd5b6126e285828601612547565b9150509250929050565b600080604083850312156126fe578182fd5b6127078361252b565b946020939093013593505050565b600060208284031215612726578081fd5b5035919050565b6000806040838503121561273f578182fd5b823591506125a96020840161252b565b60008060408385031215612761578182fd5b50508035926020909101359150565b600060208284031215612781578081fd5b8135610d3481612a8c565b60006020828403121561279d578081fd5b8151610d3481612a8c565b6000602082840312156127b9578081fd5b813567ffffffffffffffff8111156127cf578182fd5b61139b84828501612547565b600081518084526127f381602086016020860161299d565b601f01601f19169290920160200192915050565b6000835161281981846020880161299d565b83519083019061282d81836020880161299d565b01949350505050565b7f416363657373436f6e74726f6c3a206163636f756e742000000000000000000081526000835161286e81601785016020880161299d565b7f206973206d697373696e6720726f6c652000000000000000000000000000000060179184019182015283516128ab81602884016020880161299d565b01602801949350505050565b60006001600160a01b038087168352808616602084015250836040830152608060608301526128e960808301846127db565b9695505050505050565b602081526000610d3460208301846127db565b84815260806020820152600061291f60808301866127db565b6001600160a01b03949094166040830152506060015292915050565b6000821982111561294e5761294e612a4a565b500190565b60008261296257612962612a60565b500490565b600081600019048311821515161561298157612981612a4a565b500290565b60008282101561299857612998612a4a565b500390565b60005b838110156129b85781810151838201526020016129a0565b83811115610e975750506000910152565b6000816129d8576129d8612a4a565b506000190190565b600181811c908216806129f457607f821691505b60208210811415612a1557634e487b7160e01b600052602260045260246000fd5b50919050565b6000600019821415612a2f57612a2f612a4a565b5060010190565b600082612a4557612a45612a60565b500690565b634e487b7160e01b600052601160045260246000fd5b634e487b7160e01b600052601260045260246000fd5b634e487b7160e01b600052604160045260246000fd5b6001600160e01b031981168114610a4b57600080fdfea164736f6c6343000804000a",
  "devdoc": {
    "details": "{ERC721} token, including:  - ability for holders to burn (destroy) their tokens  - a minter role that allows for token minting (creation)  - a pauser role that allows to stop all token transfers  - token ID and URI autogeneration This contract uses {AccessControl} to lock permissioned functions using the different roles - head to its documentation for details. The account that deploys the contract will be granted the minter and pauser roles, as well as the default admin role, which will let it grant both minter and pauser roles to other accounts.",
    "kind": "dev",
    "methods": {
      "approve(address,uint256)": {
        "details": "See {IERC721-approve}."
      },
      "balanceOf(address)": {
        "details": "See {IERC721-balanceOf}."
      },
      "burn(uint256)": {
        "details": "Burns `tokenId`. See {ERC721-_burn}. Requirements: - The caller must own `tokenId` or be an approved operator."
      },
      "constructor": {
        "details": "Grants `DEFAULT_ADMIN_ROLE`, `MINTER_ROLE` and `PAUSER_ROLE` to the account that deploys the contract. Token URIs will be autogenerated based on `baseURI` and their token IDs. See {ERC721-tokenURI}."
      },
      "getApproved(uint256)": {
        "details": "See {IERC721-getApproved}."
      },
      "getRoleAdmin(bytes32)": {
        "details": "Returns the admin role that controls `role`. See {grantRole} and {revokeRole}. To change a role's admin, use {_setRoleAdmin}."
      },
      "getRoleMember(bytes32,uint256)": {
        "details": "Returns one of the accounts that have `role`. `index` must be a value between 0 and {getRoleMemberCount}, non-inclusive. Role bearers are not sorted in any particular way, and their ordering may change at any point. WARNING: When using {getRoleMember} and {getRoleMemberCount}, make sure you perform all queries on the same block. See the following https://forum.openzeppelin.com/t/iterating-over-elements-on-enumerableset-in-openzeppelin-contracts/2296[forum post] for more information."
      },
      "getRoleMemberCount(bytes32)": {
        "details": "Returns the number of accounts that have `role`. Can be used together with {getRoleMember} to enumerate all bearers of a role."
      },
      "grantRole(bytes32,address)": {
        "details": "Overload {grantRole} to track enumerable memberships"
      },
      "hasRole(bytes32,address)": {
        "details": "Returns `true` if `account` has been granted `role`."
      },
      "isApprovedForAll(address,address)": {
        "details": "See {IERC721-isApprovedForAll}."
      },
      "mint(address,string)": {
        "details": "Creates a new token for `to`. Its token ID will be automatically assigned (and available on the emitted {IERC721-Transfer} event), and the token URI autogenerated based on the base URI passed at construction. See {ERC721-_mint}. Requirements: - the caller must have the `MINTER_ROLE`."
      },
      "name()": {
        "details": "See {IERC721Metadata-name}."
      },
      "ownerOf(uint256)": {
        "details": "See {IERC721-ownerOf}."
      },
      "pause()": {
        "details": "Pauses all token transfers. See {ERC721Pausable} and {Pausable-_pause}. Requirements: - the caller must have the `PAUSER_ROLE`."
      },
      "paused()": {
        "details": "Returns true if the contract is paused, and false otherwise."
      },
      "renounceRole(bytes32,address)": {
        "details": "Overload {renounceRole} to track enumerable memberships"
      },
      "revokeRole(bytes32,address)": {
        "details": "Overload {revokeRole} to track enumerable memberships"
      },
      "safeTransferFrom(address,address,uint256)": {
        "details": "See {IERC721-safeTransferFrom}."
      },
      "safeTransferFrom(address,address,uint256,bytes)": {
        "details": "See {IERC721-safeTransferFrom}."
      },
      "setApprovalForAll(address,bool)": {
        "details": "See {IERC721-setApprovalForAll}."
      },
      "setBaseURI(string)": {
        "details": "Callable by owner",
        "params": {
          "_uri": ": base URI"
        }
      },
      "supportsInterface(bytes4)": {
        "details": "See {IERC165-supportsInterface}."
      },
      "symbol()": {
        "details": "See {IERC721Metadata-symbol}."
      },
      "tokenByIndex(uint256)": {
        "details": "See {IERC721Enumerable-tokenByIndex}."
      },
      "tokenOfOwnerByIndex(address,uint256)": {
        "details": "See {IERC721Enumerable-tokenOfOwnerByIndex}."
      },
      "tokenURI(uint256)": {
        "details": "See {IERC721Metadata-tokenURI}."
      },
      "totalSupply()": {
        "details": "See {IERC721Enumerable-totalSupply}."
      },
      "transferFrom(address,address,uint256)": {
        "details": "See {IERC721-transferFrom}."
      },
      "unpause()": {
        "details": "Unpauses all token transfers. See {ERC721Pausable} and {Pausable-_unpause}. Requirements: - the caller must have the `PAUSER_ROLE`."
      }
    },
    "version": 1
  },
  "userdoc": {
    "kind": "user",
    "methods": {
      "setBaseURI(string)": {
        "notice": "Allows the owner to set the base URI to be used for all token IDs"
      }
    },
    "version": 1
  },
  "storageLayout": {
    "storage": [
      {
        "astId": 731,
        "contract": "contracts/ElpisMetaverseHeroes.sol:ElpisMetaverseHeroes",
        "label": "_roles",
        "offset": 0,
        "slot": "0",
        "type": "t_mapping(t_bytes32,t_struct(RoleData)726_storage)"
      },
      {
        "astId": 1032,
        "contract": "contracts/ElpisMetaverseHeroes.sol:ElpisMetaverseHeroes",
        "label": "_roleMembers",
        "offset": 0,
        "slot": "1",
        "type": "t_mapping(t_bytes32,t_struct(AddressSet)3863_storage)"
      },
      {
        "astId": 1345,
        "contract": "contracts/ElpisMetaverseHeroes.sol:ElpisMetaverseHeroes",
        "label": "_name",
        "offset": 0,
        "slot": "2",
        "type": "t_string_storage"
      },
      {
        "astId": 1347,
        "contract": "contracts/ElpisMetaverseHeroes.sol:ElpisMetaverseHeroes",
        "label": "_symbol",
        "offset": 0,
        "slot": "3",
        "type": "t_string_storage"
      },
      {
        "astId": 1351,
        "contract": "contracts/ElpisMetaverseHeroes.sol:ElpisMetaverseHeroes",
        "label": "_owners",
        "offset": 0,
        "slot": "4",
        "type": "t_mapping(t_uint256,t_address)"
      },
      {
        "astId": 1355,
        "contract": "contracts/ElpisMetaverseHeroes.sol:ElpisMetaverseHeroes",
        "label": "_balances",
        "offset": 0,
        "slot": "5",
        "type": "t_mapping(t_address,t_uint256)"
      },
      {
        "astId": 1359,
        "contract": "contracts/ElpisMetaverseHeroes.sol:ElpisMetaverseHeroes",
        "label": "_tokenApprovals",
        "offset": 0,
        "slot": "6",
        "type": "t_mapping(t_uint256,t_address)"
      },
      {
        "astId": 1365,
        "contract": "contracts/ElpisMetaverseHeroes.sol:ElpisMetaverseHeroes",
        "label": "_operatorApprovals",
        "offset": 0,
        "slot": "7",
        "type": "t_mapping(t_address,t_mapping(t_address,t_bool))"
      },
      {
        "astId": 2180,
        "contract": "contracts/ElpisMetaverseHeroes.sol:ElpisMetaverseHeroes",
        "label": "_ownedTokens",
        "offset": 0,
        "slot": "8",
        "type": "t_mapping(t_address,t_mapping(t_uint256,t_uint256))"
      },
      {
        "astId": 2184,
        "contract": "contracts/ElpisMetaverseHeroes.sol:ElpisMetaverseHeroes",
        "label": "_ownedTokensIndex",
        "offset": 0,
        "slot": "9",
        "type": "t_mapping(t_uint256,t_uint256)"
      },
      {
        "astId": 2187,
        "contract": "contracts/ElpisMetaverseHeroes.sol:ElpisMetaverseHeroes",
        "label": "_allTokens",
        "offset": 0,
        "slot": "10",
        "type": "t_array(t_uint256)dyn_storage"
      },
      {
        "astId": 2191,
        "contract": "contracts/ElpisMetaverseHeroes.sol:ElpisMetaverseHeroes",
        "label": "_allTokensIndex",
        "offset": 0,
        "slot": "11",
        "type": "t_mapping(t_uint256,t_uint256)"
      },
      {
        "astId": 3060,
        "contract": "contracts/ElpisMetaverseHeroes.sol:ElpisMetaverseHeroes",
        "label": "_paused",
        "offset": 0,
        "slot": "12",
        "type": "t_bool"
      },
      {
        "astId": 467,
        "contract": "contracts/ElpisMetaverseHeroes.sol:ElpisMetaverseHeroes",
        "label": "elpisHeroesData",
        "offset": 1,
        "slot": "12",
        "type": "t_contract(ElpisHeroesData)439"
      },
      {
        "astId": 480,
        "contract": "contracts/ElpisMetaverseHeroes.sol:ElpisMetaverseHeroes",
        "label": "_tokenIdTracker",
        "offset": 0,
        "slot": "13",
        "type": "t_struct(Counter)3459_storage"
      },
      {
        "astId": 482,
        "contract": "contracts/ElpisMetaverseHeroes.sol:ElpisMetaverseHeroes",
        "label": "_baseTokenURI",
        "offset": 0,
        "slot": "14",
        "type": "t_string_storage"
      },
      {
        "astId": 486,
        "contract": "contracts/ElpisMetaverseHeroes.sol:ElpisMetaverseHeroes",
        "label": "elpisHeroIndexes",
        "offset": 0,
        "slot": "15",
        "type": "t_mapping(t_uint256,t_uint256)"
      }
    ],
    "types": {
      "t_address": {
        "encoding": "inplace",
        "label": "address",
        "numberOfBytes": "20"
      },
      "t_array(t_bytes32)dyn_storage": {
        "base": "t_bytes32",
        "encoding": "dynamic_array",
        "label": "bytes32[]",
        "numberOfBytes": "32"
      },
      "t_array(t_uint256)dyn_storage": {
        "base": "t_uint256",
        "encoding": "dynamic_array",
        "label": "uint256[]",
        "numberOfBytes": "32"
      },
      "t_bool": {
        "encoding": "inplace",
        "label": "bool",
        "numberOfBytes": "1"
      },
      "t_bytes32": {
        "encoding": "inplace",
        "label": "bytes32",
        "numberOfBytes": "32"
      },
      "t_contract(ElpisHeroesData)439": {
        "encoding": "inplace",
        "label": "contract ElpisHeroesData",
        "numberOfBytes": "20"
      },
      "t_mapping(t_address,t_bool)": {
        "encoding": "mapping",
        "key": "t_address",
        "label": "mapping(address => bool)",
        "numberOfBytes": "32",
        "value": "t_bool"
      },
      "t_mapping(t_address,t_mapping(t_address,t_bool))": {
        "encoding": "mapping",
        "key": "t_address",
        "label": "mapping(address => mapping(address => bool))",
        "numberOfBytes": "32",
        "value": "t_mapping(t_address,t_bool)"
      },
      "t_mapping(t_address,t_mapping(t_uint256,t_uint256))": {
        "encoding": "mapping",
        "key": "t_address",
        "label": "mapping(address => mapping(uint256 => uint256))",
        "numberOfBytes": "32",
        "value": "t_mapping(t_uint256,t_uint256)"
      },
      "t_mapping(t_address,t_uint256)": {
        "encoding": "mapping",
        "key": "t_address",
        "label": "mapping(address => uint256)",
        "numberOfBytes": "32",
        "value": "t_uint256"
      },
      "t_mapping(t_bytes32,t_struct(AddressSet)3863_storage)": {
        "encoding": "mapping",
        "key": "t_bytes32",
        "label": "mapping(bytes32 => struct EnumerableSet.AddressSet)",
        "numberOfBytes": "32",
        "value": "t_struct(AddressSet)3863_storage"
      },
      "t_mapping(t_bytes32,t_struct(RoleData)726_storage)": {
        "encoding": "mapping",
        "key": "t_bytes32",
        "label": "mapping(bytes32 => struct AccessControl.RoleData)",
        "numberOfBytes": "32",
        "value": "t_struct(RoleData)726_storage"
      },
      "t_mapping(t_bytes32,t_uint256)": {
        "encoding": "mapping",
        "key": "t_bytes32",
        "label": "mapping(bytes32 => uint256)",
        "numberOfBytes": "32",
        "value": "t_uint256"
      },
      "t_mapping(t_uint256,t_address)": {
        "encoding": "mapping",
        "key": "t_uint256",
        "label": "mapping(uint256 => address)",
        "numberOfBytes": "32",
        "value": "t_address"
      },
      "t_mapping(t_uint256,t_uint256)": {
        "encoding": "mapping",
        "key": "t_uint256",
        "label": "mapping(uint256 => uint256)",
        "numberOfBytes": "32",
        "value": "t_uint256"
      },
      "t_string_storage": {
        "encoding": "bytes",
        "label": "string",
        "numberOfBytes": "32"
      },
      "t_struct(AddressSet)3863_storage": {
        "encoding": "inplace",
        "label": "struct EnumerableSet.AddressSet",
        "members": [
          {
            "astId": 3862,
            "contract": "contracts/ElpisMetaverseHeroes.sol:ElpisMetaverseHeroes",
            "label": "_inner",
            "offset": 0,
            "slot": "0",
            "type": "t_struct(Set)3562_storage"
          }
        ],
        "numberOfBytes": "64"
      },
      "t_struct(Counter)3459_storage": {
        "encoding": "inplace",
        "label": "struct Counters.Counter",
        "members": [
          {
            "astId": 3458,
            "contract": "contracts/ElpisMetaverseHeroes.sol:ElpisMetaverseHeroes",
            "label": "_value",
            "offset": 0,
            "slot": "0",
            "type": "t_uint256"
          }
        ],
        "numberOfBytes": "32"
      },
      "t_struct(RoleData)726_storage": {
        "encoding": "inplace",
        "label": "struct AccessControl.RoleData",
        "members": [
          {
            "astId": 723,
            "contract": "contracts/ElpisMetaverseHeroes.sol:ElpisMetaverseHeroes",
            "label": "members",
            "offset": 0,
            "slot": "0",
            "type": "t_mapping(t_address,t_bool)"
          },
          {
            "astId": 725,
            "contract": "contracts/ElpisMetaverseHeroes.sol:ElpisMetaverseHeroes",
            "label": "adminRole",
            "offset": 0,
            "slot": "1",
            "type": "t_bytes32"
          }
        ],
        "numberOfBytes": "64"
      },
      "t_struct(Set)3562_storage": {
        "encoding": "inplace",
        "label": "struct EnumerableSet.Set",
        "members": [
          {
            "astId": 3557,
            "contract": "contracts/ElpisMetaverseHeroes.sol:ElpisMetaverseHeroes",
            "label": "_values",
            "offset": 0,
            "slot": "0",
            "type": "t_array(t_bytes32)dyn_storage"
          },
          {
            "astId": 3561,
            "contract": "contracts/ElpisMetaverseHeroes.sol:ElpisMetaverseHeroes",
            "label": "_indexes",
            "offset": 0,
            "slot": "1",
            "type": "t_mapping(t_bytes32,t_uint256)"
          }
        ],
        "numberOfBytes": "64"
      },
      "t_uint256": {
        "encoding": "inplace",
        "label": "uint256",
        "numberOfBytes": "32"
      }
    }
  }
}