{
  "_format": "hh-sol-artifact-1",
  "contractName": "ElpisMetaverseHeroes",
  "sourceName": "contracts/ElpisMetaverseHeroes.sol",
  "abi": [
    {
      "inputs": [
        {
          "internalType": "contract ElpisHeroesData",
          "name": "_elpisHeroesData",
          "type": "address"
        }
      ],
      "stateMutability": "nonpayable",
      "type": "constructor"
    },
    {
      "anonymous": false,
      "inputs": [
        {
          "indexed": true,
          "internalType": "address",
          "name": "owner",
          "type": "address"
        },
        {
          "indexed": true,
          "internalType": "address",
          "name": "approved",
          "type": "address"
        },
        {
          "indexed": true,
          "internalType": "uint256",
          "name": "tokenId",
          "type": "uint256"
        }
      ],
      "name": "Approval",
      "type": "event"
    },
    {
      "anonymous": false,
      "inputs": [
        {
          "indexed": true,
          "internalType": "address",
          "name": "owner",
          "type": "address"
        },
        {
          "indexed": true,
          "internalType": "address",
          "name": "operator",
          "type": "address"
        },
        {
          "indexed": false,
          "internalType": "bool",
          "name": "approved",
          "type": "bool"
        }
      ],
      "name": "ApprovalForAll",
      "type": "event"
    },
    {
      "anonymous": false,
      "inputs": [
        {
          "indexed": false,
          "internalType": "address",
          "name": "account",
          "type": "address"
        }
      ],
      "name": "Paused",
      "type": "event"
    },
    {
      "anonymous": false,
      "inputs": [
        {
          "indexed": true,
          "internalType": "bytes32",
          "name": "role",
          "type": "bytes32"
        },
        {
          "indexed": true,
          "internalType": "bytes32",
          "name": "previousAdminRole",
          "type": "bytes32"
        },
        {
          "indexed": true,
          "internalType": "bytes32",
          "name": "newAdminRole",
          "type": "bytes32"
        }
      ],
      "name": "RoleAdminChanged",
      "type": "event"
    },
    {
      "anonymous": false,
      "inputs": [
        {
          "indexed": true,
          "internalType": "bytes32",
          "name": "role",
          "type": "bytes32"
        },
        {
          "indexed": true,
          "internalType": "address",
          "name": "account",
          "type": "address"
        },
        {
          "indexed": true,
          "internalType": "address",
          "name": "sender",
          "type": "address"
        }
      ],
      "name": "RoleGranted",
      "type": "event"
    },
    {
      "anonymous": false,
      "inputs": [
        {
          "indexed": true,
          "internalType": "bytes32",
          "name": "role",
          "type": "bytes32"
        },
        {
          "indexed": true,
          "internalType": "address",
          "name": "account",
          "type": "address"
        },
        {
          "indexed": true,
          "internalType": "address",
          "name": "sender",
          "type": "address"
        }
      ],
      "name": "RoleRevoked",
      "type": "event"
    },
    {
      "anonymous": false,
      "inputs": [
        {
          "indexed": true,
          "internalType": "address",
          "name": "from",
          "type": "address"
        },
        {
          "indexed": true,
          "internalType": "address",
          "name": "to",
          "type": "address"
        },
        {
          "indexed": true,
          "internalType": "uint256",
          "name": "tokenId",
          "type": "uint256"
        }
      ],
      "name": "Transfer",
      "type": "event"
    },
    {
      "anonymous": false,
      "inputs": [
        {
          "indexed": false,
          "internalType": "address",
          "name": "account",
          "type": "address"
        }
      ],
      "name": "Unpaused",
      "type": "event"
    },
    {
      "inputs": [],
      "name": "DEFAULT_ADMIN_ROLE",
      "outputs": [
        {
          "internalType": "bytes32",
          "name": "",
          "type": "bytes32"
        }
      ],
      "stateMutability": "view",
      "type": "function"
    },
    {
      "inputs": [],
      "name": "MINTER_ROLE",
      "outputs": [
        {
          "internalType": "bytes32",
          "name": "",
          "type": "bytes32"
        }
      ],
      "stateMutability": "view",
      "type": "function"
    },
    {
      "inputs": [],
      "name": "PAUSER_ROLE",
      "outputs": [
        {
          "internalType": "bytes32",
          "name": "",
          "type": "bytes32"
        }
      ],
      "stateMutability": "view",
      "type": "function"
    },
    {
      "inputs": [
        {
          "internalType": "address",
          "name": "to",
          "type": "address"
        },
        {
          "internalType": "uint256",
          "name": "tokenId",
          "type": "uint256"
        }
      ],
      "name": "approve",
      "outputs": [],
      "stateMutability": "nonpayable",
      "type": "function"
    },
    {
      "inputs": [
        {
          "internalType": "address",
          "name": "owner",
          "type": "address"
        }
      ],
      "name": "balanceOf",
      "outputs": [
        {
          "internalType": "uint256",
          "name": "",
          "type": "uint256"
        }
      ],
      "stateMutability": "view",
      "type": "function"
    },
    {
      "inputs": [
        {
          "internalType": "uint256",
          "name": "tokenId",
          "type": "uint256"
        }
      ],
      "name": "burn",
      "outputs": [],
      "stateMutability": "nonpayable",
      "type": "function"
    },
    {
      "inputs": [
        {
          "internalType": "uint256",
          "name": "",
          "type": "uint256"
        }
      ],
      "name": "elpisHeroIndexes",
      "outputs": [
        {
          "internalType": "uint256",
          "name": "",
          "type": "uint256"
        }
      ],
      "stateMutability": "view",
      "type": "function"
    },
    {
      "inputs": [
        {
          "internalType": "uint256",
          "name": "tokenId",
          "type": "uint256"
        }
      ],
      "name": "getApproved",
      "outputs": [
        {
          "internalType": "address",
          "name": "",
          "type": "address"
        }
      ],
      "stateMutability": "view",
      "type": "function"
    },
    {
      "inputs": [
        {
          "internalType": "bytes32",
          "name": "role",
          "type": "bytes32"
        }
      ],
      "name": "getRoleAdmin",
      "outputs": [
        {
          "internalType": "bytes32",
          "name": "",
          "type": "bytes32"
        }
      ],
      "stateMutability": "view",
      "type": "function"
    },
    {
      "inputs": [
        {
          "internalType": "bytes32",
          "name": "role",
          "type": "bytes32"
        },
        {
          "internalType": "uint256",
          "name": "index",
          "type": "uint256"
        }
      ],
      "name": "getRoleMember",
      "outputs": [
        {
          "internalType": "address",
          "name": "",
          "type": "address"
        }
      ],
      "stateMutability": "view",
      "type": "function"
    },
    {
      "inputs": [
        {
          "internalType": "bytes32",
          "name": "role",
          "type": "bytes32"
        }
      ],
      "name": "getRoleMemberCount",
      "outputs": [
        {
          "internalType": "uint256",
          "name": "",
          "type": "uint256"
        }
      ],
      "stateMutability": "view",
      "type": "function"
    },
    {
      "inputs": [
        {
          "internalType": "bytes32",
          "name": "role",
          "type": "bytes32"
        },
        {
          "internalType": "address",
          "name": "account",
          "type": "address"
        }
      ],
      "name": "grantRole",
      "outputs": [],
      "stateMutability": "nonpayable",
      "type": "function"
    },
    {
      "inputs": [
        {
          "internalType": "bytes32",
          "name": "role",
          "type": "bytes32"
        },
        {
          "internalType": "address",
          "name": "account",
          "type": "address"
        }
      ],
      "name": "hasRole",
      "outputs": [
        {
          "internalType": "bool",
          "name": "",
          "type": "bool"
        }
      ],
      "stateMutability": "view",
      "type": "function"
    },
    {
      "inputs": [
        {
          "internalType": "address",
          "name": "owner",
          "type": "address"
        },
        {
          "internalType": "address",
          "name": "operator",
          "type": "address"
        }
      ],
      "name": "isApprovedForAll",
      "outputs": [
        {
          "internalType": "bool",
          "name": "",
          "type": "bool"
        }
      ],
      "stateMutability": "view",
      "type": "function"
    },
    {
      "inputs": [
        {
          "internalType": "address",
          "name": "to",
          "type": "address"
        },
        {
          "internalType": "string",
          "name": "_elpisHeroName",
          "type": "string"
        }
      ],
      "name": "mint",
      "outputs": [],
      "stateMutability": "nonpayable",
      "type": "function"
    },
    {
      "inputs": [],
      "name": "name",
      "outputs": [
        {
          "internalType": "string",
          "name": "",
          "type": "string"
        }
      ],
      "stateMutability": "view",
      "type": "function"
    },
    {
      "inputs": [
        {
          "internalType": "uint256",
          "name": "tokenId",
          "type": "uint256"
        }
      ],
      "name": "ownerOf",
      "outputs": [
        {
          "internalType": "address",
          "name": "",
          "type": "address"
        }
      ],
      "stateMutability": "view",
      "type": "function"
    },
    {
      "inputs": [],
      "name": "pause",
      "outputs": [],
      "stateMutability": "nonpayable",
      "type": "function"
    },
    {
      "inputs": [],
      "name": "paused",
      "outputs": [
        {
          "internalType": "bool",
          "name": "",
          "type": "bool"
        }
      ],
      "stateMutability": "view",
      "type": "function"
    },
    {
      "inputs": [
        {
          "internalType": "bytes32",
          "name": "role",
          "type": "bytes32"
        },
        {
          "internalType": "address",
          "name": "account",
          "type": "address"
        }
      ],
      "name": "renounceRole",
      "outputs": [],
      "stateMutability": "nonpayable",
      "type": "function"
    },
    {
      "inputs": [
        {
          "internalType": "bytes32",
          "name": "role",
          "type": "bytes32"
        },
        {
          "internalType": "address",
          "name": "account",
          "type": "address"
        }
      ],
      "name": "revokeRole",
      "outputs": [],
      "stateMutability": "nonpayable",
      "type": "function"
    },
    {
      "inputs": [
        {
          "internalType": "address",
          "name": "from",
          "type": "address"
        },
        {
          "internalType": "address",
          "name": "to",
          "type": "address"
        },
        {
          "internalType": "uint256",
          "name": "tokenId",
          "type": "uint256"
        }
      ],
      "name": "safeTransferFrom",
      "outputs": [],
      "stateMutability": "nonpayable",
      "type": "function"
    },
    {
      "inputs": [
        {
          "internalType": "address",
          "name": "from",
          "type": "address"
        },
        {
          "internalType": "address",
          "name": "to",
          "type": "address"
        },
        {
          "internalType": "uint256",
          "name": "tokenId",
          "type": "uint256"
        },
        {
          "internalType": "bytes",
          "name": "_data",
          "type": "bytes"
        }
      ],
      "name": "safeTransferFrom",
      "outputs": [],
      "stateMutability": "nonpayable",
      "type": "function"
    },
    {
      "inputs": [
        {
          "internalType": "address",
          "name": "operator",
          "type": "address"
        },
        {
          "internalType": "bool",
          "name": "approved",
          "type": "bool"
        }
      ],
      "name": "setApprovalForAll",
      "outputs": [],
      "stateMutability": "nonpayable",
      "type": "function"
    },
    {
      "inputs": [
        {
          "internalType": "string",
          "name": "_uri",
          "type": "string"
        }
      ],
      "name": "setBaseURI",
      "outputs": [],
      "stateMutability": "nonpayable",
      "type": "function"
    },
    {
      "inputs": [
        {
          "internalType": "bytes4",
          "name": "interfaceId",
          "type": "bytes4"
        }
      ],
      "name": "supportsInterface",
      "outputs": [
        {
          "internalType": "bool",
          "name": "",
          "type": "bool"
        }
      ],
      "stateMutability": "view",
      "type": "function"
    },
    {
      "inputs": [],
      "name": "symbol",
      "outputs": [
        {
          "internalType": "string",
          "name": "",
          "type": "string"
        }
      ],
      "stateMutability": "view",
      "type": "function"
    },
    {
      "inputs": [
        {
          "internalType": "uint256",
          "name": "index",
          "type": "uint256"
        }
      ],
      "name": "tokenByIndex",
      "outputs": [
        {
          "internalType": "uint256",
          "name": "",
          "type": "uint256"
        }
      ],
      "stateMutability": "view",
      "type": "function"
    },
    {
      "inputs": [
        {
          "internalType": "address",
          "name": "owner",
          "type": "address"
        },
        {
          "internalType": "uint256",
          "name": "index",
          "type": "uint256"
        }
      ],
      "name": "tokenOfOwnerByIndex",
      "outputs": [
        {
          "internalType": "uint256",
          "name": "",
          "type": "uint256"
        }
      ],
      "stateMutability": "view",
      "type": "function"
    },
    {
      "inputs": [
        {
          "internalType": "uint256",
          "name": "tokenId",
          "type": "uint256"
        }
      ],
      "name": "tokenURI",
      "outputs": [
        {
          "internalType": "string",
          "name": "",
          "type": "string"
        }
      ],
      "stateMutability": "view",
      "type": "function"
    },
    {
      "inputs": [],
      "name": "totalSupply",
      "outputs": [
        {
          "internalType": "uint256",
          "name": "",
          "type": "uint256"
        }
      ],
      "stateMutability": "view",
      "type": "function"
    },
    {
      "inputs": [
        {
          "internalType": "address",
          "name": "from",
          "type": "address"
        },
        {
          "internalType": "address",
          "name": "to",
          "type": "address"
        },
        {
          "internalType": "uint256",
          "name": "tokenId",
          "type": "uint256"
        }
      ],
      "name": "transferFrom",
      "outputs": [],
      "stateMutability": "nonpayable",
      "type": "function"
    },
    {
      "inputs": [],
      "name": "unpause",
      "outputs": [],
      "stateMutability": "nonpayable",
      "type": "function"
    }
  ],
  "bytecode": "0x60806040523480156200001157600080fd5b506040516200367638038062003676833981016040819052620000349162000abb565b604080518082018252601681527f456c706973204d6574617665727365204865726f65730000000000000000000060208083019182528351808501909452600384526208a9a960eb1b908401528151919291620000949160029162000a15565b508051620000aa90600390602084019062000a15565b5050600c805460ff191690555033620000c56000826200022e565b620000f17f9f2df0fed2c77648de5860a4cc508cd0818c85b8b8a1ab4ceeef8d981c8956a6826200022e565b6200011d7f65d7a28e3265b37a6474929f336521b332c1681b933f6cb9f3376673440d862a826200022e565b600c8054610100600160a81b0319166101006001600160a01b038516021790556040805180820190915260078152665469677265737360c81b60208201526200016890829062000271565b6200019881604051806040016040528060068152602001654d616e74697360d01b8152506200027160201b60201c565b620001c781604051806040016040528060058152602001642b34b832b960d91b8152506200027160201b60201c565b620001f681604051806040016040528060058152602001644372616e6560d81b8152506200027160201b60201c565b6200022681604051806040016040528060068152602001654d6f6e6b657960d01b8152506200027160201b60201c565b505062000bf0565b620002458282620003ba60201b620010781760201c565b60008281526001602090815260409091206200026c91839062001082620003c6821b17901c565b505050565b3360009081527f0781d7cac9c378efa22a7481e4d4d29704a680ddf504b3bc50b517700ee11e6c602052604090205460ff16620002e95760405162461bcd60e51b8152602060048201526011602482015270454d483a206f6e6c79206d696e7465727360781b60448201526064015b60405180910390fd5b6200030b8262000305600d620003e660201b620010971760201c565b620003ea565b600c60019054906101000a90046001600160a01b03166001600160a01b031663aef843d762000346600d620003e660201b620010971760201c565b838560006040518563ffffffff1660e01b81526004016200036b949392919062000aeb565b600060405180830381600087803b1580156200038657600080fd5b505af11580156200039b573d6000803e3d6000fd5b50505050620003b6600d6200054060201b6200109b1760201c565b5050565b620003b6828262000549565b6000620003dd836001600160a01b038416620005e9565b90505b92915050565b5490565b6001600160a01b038216620004425760405162461bcd60e51b815260206004820181905260248201527f4552433732313a206d696e7420746f20746865207a65726f20616464726573736044820152606401620002e0565b6000818152600460205260409020546001600160a01b031615620004a95760405162461bcd60e51b815260206004820152601c60248201527f4552433732313a20746f6b656e20616c7265616479206d696e746564000000006044820152606401620002e0565b620004b7600083836200063b565b6001600160a01b0382166000908152600560205260408120805460019290620004e290849062000b68565b909155505060008181526004602052604080822080546001600160a01b0319166001600160a01b03861690811790915590518392907fddf252ad1be2c89b69c2b068fc378daa952ba7f163c4a11628f55a4df523b3ef908290a45050565b80546001019055565b6000828152602081815260408083206001600160a01b038516845290915290205460ff16620003b6576000828152602081815260408083206001600160a01b03851684529091529020805460ff19166001179055620005a53390565b6001600160a01b0316816001600160a01b0316837f2f8788117e7eff1d82e926ec794901d17c78024a50270940304540a733656f0d60405160405180910390a45050565b60008181526001830160205260408120546200063257508154600181810184556000848152602080822090930184905584548482528286019093526040902091909155620003e0565b506000620003e0565b6200026c8383836200065360201b620010a41760201c565b6200066b838383620006d460201b620011281760201c565b600c5460ff16156200026c5760405162461bcd60e51b815260206004820152602b60248201527f4552433732315061757361626c653a20746f6b656e207472616e73666572207760448201526a1a1a5b19481c185d5cd95960aa1b6064820152608401620002e0565b620006ec8383836200026c60201b6200075f1760201c565b6001600160a01b0383166200074a576200074481600a80546000838152600b60205260408120829055600182018355919091527fc65a7bb8d6351c1cf70c95a316cc6a92839c986682d98bc35f958f4883f9d2a80155565b62000770565b816001600160a01b0316836001600160a01b0316146200077057620007708382620007b0565b6001600160a01b0382166200078a576200026c816200085d565b826001600160a01b0316826001600160a01b0316146200026c576200026c82826200093b565b60006001620007ca846200098c60201b62000bcb1760201c565b620007d6919062000b83565b6000838152600960205260409020549091508082146200082a576001600160a01b03841660009081526008602090815260408083208584528252808320548484528184208190558352600990915290208190555b5060009182526009602090815260408084208490556001600160a01b039094168352600881528383209183525290812055565b600a54600090620008719060019062000b83565b6000838152600b6020526040812054600a8054939450909284908110620008a857634e487b7160e01b600052603260045260246000fd5b9060005260206000200154905080600a8381548110620008d857634e487b7160e01b600052603260045260246000fd5b6000918252602080832090910192909255828152600b9091526040808220849055858252812055600a8054806200091f57634e487b7160e01b600052603160045260246000fd5b6001900381819060005260206000200160009055905550505050565b600062000953836200098c60201b62000bcb1760201c565b6001600160a01b039093166000908152600860209081526040808320868452825280832085905593825260099052919091209190915550565b60006001600160a01b038216620009f95760405162461bcd60e51b815260206004820152602a60248201527f4552433732313a2062616c616e636520717565727920666f7220746865207a65604482015269726f206164647265737360b01b6064820152608401620002e0565b506001600160a01b031660009081526005602052604090205490565b82805462000a239062000b9d565b90600052602060002090601f01602090048101928262000a47576000855562000a92565b82601f1062000a6257805160ff191683800117855562000a92565b8280016001018555821562000a92579182015b8281111562000a9257825182559160200191906001019062000a75565b5062000aa092915062000aa4565b5090565b5b8082111562000aa0576000815560010162000aa5565b60006020828403121562000acd578081fd5b81516001600160a01b038116811462000ae4578182fd5b9392505050565b848152600060206080818401528551806080850152825b8181101562000b205787810183015185820160a00152820162000b02565b8181111562000b32578360a083870101525b50601f01601f1916830160a001915062000b59905060408301856001600160a01b03169052565b82606083015295945050505050565b6000821982111562000b7e5762000b7e62000bda565b500190565b60008282101562000b985762000b9862000bda565b500390565b600181811c9082168062000bb257607f821691505b6020821081141562000bd457634e487b7160e01b600052602260045260246000fd5b50919050565b634e487b7160e01b600052601160045260246000fd5b612a768062000c006000396000f3fe608060405234801561001057600080fd5b506004361061020b5760003560e01c80635c975abb1161012a578063a22cb465116100bd578063d0def5211161008c578063d547741f11610071578063d547741f1461049b578063e63ab1e9146104ae578063e985e9c5146104d557600080fd5b8063d0def52114610461578063d53913931461047457600080fd5b8063a22cb46514610415578063b88d4fde14610428578063c87b56dd1461043b578063ca15c8731461044e57600080fd5b80639010d07c116100f95780639010d07c146103bb57806391d14854146103ce57806395d89b4114610405578063a217fddf1461040d57600080fd5b80635c975abb146103825780636352211e1461038d57806370a08231146103a05780638456cb59146103b357600080fd5b80632f745c59116101a257806342842e0e1161017157806342842e0e1461033657806342966c68146103495780634f6ccce71461035c57806355f804b31461036f57600080fd5b80632f745c59146102e857806336568abe146102fb57806338399d791461030e5780633f4ba83a1461032e57600080fd5b806318160ddd116101de57806318160ddd1461028d57806323b872dd1461029f578063248a9ca3146102b25780632f2ff15d146102d557600080fd5b806301ffc9a71461021057806306fdde0314610238578063081812fc1461024d578063095ea7b314610278575b600080fd5b61022361021e366004612737565b610511565b60405190151581526020015b60405180910390f35b610240610522565b60405161022f91906128ba565b61026061025b3660046126dc565b6105b4565b6040516001600160a01b03909116815260200161022f565b61028b6102863660046126b3565b61064e565b005b600a545b60405190815260200161022f565b61028b6102ad366004612579565b610764565b6102916102c03660046126dc565b60009081526020819052604090206001015490565b61028b6102e33660046126f4565b6107ec565b6102916102f63660046126b3565b61080e565b61028b6103093660046126f4565b6108b6565b61029161031c3660046126dc565b600f6020526000908152604090205481565b61028b6108d8565b61028b610344366004612579565b61097e565b61028b6103573660046126dc565b610999565b61029161036a3660046126dc565b610a20565b61028b61037d36600461276f565b610ad2565b600c5460ff16610223565b61026061039b3660046126dc565b610b40565b6102916103ae36600461252d565b610bcb565b61028b610c65565b6102606103c9366004612716565b610ce3565b6102236103dc3660046126f4565b6000918252602082815260408084206001600160a01b0393909316845291905290205460ff1690565b610240610d02565b610291600081565b61028b61042336600461262d565b610d11565b61028b6104363660046125b4565b610dd6565b6102406104493660046126dc565b610e64565b61029161045c3660046126dc565b610f4c565b61028b61046f366004612667565b610f63565b6102917f9f2df0fed2c77648de5860a4cc508cd0818c85b8b8a1ab4ceeef8d981c8956a681565b61028b6104a93660046126f4565b61106e565b6102917f65d7a28e3265b37a6474929f336521b332c1681b933f6cb9f3376673440d862a81565b6102236104e3366004612547565b6001600160a01b03918216600090815260076020908152604080832093909416825291909152205460ff1690565b600061051c826111e0565b92915050565b606060028054610531906129a7565b80601f016020809104026020016040519081016040528092919081815260200182805461055d906129a7565b80156105aa5780601f1061057f576101008083540402835291602001916105aa565b820191906000526020600020905b81548152906001019060200180831161058d57829003601f168201915b5050505050905090565b6000818152600460205260408120546001600160a01b03166106325760405162461bcd60e51b815260206004820152602c60248201527f4552433732313a20617070726f76656420717565727920666f72206e6f6e657860448201526b34b9ba32b73a103a37b5b2b760a11b60648201526084015b60405180910390fd5b506000908152600660205260409020546001600160a01b031690565b600061065982610b40565b9050806001600160a01b0316836001600160a01b031614156106c75760405162461bcd60e51b815260206004820152602160248201527f4552433732313a20617070726f76616c20746f2063757272656e74206f776e656044820152603960f91b6064820152608401610629565b336001600160a01b03821614806106e357506106e381336104e3565b6107555760405162461bcd60e51b815260206004820152603860248201527f4552433732313a20617070726f76652063616c6c6572206973206e6f74206f7760448201527f6e6572206e6f7220617070726f76656420666f7220616c6c00000000000000006064820152608401610629565b61075f8383611205565b505050565b61076f335b82611273565b6107e15760405162461bcd60e51b815260206004820152603160248201527f4552433732313a207472616e736665722063616c6c6572206973206e6f74206f60448201527f776e6572206e6f7220617070726f7665640000000000000000000000000000006064820152608401610629565b61075f83838361136a565b6107f68282611529565b600082815260016020526040902061075f9082611082565b600061081983610bcb565b821061088d5760405162461bcd60e51b815260206004820152602b60248201527f455243373231456e756d657261626c653a206f776e657220696e646578206f7560448201527f74206f6620626f756e64730000000000000000000000000000000000000000006064820152608401610629565b506001600160a01b03919091166000908152600860209081526040808320938352929052205490565b6108c0828261154f565b600082815260016020526040902061075f90826115d7565b6109027f65d7a28e3265b37a6474929f336521b332c1681b933f6cb9f3376673440d862a336103dc565b6109745760405162461bcd60e51b815260206004820152602560248201527f454d483a206d75737420686176652070617573657220726f6c6520746f20756e60448201527f70617573650000000000000000000000000000000000000000000000000000006064820152608401610629565b61097c6115ec565b565b61075f83838360405180602001604052806000815250610dd6565b6109a233610769565b610a145760405162461bcd60e51b815260206004820152603060248201527f4552433732314275726e61626c653a2063616c6c6572206973206e6f74206f7760448201527f6e6572206e6f7220617070726f766564000000000000000000000000000000006064820152608401610629565b610a1d81611688565b50565b6000610a2b600a5490565b8210610a9f5760405162461bcd60e51b815260206004820152602c60248201527f455243373231456e756d657261626c653a20676c6f62616c20696e646578206f60448201527f7574206f6620626f756e647300000000000000000000000000000000000000006064820152608401610629565b600a8281548110610ac057634e487b7160e01b600052603260045260246000fd5b90600052602060002001549050919050565b610add6000336103dc565b610b295760405162461bcd60e51b815260206004820152600f60248201527f454d483a206f6e6c792061646d696e00000000000000000000000000000000006044820152606401610629565b8051610b3c90600e9060208401906123e3565b5050565b6000818152600460205260408120546001600160a01b03168061051c5760405162461bcd60e51b815260206004820152602960248201527f4552433732313a206f776e657220717565727920666f72206e6f6e657869737460448201527f656e7420746f6b656e00000000000000000000000000000000000000000000006064820152608401610629565b60006001600160a01b038216610c495760405162461bcd60e51b815260206004820152602a60248201527f4552433732313a2062616c616e636520717565727920666f7220746865207a6560448201527f726f2061646472657373000000000000000000000000000000000000000000006064820152608401610629565b506001600160a01b031660009081526005602052604090205490565b610c8f7f65d7a28e3265b37a6474929f336521b332c1681b933f6cb9f3376673440d862a336103dc565b610cdb5760405162461bcd60e51b815260206004820152601060248201527f454d483a206f6e6c7920706175736572000000000000000000000000000000006044820152606401610629565b61097c61172f565b6000828152600160205260408120610cfb90836117b7565b9392505050565b606060038054610531906129a7565b6001600160a01b038216331415610d6a5760405162461bcd60e51b815260206004820152601960248201527f4552433732313a20617070726f766520746f2063616c6c6572000000000000006044820152606401610629565b3360008181526007602090815260408083206001600160a01b03871680855290835292819020805460ff191686151590811790915590519081529192917f17307eab39ab6107e8899845ad3d59bd9653f200f220920489ca2b5937696c31910160405180910390a35050565b610de03383611273565b610e525760405162461bcd60e51b815260206004820152603160248201527f4552433732313a207472616e736665722063616c6c6572206973206e6f74206f60448201527f776e6572206e6f7220617070726f7665640000000000000000000000000000006064820152608401610629565b610e5e848484846117c3565b50505050565b6000818152600460205260409020546060906001600160a01b0316610ef15760405162461bcd60e51b815260206004820152602f60248201527f4552433732314d657461646174613a2055524920717565727920666f72206e6f60448201527f6e6578697374656e7420746f6b656e00000000000000000000000000000000006064820152608401610629565b6000610efb61184c565b90506000815111610f1b5760405180602001604052806000815250610cfb565b80610f258461185b565b604051602001610f369291906127ce565b6040516020818303038152906040529392505050565b600081815260016020526040812061051c90611975565b610f8d7f9f2df0fed2c77648de5860a4cc508cd0818c85b8b8a1ab4ceeef8d981c8956a6336103dc565b610fd95760405162461bcd60e51b815260206004820152601160248201527f454d483a206f6e6c79206d696e746572730000000000000000000000000000006044820152606401610629565b610feb82610fe6600d5490565b61197f565b600c546001600160a01b036101009091041663aef843d761100b600d5490565b838560006040518563ffffffff1660e01b815260040161102e94939291906128cd565b600060405180830381600087803b15801561104857600080fd5b505af115801561105c573d6000803e3d6000fd5b50505050610b3c600d80546001019055565b6108c08282611acd565b610b3c8282611af3565b6000610cfb836001600160a01b038416611b91565b5490565b80546001019055565b6110af838383611128565b600c5460ff161561075f5760405162461bcd60e51b815260206004820152602b60248201527f4552433732315061757361626c653a20746f6b656e207472616e73666572207760448201527f68696c65207061757365640000000000000000000000000000000000000000006064820152608401610629565b6001600160a01b0383166111835761117e81600a80546000838152600b60205260408120829055600182018355919091527fc65a7bb8d6351c1cf70c95a316cc6a92839c986682d98bc35f958f4883f9d2a80155565b6111a6565b816001600160a01b0316836001600160a01b0316146111a6576111a68382611be0565b6001600160a01b0382166111bd5761075f81611c7d565b826001600160a01b0316826001600160a01b03161461075f5761075f8282611d56565b60006001600160e01b0319821663780e9d6360e01b148061051c575061051c82611d9a565b600081815260066020526040902080546001600160a01b0319166001600160a01b038416908117909155819061123a82610b40565b6001600160a01b03167f8c5be1e5ebec7d5bd14f71427d1e84f3dd0314c0f7b2291e5b200ac8c7c3b92560405160405180910390a45050565b6000818152600460205260408120546001600160a01b03166112ec5760405162461bcd60e51b815260206004820152602c60248201527f4552433732313a206f70657261746f7220717565727920666f72206e6f6e657860448201526b34b9ba32b73a103a37b5b2b760a11b6064820152608401610629565b60006112f783610b40565b9050806001600160a01b0316846001600160a01b031614806113325750836001600160a01b0316611327846105b4565b6001600160a01b0316145b8061136257506001600160a01b0380821660009081526007602090815260408083209388168352929052205460ff165b949350505050565b826001600160a01b031661137d82610b40565b6001600160a01b0316146113f95760405162461bcd60e51b815260206004820152602960248201527f4552433732313a207472616e73666572206f6620746f6b656e2074686174206960448201527f73206e6f74206f776e00000000000000000000000000000000000000000000006064820152608401610629565b6001600160a01b03821661145b5760405162461bcd60e51b8152602060048201526024808201527f4552433732313a207472616e7366657220746f20746865207a65726f206164646044820152637265737360e01b6064820152608401610629565b611466838383611dda565b611471600082611205565b6001600160a01b038316600090815260056020526040812080546001929061149a90849061294d565b90915550506001600160a01b03821660009081526005602052604081208054600192906114c8908490612902565b909155505060008181526004602052604080822080546001600160a01b0319166001600160a01b0386811691821790925591518493918716917fddf252ad1be2c89b69c2b068fc378daa952ba7f163c4a11628f55a4df523b3ef91a4505050565b6000828152602081905260409020600101546115458133611de5565b61075f8383611af3565b6001600160a01b03811633146115cd5760405162461bcd60e51b815260206004820152602f60248201527f416363657373436f6e74726f6c3a2063616e206f6e6c792072656e6f756e636560448201527f20726f6c657320666f722073656c6600000000000000000000000000000000006064820152608401610629565b610b3c8282611e63565b6000610cfb836001600160a01b038416611ee2565b600c5460ff1661163e5760405162461bcd60e51b815260206004820152601460248201527f5061757361626c653a206e6f74207061757365640000000000000000000000006044820152606401610629565b600c805460ff191690557f5db9ee0a495bf2e6ff9c91a7834c1ba4fdd244a5e8aa4e537bd38aeae4b073aa335b6040516001600160a01b03909116815260200160405180910390a1565b600061169382610b40565b90506116a181600084611dda565b6116ac600083611205565b6001600160a01b03811660009081526005602052604081208054600192906116d590849061294d565b909155505060008281526004602052604080822080546001600160a01b0319169055518391906001600160a01b038416907fddf252ad1be2c89b69c2b068fc378daa952ba7f163c4a11628f55a4df523b3ef908390a45050565b600c5460ff16156117825760405162461bcd60e51b815260206004820152601060248201527f5061757361626c653a20706175736564000000000000000000000000000000006044820152606401610629565b600c805460ff191660011790557f62e78cea01bee320cd4e420270b5ea74000d11b0c9f74754ebdbfc544b05a25861166b3390565b6000610cfb8383611fff565b6117ce84848461136a565b6117da84848484612037565b610e5e5760405162461bcd60e51b815260206004820152603260248201527f4552433732313a207472616e7366657220746f206e6f6e20455243373231526560448201527f63656976657220696d706c656d656e74657200000000000000000000000000006064820152608401610629565b6060600e8054610531906129a7565b60608161187f5750506040805180820190915260018152600360fc1b602082015290565b8160005b81156118a95780611893816129e2565b91506118a29050600a8361291a565b9150611883565b60008167ffffffffffffffff8111156118d257634e487b7160e01b600052604160045260246000fd5b6040519080825280601f01601f1916602001820160405280156118fc576020820181803683370190505b5090505b84156113625761191160018361294d565b915061191e600a866129fd565b611929906030612902565b60f81b81838151811061194c57634e487b7160e01b600052603260045260246000fd5b60200101906001600160f81b031916908160001a90535061196e600a8661291a565b9450611900565b600061051c825490565b6001600160a01b0382166119d55760405162461bcd60e51b815260206004820181905260248201527f4552433732313a206d696e7420746f20746865207a65726f20616464726573736044820152606401610629565b6000818152600460205260409020546001600160a01b031615611a3a5760405162461bcd60e51b815260206004820152601c60248201527f4552433732313a20746f6b656e20616c7265616479206d696e746564000000006044820152606401610629565b611a4660008383611dda565b6001600160a01b0382166000908152600560205260408120805460019290611a6f908490612902565b909155505060008181526004602052604080822080546001600160a01b0319166001600160a01b03861690811790915590518392907fddf252ad1be2c89b69c2b068fc378daa952ba7f163c4a11628f55a4df523b3ef908290a45050565b600082815260208190526040902060010154611ae98133611de5565b61075f8383611e63565b6000828152602081815260408083206001600160a01b038516845290915290205460ff16610b3c576000828152602081815260408083206001600160a01b03851684529091529020805460ff19166001179055611b4d3390565b6001600160a01b0316816001600160a01b0316837f2f8788117e7eff1d82e926ec794901d17c78024a50270940304540a733656f0d60405160405180910390a45050565b6000818152600183016020526040812054611bd85750815460018181018455600084815260208082209093018490558454848252828601909352604090209190915561051c565b50600061051c565b60006001611bed84610bcb565b611bf7919061294d565b600083815260096020526040902054909150808214611c4a576001600160a01b03841660009081526008602090815260408083208584528252808320548484528184208190558352600990915290208190555b5060009182526009602090815260408084208490556001600160a01b039094168352600881528383209183525290812055565b600a54600090611c8f9060019061294d565b6000838152600b6020526040812054600a8054939450909284908110611cc557634e487b7160e01b600052603260045260246000fd5b9060005260206000200154905080600a8381548110611cf457634e487b7160e01b600052603260045260246000fd5b6000918252602080832090910192909255828152600b9091526040808220849055858252812055600a805480611d3a57634e487b7160e01b600052603160045260246000fd5b6001900381819060005260206000200160009055905550505050565b6000611d6183610bcb565b6001600160a01b039093166000908152600860209081526040808320868452825280832085905593825260099052919091209190915550565b60006001600160e01b031982166380ac58cd60e01b1480611dcb57506001600160e01b03198216635b5e139f60e01b145b8061051c575061051c8261219a565b61075f8383836110a4565b6000828152602081815260408083206001600160a01b038516845290915290205460ff16610b3c57611e21816001600160a01b031660146121bf565b611e2c8360206121bf565b604051602001611e3d9291906127fd565b60408051601f198184030181529082905262461bcd60e51b8252610629916004016128ba565b6000828152602081815260408083206001600160a01b038516845290915290205460ff1615610b3c576000828152602081815260408083206001600160a01b0385168085529252808320805460ff1916905551339285917ff6391f5c32d9c69d2a47ea670b442974b53935d1edc7fd64eb21e047a839171b9190a45050565b60008181526001830160205260408120548015611ff5576000611f0660018361294d565b8554909150600090611f1a9060019061294d565b9050818114611f9b576000866000018281548110611f4857634e487b7160e01b600052603260045260246000fd5b9060005260206000200154905080876000018481548110611f7957634e487b7160e01b600052603260045260246000fd5b6000918252602080832090910192909255918252600188019052604090208390555b8554869080611fba57634e487b7160e01b600052603160045260246000fd5b60019003818190600052602060002001600090559055856001016000868152602001908152602001600020600090556001935050505061051c565b600091505061051c565b600082600001828154811061202457634e487b7160e01b600052603260045260246000fd5b9060005260206000200154905092915050565b60006001600160a01b0384163b1561218f57604051630a85bd0160e11b81526001600160a01b0385169063150b7a029061207b90339089908890889060040161287e565b602060405180830381600087803b15801561209557600080fd5b505af19250505080156120c5575060408051601f3d908101601f191682019092526120c291810190612753565b60015b612175573d8080156120f3576040519150601f19603f3d011682016040523d82523d6000602084013e6120f8565b606091505b50805161216d5760405162461bcd60e51b815260206004820152603260248201527f4552433732313a207472616e7366657220746f206e6f6e20455243373231526560448201527f63656976657220696d706c656d656e74657200000000000000000000000000006064820152608401610629565b805181602001fd5b6001600160e01b031916630a85bd0160e11b149050611362565b506001949350505050565b60006001600160e01b03198216635a05180f60e01b148061051c575061051c826123ae565b606060006121ce83600261292e565b6121d9906002612902565b67ffffffffffffffff8111156121ff57634e487b7160e01b600052604160045260246000fd5b6040519080825280601f01601f191660200182016040528015612229576020820181803683370190505b509050600360fc1b8160008151811061225257634e487b7160e01b600052603260045260246000fd5b60200101906001600160f81b031916908160001a905350600f60fb1b8160018151811061228f57634e487b7160e01b600052603260045260246000fd5b60200101906001600160f81b031916908160001a90535060006122b384600261292e565b6122be906001612902565b90505b600181111561235f577f303132333435363738396162636465660000000000000000000000000000000085600f166010811061230d57634e487b7160e01b600052603260045260246000fd5b1a60f81b82828151811061233157634e487b7160e01b600052603260045260246000fd5b60200101906001600160f81b031916908160001a90535060049490941c9361235881612990565b90506122c1565b508315610cfb5760405162461bcd60e51b815260206004820181905260248201527f537472696e67733a20686578206c656e67746820696e73756666696369656e746044820152606401610629565b60006001600160e01b03198216637965db0b60e01b148061051c57506301ffc9a760e01b6001600160e01b031983161461051c565b8280546123ef906129a7565b90600052602060002090601f0160209004810192826124115760008555612457565b82601f1061242a57805160ff1916838001178555612457565b82800160010185558215612457579182015b8281111561245757825182559160200191906001019061243c565b50612463929150612467565b5090565b5b808211156124635760008155600101612468565b600067ffffffffffffffff8084111561249757612497612a3d565b604051601f8501601f19908116603f011681019082821181831017156124bf576124bf612a3d565b816040528093508581528686860111156124d857600080fd5b858560208301376000602087830101525050509392505050565b80356001600160a01b038116811461250957600080fd5b919050565b600082601f83011261251e578081fd5b610cfb8383356020850161247c565b60006020828403121561253e578081fd5b610cfb826124f2565b60008060408385031215612559578081fd5b612562836124f2565b9150612570602084016124f2565b90509250929050565b60008060006060848603121561258d578081fd5b612596846124f2565b92506125a4602085016124f2565b9150604084013590509250925092565b600080600080608085870312156125c9578081fd5b6125d2856124f2565b93506125e0602086016124f2565b925060408501359150606085013567ffffffffffffffff811115612602578182fd5b8501601f81018713612612578182fd5b6126218782356020840161247c565b91505092959194509250565b6000806040838503121561263f578182fd5b612648836124f2565b91506020830135801515811461265c578182fd5b809150509250929050565b60008060408385031215612679578182fd5b612682836124f2565b9150602083013567ffffffffffffffff81111561269d578182fd5b6126a98582860161250e565b9150509250929050565b600080604083850312156126c5578182fd5b6126ce836124f2565b946020939093013593505050565b6000602082840312156126ed578081fd5b5035919050565b60008060408385031215612706578182fd5b82359150612570602084016124f2565b60008060408385031215612728578182fd5b50508035926020909101359150565b600060208284031215612748578081fd5b8135610cfb81612a53565b600060208284031215612764578081fd5b8151610cfb81612a53565b600060208284031215612780578081fd5b813567ffffffffffffffff811115612796578182fd5b6113628482850161250e565b600081518084526127ba816020860160208601612964565b601f01601f19169290920160200192915050565b600083516127e0818460208801612964565b8351908301906127f4818360208801612964565b01949350505050565b7f416363657373436f6e74726f6c3a206163636f756e7420000000000000000000815260008351612835816017850160208801612964565b7f206973206d697373696e6720726f6c65200000000000000000000000000000006017918401918201528351612872816028840160208801612964565b01602801949350505050565b60006001600160a01b038087168352808616602084015250836040830152608060608301526128b060808301846127a2565b9695505050505050565b602081526000610cfb60208301846127a2565b8481526080602082015260006128e660808301866127a2565b6001600160a01b03949094166040830152506060015292915050565b6000821982111561291557612915612a11565b500190565b60008261292957612929612a27565b500490565b600081600019048311821515161561294857612948612a11565b500290565b60008282101561295f5761295f612a11565b500390565b60005b8381101561297f578181015183820152602001612967565b83811115610e5e5750506000910152565b60008161299f5761299f612a11565b506000190190565b600181811c908216806129bb57607f821691505b602082108114156129dc57634e487b7160e01b600052602260045260246000fd5b50919050565b60006000198214156129f6576129f6612a11565b5060010190565b600082612a0c57612a0c612a27565b500690565b634e487b7160e01b600052601160045260246000fd5b634e487b7160e01b600052601260045260246000fd5b634e487b7160e01b600052604160045260246000fd5b6001600160e01b031981168114610a1d57600080fdfea164736f6c6343000804000a",
  "linkReferences": {},
  "deployedLinkReferences": {}
}