{
  "contractName": "ElpisHeroDataStorages",
  "abi": [
    {
      "inputs": [
        {
          "internalType": "uint256",
          "name": "",
          "type": "uint256"
        }
      ],
      "name": "elpisHeroesData",
      "outputs": [
        {
          "internalType": "uint256",
          "name": "elpisHeroId",
          "type": "uint256"
        },
        {
          "internalType": "string",
          "name": "elpisHeroName",
          "type": "string"
        },
        {
          "internalType": "address",
          "name": "ownerAddress",
          "type": "address"
        },
        {
          "internalType": "uint256",
          "name": "heroPrice",
          "type": "uint256"
        },
        {
          "internalType": "string",
          "name": "status",
          "type": "string"
        },
        {
          "internalType": "uint256",
          "name": "reputation",
          "type": "uint256"
        }
      ],
      "stateMutability": "view",
      "type": "function"
    }
  ],
  "bytecode": "0x608060405234801561001057600080fd5b506102f0806100206000396000f3fe608060405234801561001057600080fd5b506004361061002b5760003560e01c80630b9d8e3614610030575b600080fd5b61004361003e3660046101c4565b61005e565b6040516100559695949392919061022a565b60405180910390f35b6000818154811061006e57600080fd5b600091825260209091206006909102018054600182018054919350906100939061027f565b80601f01602080910402602001604051908101604052809291908181526020018280546100bf9061027f565b801561010c5780601f106100e15761010080835404028352916020019161010c565b820191906000526020600020905b8154815290600101906020018083116100ef57829003601f168201915b505050506002830154600384015460048501805494956001600160a01b03909316949193509061013b9061027f565b80601f01602080910402602001604051908101604052809291908181526020018280546101679061027f565b80156101b45780601f10610189576101008083540402835291602001916101b4565b820191906000526020600020905b81548152906001019060200180831161019757829003601f168201915b5050505050908060050154905086565b6000602082840312156101d657600080fd5b5035919050565b6000815180845260005b81811015610203576020818501810151868301820152016101e7565b81811115610215576000602083870101525b50601f01601f19169290920160200192915050565b86815260c06020820152600061024360c08301886101dd565b6001600160a01b038716604084015260608301869052828103608084015261026b81866101dd565b9150508260a0830152979650505050505050565b600181811c9082168061029357607f821691505b602082108114156102b457634e487b7160e01b600052602260045260246000fd5b5091905056fea2646970667358221220141805bd6b839a4a62a453dd4adec50d038824df6b60ad89ba1d8d558bd541ff64736f6c634300080c0033",
  "immutableReferences": {},
  "source": "pragma solidity ^0.8.0;\n\nimport \"./ElpisHeroDataObjects.sol\";\n\n// shared storage\ncontract ElpisHeroDataStorages is ElpisHeroDataObjects {\n    ElpisHeroData[] public elpisHeroesData;\n}\n",
  "sourcePath": "E:\\Projects\\Blockchain\\NFT Projects\\nft_marketplace\\contracts\\elpisHeroData\\ElpisHeroDataStorages.sol",
  "compiler": {
    "name": "solc",
    "version": "0.8.12+commit.f00d7308.Emscripten.clang"
  },
  "schemaVersion": "3.4.5",
  "updatedAt": "2022-02-19T15:16:02.635Z",
  "devdoc": {
    "kind": "dev",
    "methods": {},
    "version": 1
  },
  "userdoc": {
    "kind": "user",
    "methods": {},
    "version": 1
  }
}