{
  "contractName": "ElpisHeroMarketplace",
  "abi": [
    {
      "inputs": [
        {
          "internalType": "contract ElpisHeroesData",
          "name": "_elpisHeroesData",
          "type": "address"
        },
        {
          "internalType": "contract ElpisMetaverseHeroes",
          "name": "_elpisHeroes",
          "type": "address"
        }
      ],
      "stateMutability": "nonpayable",
      "type": "constructor"
    },
    {
      "anonymous": false,
      "inputs": [
        {
          "indexed": false,
          "internalType": "uint256",
          "name": "tokenId",
          "type": "uint256"
        },
        {
          "indexed": false,
          "internalType": "address",
          "name": "ownerBeforeOwnershipTransferred",
          "type": "address"
        },
        {
          "indexed": false,
          "internalType": "address",
          "name": "ownerAfterOwnershipTransferred",
          "type": "address"
        }
      ],
      "name": "ElpisHeroOwnershipChanged",
      "type": "event"
    },
    {
      "anonymous": false,
      "inputs": [
        {
          "indexed": false,
          "internalType": "uint256",
          "name": "ad",
          "type": "uint256"
        },
        {
          "indexed": false,
          "internalType": "bytes32",
          "name": "status",
          "type": "bytes32"
        }
      ],
      "name": "TradeStatusChange",
      "type": "event"
    },
    {
      "inputs": [],
      "name": "ELPISHERO_MARKETPLACE",
      "outputs": [
        {
          "internalType": "address",
          "name": "",
          "type": "address"
        }
      ],
      "stateMutability": "view",
      "type": "function",
      "constant": true
    },
    {
      "inputs": [
        {
          "internalType": "uint256",
          "name": "_tokenId",
          "type": "uint256"
        }
      ],
      "name": "cancelTrade",
      "outputs": [],
      "stateMutability": "nonpayable",
      "type": "function"
    },
    {
      "inputs": [],
      "name": "elpisHeroes",
      "outputs": [
        {
          "internalType": "contract ElpisMetaverseHeroes",
          "name": "",
          "type": "address"
        }
      ],
      "stateMutability": "view",
      "type": "function",
      "constant": true
    },
    {
      "inputs": [],
      "name": "elpisHeroesData",
      "outputs": [
        {
          "internalType": "contract ElpisHeroesData",
          "name": "",
          "type": "address"
        }
      ],
      "stateMutability": "view",
      "type": "function",
      "constant": true
    },
    {
      "inputs": [],
      "name": "elpisHeroesDataContract",
      "outputs": [
        {
          "internalType": "contract ElpisHeroesData",
          "name": "",
          "type": "address"
        }
      ],
      "stateMutability": "view",
      "type": "function",
      "constant": true
    },
    {
      "inputs": [
        {
          "internalType": "uint256",
          "name": "_tokenId",
          "type": "uint256"
        }
      ],
      "name": "getTrade",
      "outputs": [
        {
          "components": [
            {
              "internalType": "address",
              "name": "seller",
              "type": "address"
            },
            {
              "internalType": "uint256",
              "name": "tokenId",
              "type": "uint256"
            },
            {
              "internalType": "uint256",
              "name": "tokenPrice",
              "type": "uint256"
            },
            {
              "internalType": "bytes32",
              "name": "status",
              "type": "bytes32"
            }
          ],
          "internalType": "struct ElpisHeroTradable.Trade",
          "name": "trade_",
          "type": "tuple"
        }
      ],
      "stateMutability": "view",
      "type": "function",
      "constant": true
    },
    {
      "inputs": [
        {
          "internalType": "uint256",
          "name": "_tokenId",
          "type": "uint256"
        }
      ],
      "name": "openTrade",
      "outputs": [],
      "stateMutability": "nonpayable",
      "type": "function"
    },
    {
      "inputs": [
        {
          "internalType": "uint256",
          "name": "_tokenId",
          "type": "uint256"
        },
        {
          "internalType": "uint256",
          "name": "_tokenPrice",
          "type": "uint256"
        }
      ],
      "name": "openTradeWhenCreateNewPhotoNFT",
      "outputs": [],
      "stateMutability": "nonpayable",
      "type": "function"
    },
    {
      "inputs": [
        {
          "internalType": "uint256",
          "name": "",
          "type": "uint256"
        }
      ],
      "name": "trades",
      "outputs": [
        {
          "internalType": "address",
          "name": "seller",
          "type": "address"
        },
        {
          "internalType": "uint256",
          "name": "tokenId",
          "type": "uint256"
        },
        {
          "internalType": "uint256",
          "name": "tokenPrice",
          "type": "uint256"
        },
        {
          "internalType": "bytes32",
          "name": "status",
          "type": "bytes32"
        }
      ],
      "stateMutability": "view",
      "type": "function",
      "constant": true
    },
    {
      "inputs": [
        {
          "internalType": "uint256",
          "name": "_tokenId",
          "type": "uint256"
        },
        {
          "internalType": "address",
          "name": "_buyer",
          "type": "address"
        }
      ],
      "name": "transferOwnershipOfPhotoNFT",
      "outputs": [],
      "stateMutability": "nonpayable",
      "type": "function"
    },
    {
      "inputs": [
        {
          "internalType": "uint256",
          "name": "_tokenId",
          "type": "uint256"
        }
      ],
      "name": "buyElpisHero",
      "outputs": [],
      "stateMutability": "payable",
      "type": "function",
      "payable": true
    }
  ],
  "bytecode": "0x608060405234801561001057600080fd5b506040516110bf3803806110bf83398101604081905261002f9161009a565b600180546001600160a01b039384166001600160a01b03199182168117909255600060035560058054821690921790915560068054929093169181169190911790915560048054909116301790556100d4565b6001600160a01b038116811461009757600080fd5b50565b600080604083850312156100ad57600080fd5b82516100b881610082565b60208401519092506100c981610082565b809150509250929050565b610fdc806100e36000396000f3fe60806040526004361061009c5760003560e01c8063254d994511610064578063254d9945146101b85780632db25e05146101d85780635695c79314610234578063781864b41461025457806379040d6014610267578063fe183d151461028757600080fd5b806306563cd0146100a157806309ec6cc7146100de57806319da590a146101005780631a2afa4c146101205780631e6c598e14610140575b600080fd5b3480156100ad57600080fd5b506001546100c1906001600160a01b031681565b6040516001600160a01b0390911681526020015b60405180910390f35b3480156100ea57600080fd5b506100fe6100f9366004610ce6565b6102a7565b005b34801561010c57600080fd5b506100fe61011b366004610d17565b6104ce565b34801561012c57600080fd5b506005546100c1906001600160a01b031681565b34801561014c57600080fd5b5061018e61015b366004610ce6565b600260208190526000918252604090912080546001820154928201546003909201546001600160a01b0390911692919084565b604080516001600160a01b03909516855260208501939093529183015260608201526080016100d5565b3480156101c457600080fd5b506100fe6101d3366004610ce6565b61061e565b3480156101e457600080fd5b506101f86101f3366004610ce6565b6107d5565b6040516100d5919081516001600160a01b0316815260208083015190820152604080830151908201526060918201519181019190915260800190565b34801561024057600080fd5b506004546100c1906001600160a01b031681565b6100fe610262366004610ce6565b610844565b34801561027357600080fd5b506006546100c1906001600160a01b031681565b34801561029357600080fd5b506100fe6102a2366004610d47565b610bf1565b600081815260026020526040902080546001600160a01b031633146103225760405162461bcd60e51b815260206004820152602660248201527f54726164652063616e2062652063616e63656c6c6564206f6e6c79206279207360448201526532b63632b91760d11b60648201526084015b60405180910390fd5b80600301546327b832b760e11b146103715760405162461bcd60e51b81526020600482015260126024820152712a3930b2329034b9903737ba1027b832b71760711b6044820152606401610319565b60015460408051631a3669bb60e31b8152600481018590526024810191909152600960448201526810d85b98d95b1b195960ba1b60648201526001600160a01b039091169063d1b34dd890608401600060405180830381600087803b1580156103d957600080fd5b505af11580156103ed573d6000803e3d6000fd5b5050600054835460018501546040516323b872dd60e01b81526001600160a01b0393841695506323b872dd945061042b933093169190600401610d69565b600060405180830381600087803b15801561044557600080fd5b505af1158015610459573d6000803e3d6000fd5b505050600083815260026020526040908190206810d85b98d95b1b195960ba1b600390910155517f4d38ed2c5ea671a5ccddc331f0ebebd94a60aaf6e572543497485d4d148f9edf91506104c2908481526810d85b98d95b1b195960ba1b602082015260400190565b60405180910390a15050565b600082815260026020526040902060038101546327b832b760e11b1461052b5760405162461bcd60e51b81526020600482015260126024820152712a3930b2329034b9903737ba1027b832b71760711b6044820152606401610319565b600083815260026020526040902080546001600160a01b0319166001600160a01b03841617905560005460018201546040516323b872dd60e01b81526001600160a01b03909216916323b872dd916105899130918791600401610d69565b600060405180830381600087803b1580156105a357600080fd5b505af11580156105b7573d6000803e3d6000fd5b505050506810d85b98d95b1b195960ba1b6105d1846107d5565b60600152604080518481526810d85b98d95b1b195960ba1b60208201527f4d38ed2c5ea671a5ccddc331f0ebebd94a60aaf6e572543497485d4d148f9edf910160405180910390a1505050565b600081815260026020526040902080546001600160a01b0316331461068f5760405162461bcd60e51b815260206004820152602160248201527f54726164652063616e206265206f70656e206f6e6c792062792073656c6c65726044820152601760f91b6064820152608401610319565b600154604051631a3669bb60e31b81526001600160a01b039091169063d1b34dd8906106df9085906004019081526040602082018190526004908201526327b832b760e11b606082015260800190565b600060405180830381600087803b1580156106f957600080fd5b505af115801561070d573d6000803e3d6000fd5b505060005460018401546040516323b872dd60e01b81526001600160a01b0390921693506323b872dd92506107489133913091600401610d69565b600060405180830381600087803b15801561076257600080fd5b505af1158015610776573d6000803e3d6000fd5b505050600083815260026020526040908190206327b832b760e11b600390910155517f4d38ed2c5ea671a5ccddc331f0ebebd94a60aaf6e572543497485d4d148f9edf91506104c2908481526327b832b760e11b602082015260400190565b60408051608081018252600080825260208201819052918101829052606081019190915250600090815260026020818152604092839020835160808101855281546001600160a01b03168152600182015492810192909252918201549281019290925260030154606082015290565b600554604051630b26763560e21b8152600481018390526000916001600160a01b031690632c99d8d490602401600060405180830381865afa15801561088e573d6000803e3d6000fd5b505050506040513d6000823e601f3d908101601f191682016040526108b69190810190610e99565b604081015160608201519192509081903481146109285760405162461bcd60e51b815260206004820152602a60248201527f6d73672e76616c75652073686f756c6420626520657175616c20746f2074686560448201526908189d5e505b5bdd5b9d60b21b6064820152608401610319565b6040516001600160a01b0383169082156108fc029083906000818181858888f1935050505015801561095e573d6000803e3d6000fd5b50835160065460405163095ea7b360e01b815233600482018190526024820184905292916001600160a01b03169063095ea7b390604401600060405180830381600087803b1580156109af57600080fd5b505af11580156109c3573d6000803e3d6000fd5b50506006546040516331a9108f60e11b815260048101859052600093506001600160a01b039091169150636352211e90602401602060405180830381865afa158015610a13573d6000803e3d6000fd5b505050506040513d601f19601f82011682018060405250810190610a379190610f5c565b9050610a4382846104ce565b600554604051630658383b60e31b8152600481018490526001600160a01b038581166024830152909116906332c1c1d890604401600060405180830381600087803b158015610a9157600080fd5b505af1158015610aa5573d6000803e3d6000fd5b505060055460408051631a3669bb60e31b8152600481018790526024810191909152600960448201526810d85b98d95b1b195960ba1b60648201526001600160a01b03909116925063d1b34dd89150608401600060405180830381600087803b158015610b1157600080fd5b505af1158015610b25573d6000803e3d6000fd5b50506006546040516331a9108f60e11b815260048101869052600093506001600160a01b039091169150636352211e90602401602060405180830381865afa158015610b75573d6000803e3d6000fd5b505050506040513d601f19601f82011682018060405250810190610b999190610f5c565b604080518581526001600160a01b03858116602083015283168183015290519192507fc2aec351cf198de36e1a5a2f728154d7bb7ac47c5be31a4ae498ba64a2605784919081900360600190a1505050505050505050565b6000546040516323b872dd60e01b81526001600160a01b03909116906323b872dd90610c2590339030908790600401610d69565b600060405180830381600087803b158015610c3f57600080fd5b505af1158015610c53573d6000803e3d6000fd5b50506040805160808101825233815260208082018781528284018781526327b832b760e11b60608501908152600380546000908152600295869052968720955186546001600160a01b0319166001600160a01b0390911617865592516001808701919091559151938501939093559151928101929092558154909450909250610cdd908490610f80565b90915550505050565b600060208284031215610cf857600080fd5b5035919050565b6001600160a01b0381168114610d1457600080fd5b50565b60008060408385031215610d2a57600080fd5b823591506020830135610d3c81610cff565b809150509250929050565b60008060408385031215610d5a57600080fd5b50508035926020909101359150565b6001600160a01b039384168152919092166020820152604081019190915260600190565b634e487b7160e01b600052604160045260246000fd5b60405160c0810167ffffffffffffffff81118282101715610dc657610dc6610d8d565b60405290565b604051601f8201601f1916810167ffffffffffffffff81118282101715610df557610df5610d8d565b604052919050565b600082601f830112610e0e57600080fd5b815167ffffffffffffffff811115610e2857610e28610d8d565b6020610e3c601f8301601f19168201610dcc565b8281528582848701011115610e5057600080fd5b60005b83811015610e6e578581018301518282018401528201610e53565b83811115610e7f5760008385840101525b5095945050505050565b8051610e9481610cff565b919050565b600060208284031215610eab57600080fd5b815167ffffffffffffffff80821115610ec357600080fd5b9083019060c08286031215610ed757600080fd5b610edf610da3565b82518152602083015182811115610ef557600080fd5b610f0187828601610dfd565b602083015250610f1360408401610e89565b604082015260608301516060820152608083015182811115610f3457600080fd5b610f4087828601610dfd565b60808301525060a083015160a082015280935050505092915050565b600060208284031215610f6e57600080fd5b8151610f7981610cff565b9392505050565b60008219821115610fa157634e487b7160e01b600052601160045260246000fd5b50019056fea2646970667358221220926523ddbed028d3c0b4f5eb37ecf4ad53bc4bcb6ecc9fabbe529d6ae03a243064736f6c634300080c0033",
  "immutableReferences": {},
  "source": "// SPDX-License-Identifier: MIT\n\npragma solidity ^0.8.0;\npragma experimental ABIEncoderV2;\n\nimport \"./ElpisMetaverseHeroes.sol\";\nimport \"./ElpisHeroesData.sol\";\nimport \"./marketplace/ElpisHeroMarketplaceEvents.sol\";\nimport \"./marketplace/ElpisHeroTradable.sol\";\nimport \"./utils/math/SafeMath.sol\";\n\ncontract ElpisHeroMarketplace is ElpisHeroTradable, ElpisHeroMarketplaceEvents {\n    using SafeMath for uint256;\n\n    address public ELPISHERO_MARKETPLACE;\n    ElpisHeroesData public elpisHeroesDataContract;\n    ElpisMetaverseHeroes public elpisHeroes;\n\n    constructor(\n        ElpisHeroesData _elpisHeroesData,\n        ElpisMetaverseHeroes _elpisHeroes\n    ) ElpisHeroTradable(_elpisHeroesData) {\n        elpisHeroesDataContract = _elpisHeroesData;\n        elpisHeroes = _elpisHeroes;\n        ELPISHERO_MARKETPLACE = address(uint160(address(this)));\n    }\n\n    /**\n     * @notice - Buy function is that buy NFT token and ownership transfer. (Reference from IERC721.sol)\n     * @notice - msg.sender buy NFT with ETH (msg.value)\n     */\n\n    function buyElpisHero(uint256 _tokenId) public payable {\n        ElpisHeroesData.ElpisHeroData\n            memory elpisHeroData = elpisHeroesDataContract.getElpiHeroData(\n                _tokenId\n            );\n        address _seller = elpisHeroData.ownerAddress; /// Owner\n        // address payable seller = address(uint160(_seller)); /// Convert owner address with payable\n        address payable seller = payable(_seller); /// Convert owner address with payable\n        uint256 buyAmount = elpisHeroData.heroPrice;\n        require(\n            msg.value == buyAmount,\n            \"msg.value should be equal to the buyAmount\"\n        );\n\n        /// Bought-amount is transferred into a seller wallet\n        seller.transfer(buyAmount);\n\n        /// Approve a buyer address as a receiver before NFT's transferFrom method is executed\n        address buyer = msg.sender;\n        // uint256 photoId = 1; /// [Note]: PhotoID is always 1. Because each photoNFT is unique.\n        uint256 elpisHeroId = elpisHeroData.elpisHeroId;\n        elpisHeroes.approve(buyer, elpisHeroId);\n\n        address ownerBeforeOwnershipTransferred = elpisHeroes.ownerOf(\n            elpisHeroId\n        );\n\n        /// Transfer Ownership of the ElpisHero from a seller to a buyer\n        transferOwnershipOfPhotoNFT(elpisHeroId, buyer);\n        elpisHeroesDataContract.updateOwnerOfELpisHero(elpisHeroId, buyer);\n        elpisHeroesDataContract.updateStatus(elpisHeroId, \"Cancelled\");\n\n        /// Event for checking result of transferring ownership of a photoNFT\n        address ownerAfterOwnershipTransferred = elpisHeroes.ownerOf(\n            elpisHeroId\n        );\n        emit ElpisHeroOwnershipChanged(\n            elpisHeroId,\n            ownerBeforeOwnershipTransferred,\n            ownerAfterOwnershipTransferred\n        );\n\n        /// Mint a photo with a new photoId\n        //string memory tokenURI = photoNFTFactory.getTokenURI(photoData.ipfsHashOfPhoto);  /// [Note]: IPFS hash + URL\n        //photoNFT.mint(msg.sender, tokenURI);\n    }\n}\n",
  "sourcePath": "E:\\Projects\\Blockchain\\NFT Projects\\nft_marketplace\\contracts\\ElpisHeroMarketplace.sol",
  "compiler": {
    "name": "solc",
    "version": "0.8.12+commit.f00d7308.Emscripten.clang"
  },
  "schemaVersion": "3.4.5",
  "updatedAt": "2022-02-19T15:16:26.010Z",
  "networkType": "ethereum",
  "devdoc": {
    "kind": "dev",
    "methods": {
      "cancelTrade(uint256)": {
        "details": "Cancels a trade by the seller."
      },
      "getTrade(uint256)": {
        "details": "- Returns the details for a trade."
      },
      "openTrade(uint256)": {
        "details": "Opens a trade by the seller."
      },
      "openTradeWhenCreateNewPhotoNFT(uint256,uint256)": {
        "details": "Opens a new trade. Puts _tokenId in escrow.",
        "params": {
          "_tokenId": "The id for the tokenId to trade.",
          "_tokenPrice": "The amount of currency for which to trade the tokenId."
        }
      },
      "transferOwnershipOfPhotoNFT(uint256,address)": {
        "details": "Executes a trade. Must have approved this contract to transfer the amount of currency specified to the seller. Transfers ownership of the elpisHero to the filler."
      }
    },
    "version": 1
  },
  "userdoc": {
    "kind": "user",
    "methods": {
      "buyElpisHero(uint256)": {
        "notice": "- Buy function is that buy NFT token and ownership transfer. (Reference from IERC721.sol)- msg.sender buy NFT with ETH (msg.value)"
      },
      "openTradeWhenCreateNewPhotoNFT(uint256,uint256)": {
        "notice": "- This method is only executed when ElpisHero is created"
      }
    },
    "version": 1
  }
}