{
  "contractName": "ElpisHeroTradable",
  "abi": [
    {
      "inputs": [
        {
          "internalType": "contract ElpisHeroesData",
          "name": "_elpisHeroesData",
          "type": "address"
        }
      ],
      "stateMutability": "nonpayable",
      "type": "constructor"
    },
    {
      "anonymous": false,
      "inputs": [
        {
          "indexed": false,
          "internalType": "uint256",
          "name": "ad",
          "type": "uint256"
        },
        {
          "indexed": false,
          "internalType": "bytes32",
          "name": "status",
          "type": "bytes32"
        }
      ],
      "name": "TradeStatusChange",
      "type": "event"
    },
    {
      "inputs": [],
      "name": "elpisHeroesData",
      "outputs": [
        {
          "internalType": "contract ElpisHeroesData",
          "name": "",
          "type": "address"
        }
      ],
      "stateMutability": "view",
      "type": "function"
    },
    {
      "inputs": [
        {
          "internalType": "uint256",
          "name": "",
          "type": "uint256"
        }
      ],
      "name": "trades",
      "outputs": [
        {
          "internalType": "address",
          "name": "seller",
          "type": "address"
        },
        {
          "internalType": "uint256",
          "name": "tokenId",
          "type": "uint256"
        },
        {
          "internalType": "uint256",
          "name": "tokenPrice",
          "type": "uint256"
        },
        {
          "internalType": "bytes32",
          "name": "status",
          "type": "bytes32"
        }
      ],
      "stateMutability": "view",
      "type": "function"
    },
    {
      "inputs": [
        {
          "internalType": "uint256",
          "name": "_tokenId",
          "type": "uint256"
        },
        {
          "internalType": "uint256",
          "name": "_tokenPrice",
          "type": "uint256"
        }
      ],
      "name": "openTradeWhenCreateNewPhotoNFT",
      "outputs": [],
      "stateMutability": "nonpayable",
      "type": "function"
    },
    {
      "inputs": [
        {
          "internalType": "uint256",
          "name": "_tokenId",
          "type": "uint256"
        }
      ],
      "name": "openTrade",
      "outputs": [],
      "stateMutability": "nonpayable",
      "type": "function"
    },
    {
      "inputs": [
        {
          "internalType": "uint256",
          "name": "_tokenId",
          "type": "uint256"
        }
      ],
      "name": "cancelTrade",
      "outputs": [],
      "stateMutability": "nonpayable",
      "type": "function"
    },
    {
      "inputs": [
        {
          "internalType": "uint256",
          "name": "_tokenId",
          "type": "uint256"
        },
        {
          "internalType": "address",
          "name": "_buyer",
          "type": "address"
        }
      ],
      "name": "transferOwnershipOfPhotoNFT",
      "outputs": [],
      "stateMutability": "nonpayable",
      "type": "function"
    },
    {
      "inputs": [
        {
          "internalType": "uint256",
          "name": "_tokenId",
          "type": "uint256"
        }
      ],
      "name": "getTrade",
      "outputs": [
        {
          "components": [
            {
              "internalType": "address",
              "name": "seller",
              "type": "address"
            },
            {
              "internalType": "uint256",
              "name": "tokenId",
              "type": "uint256"
            },
            {
              "internalType": "uint256",
              "name": "tokenPrice",
              "type": "uint256"
            },
            {
              "internalType": "bytes32",
              "name": "status",
              "type": "bytes32"
            }
          ],
          "internalType": "struct ElpisHeroTradable.Trade",
          "name": "trade_",
          "type": "tuple"
        }
      ],
      "stateMutability": "view",
      "type": "function"
    }
  ],
  "bytecode": "0x608060405234801561001057600080fd5b506040516109db3803806109db83398101604081905261002f91610059565b600180546001600160a01b0319166001600160a01b03929092169190911790556000600355610089565b60006020828403121561006b57600080fd5b81516001600160a01b038116811461008257600080fd5b9392505050565b610943806100986000396000f3fe608060405234801561001057600080fd5b506004361061007d5760003560e01c80631e6c598e1161005b5780631e6c598e146100da578063254d9945146101455780632db25e0514610158578063fe183d15146101a757600080fd5b806306563cd01461008257806309ec6cc7146100b257806319da590a146100c7575b600080fd5b600154610095906001600160a01b031681565b6040516001600160a01b0390911681526020015b60405180910390f35b6100c56100c036600461084c565b6101ba565b005b6100c56100d5366004610865565b6103e1565b61011b6100e836600461084c565b600260208190526000918252604090912080546001820154928201546003909201546001600160a01b0390911692919084565b604080516001600160a01b03909516855260208501939093529183015260608201526080016100a9565b6100c561015336600461084c565b610531565b61016b61016636600461084c565b6106e8565b6040516100a9919081516001600160a01b0316815260208083015190820152604080830151908201526060918201519181019190915260800190565b6100c56101b53660046108a1565b610757565b600081815260026020526040902080546001600160a01b031633146102355760405162461bcd60e51b815260206004820152602660248201527f54726164652063616e2062652063616e63656c6c6564206f6e6c79206279207360448201526532b63632b91760d11b60648201526084015b60405180910390fd5b80600301546327b832b760e11b146102845760405162461bcd60e51b81526020600482015260126024820152712a3930b2329034b9903737ba1027b832b71760711b604482015260640161022c565b60015460408051631a3669bb60e31b8152600481018590526024810191909152600960448201526810d85b98d95b1b195960ba1b60648201526001600160a01b039091169063d1b34dd890608401600060405180830381600087803b1580156102ec57600080fd5b505af1158015610300573d6000803e3d6000fd5b5050600054835460018501546040516323b872dd60e01b81526001600160a01b0393841695506323b872dd945061033e9330931691906004016108c3565b600060405180830381600087803b15801561035857600080fd5b505af115801561036c573d6000803e3d6000fd5b505050600083815260026020526040908190206810d85b98d95b1b195960ba1b600390910155517f4d38ed2c5ea671a5ccddc331f0ebebd94a60aaf6e572543497485d4d148f9edf91506103d5908481526810d85b98d95b1b195960ba1b602082015260400190565b60405180910390a15050565b600082815260026020526040902060038101546327b832b760e11b1461043e5760405162461bcd60e51b81526020600482015260126024820152712a3930b2329034b9903737ba1027b832b71760711b604482015260640161022c565b600083815260026020526040902080546001600160a01b0319166001600160a01b03841617905560005460018201546040516323b872dd60e01b81526001600160a01b03909216916323b872dd9161049c91309187916004016108c3565b600060405180830381600087803b1580156104b657600080fd5b505af11580156104ca573d6000803e3d6000fd5b505050506810d85b98d95b1b195960ba1b6104e4846106e8565b60600152604080518481526810d85b98d95b1b195960ba1b60208201527f4d38ed2c5ea671a5ccddc331f0ebebd94a60aaf6e572543497485d4d148f9edf910160405180910390a1505050565b600081815260026020526040902080546001600160a01b031633146105a25760405162461bcd60e51b815260206004820152602160248201527f54726164652063616e206265206f70656e206f6e6c792062792073656c6c65726044820152601760f91b606482015260840161022c565b600154604051631a3669bb60e31b81526001600160a01b039091169063d1b34dd8906105f29085906004019081526040602082018190526004908201526327b832b760e11b606082015260800190565b600060405180830381600087803b15801561060c57600080fd5b505af1158015610620573d6000803e3d6000fd5b505060005460018401546040516323b872dd60e01b81526001600160a01b0390921693506323b872dd925061065b91339130916004016108c3565b600060405180830381600087803b15801561067557600080fd5b505af1158015610689573d6000803e3d6000fd5b505050600083815260026020526040908190206327b832b760e11b600390910155517f4d38ed2c5ea671a5ccddc331f0ebebd94a60aaf6e572543497485d4d148f9edf91506103d5908481526327b832b760e11b602082015260400190565b60408051608081018252600080825260208201819052918101829052606081019190915250600090815260026020818152604092839020835160808101855281546001600160a01b03168152600182015492810192909252918201549281019290925260030154606082015290565b6000546040516323b872dd60e01b81526001600160a01b03909116906323b872dd9061078b903390309087906004016108c3565b600060405180830381600087803b1580156107a557600080fd5b505af11580156107b9573d6000803e3d6000fd5b50506040805160808101825233815260208082018781528284018781526327b832b760e11b60608501908152600380546000908152600295869052968720955186546001600160a01b0319166001600160a01b03909116178655925160018087019190915591519385019390935591519281019290925581549094509092506108439084906108e7565b90915550505050565b60006020828403121561085e57600080fd5b5035919050565b6000806040838503121561087857600080fd5b8235915060208301356001600160a01b038116811461089657600080fd5b809150509250929050565b600080604083850312156108b457600080fd5b50508035926020909101359150565b6001600160a01b039384168152919092166020820152604081019190915260600190565b6000821982111561090857634e487b7160e01b600052601160045260246000fd5b50019056fea2646970667358221220a491836c4d8ee8187878b03d95865892ae84232fcd928ecf6705bd7ec28888cb64736f6c634300080c0033",
  "immutableReferences": {},
  "source": "pragma solidity ^0.8.0;\npragma experimental ABIEncoderV2;\n\nimport \"../ElpisMetaverseHeroes.sol\";\nimport \"../ElpisHeroesData.sol\";\n\n/**\n * @title - ElpisHeroTradable contract\n * @notice - This contract has role that put on sale of elpisHero\n */\ncontract ElpisHeroTradable {\n    event TradeStatusChange(uint256 ad, bytes32 status);\n\n    ElpisMetaverseHeroes private elpisMetaverseHeroes;\n    ElpisHeroesData public elpisHeroesData;\n\n    //TODO make set function of elpisMetaverseHeroes and elpisHeroesData\n\n    struct Trade {\n        address seller;\n        uint256 tokenId;\n        uint256 tokenPrice;\n        bytes32 status; /// Open, Executed, Cancelled\n    }\n    mapping(uint256 => Trade) public trades; /// [Key]: ElpisHeroes's token ID\n\n    uint256 tradeCounter;\n\n    constructor(ElpisHeroesData _elpisHeroesData) {\n        elpisHeroesData = _elpisHeroesData;\n        tradeCounter = 0;\n    }\n\n    /**\n     * @notice - This method is only executed when ElpisHero is created\n     * @dev Opens a new trade. Puts _tokenId in escrow.\n     * @param _tokenId The id for the tokenId to trade.\n     * @param _tokenPrice The amount of currency for which to trade the tokenId.\n     */\n    function openTradeWhenCreateNewPhotoNFT(\n        uint256 _tokenId,\n        uint256 _tokenPrice\n    ) public {\n        elpisMetaverseHeroes.transferFrom(msg.sender, address(this), _tokenId);\n\n        trades[tradeCounter] = Trade({\n            seller: msg.sender,\n            tokenId: _tokenId,\n            tokenPrice: _tokenPrice,\n            status: \"Open\"\n        });\n        tradeCounter += 1; /// [Note]: Original\n    }\n\n    /**\n     * @dev Opens a trade by the seller.\n     */\n    function openTrade(uint256 _tokenId) public {\n        Trade storage trade = trades[_tokenId];\n        require(\n            msg.sender == trade.seller,\n            \"Trade can be open only by seller.\"\n        );\n        elpisHeroesData.updateStatus(_tokenId, \"Open\");\n        elpisMetaverseHeroes.transferFrom(\n            msg.sender,\n            address(this),\n            trade.tokenId\n        );\n        trades[_tokenId].status = \"Open\";\n        emit TradeStatusChange(_tokenId, \"Open\");\n    }\n\n    /**\n     * @dev Cancels a trade by the seller.\n     */\n    function cancelTrade(uint256 _tokenId) public {\n        Trade storage trade = trades[_tokenId];\n        require(\n            msg.sender == trade.seller,\n            \"Trade can be cancelled only by seller.\"\n        );\n        require(trade.status == \"Open\", \"Trade is not Open.\");\n\n        elpisHeroesData.updateStatus(_tokenId, \"Cancelled\");\n        elpisMetaverseHeroes.transferFrom(\n            address(this),\n            trade.seller,\n            trade.tokenId\n        );\n        trades[_tokenId].status = \"Cancelled\";\n        emit TradeStatusChange(_tokenId, \"Cancelled\");\n    }\n\n    /**\n     * @dev Executes a trade. Must have approved this contract to transfer the amount of currency specified to the seller. Transfers ownership of the elpisHero to the filler.\n     */\n    function transferOwnershipOfPhotoNFT(uint256 _tokenId, address _buyer)\n        public\n    {\n        // Trade memory trade = getTrade(_tokenId);\n        Trade storage trade = trades[_tokenId];\n        require(trade.status == \"Open\", \"Trade is not Open.\");\n\n        _updateSeller(_tokenId, _buyer);\n\n        elpisMetaverseHeroes.transferFrom(address(this), _buyer, trade.tokenId);\n        getTrade(_tokenId).status = \"Cancelled\";\n        emit TradeStatusChange(_tokenId, \"Cancelled\");\n    }\n\n    function _updateSeller(uint256 _tokenId, address _newSeller) internal {\n        Trade storage trade = trades[_tokenId];\n        trade.seller = _newSeller;\n    }\n\n    /**\n     * @dev - Returns the details for a trade.\n     */\n    function getTrade(uint256 _tokenId)\n        public\n        view\n        returns (Trade memory trade_)\n    {\n        Trade memory trade = trades[_tokenId];\n        return trade;\n        //return (trade.seller, trade.tokenId, trade.tokenPrice, trade.status);\n    }\n}\n",
  "sourcePath": "E:\\Projects\\Blockchain\\NFT Projects\\nft_marketplace\\contracts\\marketplace\\ElpisHeroTradable.sol",
  "compiler": {
    "name": "solc",
    "version": "0.8.12+commit.f00d7308.Emscripten.clang"
  },
  "schemaVersion": "3.4.5",
  "updatedAt": "2022-02-19T15:16:02.682Z",
  "devdoc": {
    "kind": "dev",
    "methods": {
      "cancelTrade(uint256)": {
        "details": "Cancels a trade by the seller."
      },
      "getTrade(uint256)": {
        "details": "- Returns the details for a trade."
      },
      "openTrade(uint256)": {
        "details": "Opens a trade by the seller."
      },
      "openTradeWhenCreateNewPhotoNFT(uint256,uint256)": {
        "details": "Opens a new trade. Puts _tokenId in escrow.",
        "params": {
          "_tokenId": "The id for the tokenId to trade.",
          "_tokenPrice": "The amount of currency for which to trade the tokenId."
        }
      },
      "transferOwnershipOfPhotoNFT(uint256,address)": {
        "details": "Executes a trade. Must have approved this contract to transfer the amount of currency specified to the seller. Transfers ownership of the elpisHero to the filler."
      }
    },
    "title": "- ElpisHeroTradable contract",
    "version": 1
  },
  "userdoc": {
    "kind": "user",
    "methods": {
      "openTradeWhenCreateNewPhotoNFT(uint256,uint256)": {
        "notice": "- This method is only executed when ElpisHero is created"
      }
    },
    "notice": "- This contract has role that put on sale of elpisHero",
    "version": 1
  }
}