{
  "contractName": "ElpisMetaverseHeroes",
  "abi": [
    {
      "inputs": [
        {
          "internalType": "contract ElpisHeroesData",
          "name": "_elpisHeroesData",
          "type": "address"
        }
      ],
      "stateMutability": "nonpayable",
      "type": "constructor"
    },
    {
      "anonymous": false,
      "inputs": [
        {
          "indexed": true,
          "internalType": "address",
          "name": "owner",
          "type": "address"
        },
        {
          "indexed": true,
          "internalType": "address",
          "name": "approved",
          "type": "address"
        },
        {
          "indexed": true,
          "internalType": "uint256",
          "name": "tokenId",
          "type": "uint256"
        }
      ],
      "name": "Approval",
      "type": "event"
    },
    {
      "anonymous": false,
      "inputs": [
        {
          "indexed": true,
          "internalType": "address",
          "name": "owner",
          "type": "address"
        },
        {
          "indexed": true,
          "internalType": "address",
          "name": "operator",
          "type": "address"
        },
        {
          "indexed": false,
          "internalType": "bool",
          "name": "approved",
          "type": "bool"
        }
      ],
      "name": "ApprovalForAll",
      "type": "event"
    },
    {
      "anonymous": false,
      "inputs": [
        {
          "indexed": false,
          "internalType": "address",
          "name": "account",
          "type": "address"
        }
      ],
      "name": "Paused",
      "type": "event"
    },
    {
      "anonymous": false,
      "inputs": [
        {
          "indexed": true,
          "internalType": "bytes32",
          "name": "role",
          "type": "bytes32"
        },
        {
          "indexed": true,
          "internalType": "bytes32",
          "name": "previousAdminRole",
          "type": "bytes32"
        },
        {
          "indexed": true,
          "internalType": "bytes32",
          "name": "newAdminRole",
          "type": "bytes32"
        }
      ],
      "name": "RoleAdminChanged",
      "type": "event"
    },
    {
      "anonymous": false,
      "inputs": [
        {
          "indexed": true,
          "internalType": "bytes32",
          "name": "role",
          "type": "bytes32"
        },
        {
          "indexed": true,
          "internalType": "address",
          "name": "account",
          "type": "address"
        },
        {
          "indexed": true,
          "internalType": "address",
          "name": "sender",
          "type": "address"
        }
      ],
      "name": "RoleGranted",
      "type": "event"
    },
    {
      "anonymous": false,
      "inputs": [
        {
          "indexed": true,
          "internalType": "bytes32",
          "name": "role",
          "type": "bytes32"
        },
        {
          "indexed": true,
          "internalType": "address",
          "name": "account",
          "type": "address"
        },
        {
          "indexed": true,
          "internalType": "address",
          "name": "sender",
          "type": "address"
        }
      ],
      "name": "RoleRevoked",
      "type": "event"
    },
    {
      "anonymous": false,
      "inputs": [
        {
          "indexed": true,
          "internalType": "address",
          "name": "from",
          "type": "address"
        },
        {
          "indexed": true,
          "internalType": "address",
          "name": "to",
          "type": "address"
        },
        {
          "indexed": true,
          "internalType": "uint256",
          "name": "tokenId",
          "type": "uint256"
        }
      ],
      "name": "Transfer",
      "type": "event"
    },
    {
      "anonymous": false,
      "inputs": [
        {
          "indexed": false,
          "internalType": "address",
          "name": "account",
          "type": "address"
        }
      ],
      "name": "Unpaused",
      "type": "event"
    },
    {
      "inputs": [],
      "name": "DEFAULT_ADMIN_ROLE",
      "outputs": [
        {
          "internalType": "bytes32",
          "name": "",
          "type": "bytes32"
        }
      ],
      "stateMutability": "view",
      "type": "function",
      "constant": true
    },
    {
      "inputs": [],
      "name": "MINTER_ROLE",
      "outputs": [
        {
          "internalType": "bytes32",
          "name": "",
          "type": "bytes32"
        }
      ],
      "stateMutability": "view",
      "type": "function",
      "constant": true
    },
    {
      "inputs": [],
      "name": "PAUSER_ROLE",
      "outputs": [
        {
          "internalType": "bytes32",
          "name": "",
          "type": "bytes32"
        }
      ],
      "stateMutability": "view",
      "type": "function",
      "constant": true
    },
    {
      "inputs": [
        {
          "internalType": "address",
          "name": "to",
          "type": "address"
        },
        {
          "internalType": "uint256",
          "name": "tokenId",
          "type": "uint256"
        }
      ],
      "name": "approve",
      "outputs": [],
      "stateMutability": "nonpayable",
      "type": "function"
    },
    {
      "inputs": [
        {
          "internalType": "address",
          "name": "owner",
          "type": "address"
        }
      ],
      "name": "balanceOf",
      "outputs": [
        {
          "internalType": "uint256",
          "name": "",
          "type": "uint256"
        }
      ],
      "stateMutability": "view",
      "type": "function",
      "constant": true
    },
    {
      "inputs": [
        {
          "internalType": "uint256",
          "name": "tokenId",
          "type": "uint256"
        }
      ],
      "name": "burn",
      "outputs": [],
      "stateMutability": "nonpayable",
      "type": "function"
    },
    {
      "inputs": [
        {
          "internalType": "uint256",
          "name": "",
          "type": "uint256"
        }
      ],
      "name": "elpisHeroIndexes",
      "outputs": [
        {
          "internalType": "uint256",
          "name": "",
          "type": "uint256"
        }
      ],
      "stateMutability": "view",
      "type": "function",
      "constant": true
    },
    {
      "inputs": [
        {
          "internalType": "uint256",
          "name": "tokenId",
          "type": "uint256"
        }
      ],
      "name": "getApproved",
      "outputs": [
        {
          "internalType": "address",
          "name": "",
          "type": "address"
        }
      ],
      "stateMutability": "view",
      "type": "function",
      "constant": true
    },
    {
      "inputs": [
        {
          "internalType": "bytes32",
          "name": "role",
          "type": "bytes32"
        }
      ],
      "name": "getRoleAdmin",
      "outputs": [
        {
          "internalType": "bytes32",
          "name": "",
          "type": "bytes32"
        }
      ],
      "stateMutability": "view",
      "type": "function",
      "constant": true
    },
    {
      "inputs": [
        {
          "internalType": "bytes32",
          "name": "role",
          "type": "bytes32"
        },
        {
          "internalType": "uint256",
          "name": "index",
          "type": "uint256"
        }
      ],
      "name": "getRoleMember",
      "outputs": [
        {
          "internalType": "address",
          "name": "",
          "type": "address"
        }
      ],
      "stateMutability": "view",
      "type": "function",
      "constant": true
    },
    {
      "inputs": [
        {
          "internalType": "bytes32",
          "name": "role",
          "type": "bytes32"
        }
      ],
      "name": "getRoleMemberCount",
      "outputs": [
        {
          "internalType": "uint256",
          "name": "",
          "type": "uint256"
        }
      ],
      "stateMutability": "view",
      "type": "function",
      "constant": true
    },
    {
      "inputs": [
        {
          "internalType": "bytes32",
          "name": "role",
          "type": "bytes32"
        },
        {
          "internalType": "address",
          "name": "account",
          "type": "address"
        }
      ],
      "name": "grantRole",
      "outputs": [],
      "stateMutability": "nonpayable",
      "type": "function"
    },
    {
      "inputs": [
        {
          "internalType": "bytes32",
          "name": "role",
          "type": "bytes32"
        },
        {
          "internalType": "address",
          "name": "account",
          "type": "address"
        }
      ],
      "name": "hasRole",
      "outputs": [
        {
          "internalType": "bool",
          "name": "",
          "type": "bool"
        }
      ],
      "stateMutability": "view",
      "type": "function",
      "constant": true
    },
    {
      "inputs": [
        {
          "internalType": "address",
          "name": "owner",
          "type": "address"
        },
        {
          "internalType": "address",
          "name": "operator",
          "type": "address"
        }
      ],
      "name": "isApprovedForAll",
      "outputs": [
        {
          "internalType": "bool",
          "name": "",
          "type": "bool"
        }
      ],
      "stateMutability": "view",
      "type": "function",
      "constant": true
    },
    {
      "inputs": [],
      "name": "name",
      "outputs": [
        {
          "internalType": "string",
          "name": "",
          "type": "string"
        }
      ],
      "stateMutability": "view",
      "type": "function",
      "constant": true
    },
    {
      "inputs": [
        {
          "internalType": "uint256",
          "name": "tokenId",
          "type": "uint256"
        }
      ],
      "name": "ownerOf",
      "outputs": [
        {
          "internalType": "address",
          "name": "",
          "type": "address"
        }
      ],
      "stateMutability": "view",
      "type": "function",
      "constant": true
    },
    {
      "inputs": [],
      "name": "paused",
      "outputs": [
        {
          "internalType": "bool",
          "name": "",
          "type": "bool"
        }
      ],
      "stateMutability": "view",
      "type": "function",
      "constant": true
    },
    {
      "inputs": [
        {
          "internalType": "bytes32",
          "name": "role",
          "type": "bytes32"
        },
        {
          "internalType": "address",
          "name": "account",
          "type": "address"
        }
      ],
      "name": "renounceRole",
      "outputs": [],
      "stateMutability": "nonpayable",
      "type": "function"
    },
    {
      "inputs": [
        {
          "internalType": "bytes32",
          "name": "role",
          "type": "bytes32"
        },
        {
          "internalType": "address",
          "name": "account",
          "type": "address"
        }
      ],
      "name": "revokeRole",
      "outputs": [],
      "stateMutability": "nonpayable",
      "type": "function"
    },
    {
      "inputs": [
        {
          "internalType": "address",
          "name": "from",
          "type": "address"
        },
        {
          "internalType": "address",
          "name": "to",
          "type": "address"
        },
        {
          "internalType": "uint256",
          "name": "tokenId",
          "type": "uint256"
        }
      ],
      "name": "safeTransferFrom",
      "outputs": [],
      "stateMutability": "nonpayable",
      "type": "function"
    },
    {
      "inputs": [
        {
          "internalType": "address",
          "name": "from",
          "type": "address"
        },
        {
          "internalType": "address",
          "name": "to",
          "type": "address"
        },
        {
          "internalType": "uint256",
          "name": "tokenId",
          "type": "uint256"
        },
        {
          "internalType": "bytes",
          "name": "_data",
          "type": "bytes"
        }
      ],
      "name": "safeTransferFrom",
      "outputs": [],
      "stateMutability": "nonpayable",
      "type": "function"
    },
    {
      "inputs": [
        {
          "internalType": "address",
          "name": "operator",
          "type": "address"
        },
        {
          "internalType": "bool",
          "name": "approved",
          "type": "bool"
        }
      ],
      "name": "setApprovalForAll",
      "outputs": [],
      "stateMutability": "nonpayable",
      "type": "function"
    },
    {
      "inputs": [],
      "name": "symbol",
      "outputs": [
        {
          "internalType": "string",
          "name": "",
          "type": "string"
        }
      ],
      "stateMutability": "view",
      "type": "function",
      "constant": true
    },
    {
      "inputs": [
        {
          "internalType": "uint256",
          "name": "index",
          "type": "uint256"
        }
      ],
      "name": "tokenByIndex",
      "outputs": [
        {
          "internalType": "uint256",
          "name": "",
          "type": "uint256"
        }
      ],
      "stateMutability": "view",
      "type": "function",
      "constant": true
    },
    {
      "inputs": [
        {
          "internalType": "address",
          "name": "owner",
          "type": "address"
        },
        {
          "internalType": "uint256",
          "name": "index",
          "type": "uint256"
        }
      ],
      "name": "tokenOfOwnerByIndex",
      "outputs": [
        {
          "internalType": "uint256",
          "name": "",
          "type": "uint256"
        }
      ],
      "stateMutability": "view",
      "type": "function",
      "constant": true
    },
    {
      "inputs": [
        {
          "internalType": "uint256",
          "name": "tokenId",
          "type": "uint256"
        }
      ],
      "name": "tokenURI",
      "outputs": [
        {
          "internalType": "string",
          "name": "",
          "type": "string"
        }
      ],
      "stateMutability": "view",
      "type": "function",
      "constant": true
    },
    {
      "inputs": [],
      "name": "totalSupply",
      "outputs": [
        {
          "internalType": "uint256",
          "name": "",
          "type": "uint256"
        }
      ],
      "stateMutability": "view",
      "type": "function",
      "constant": true
    },
    {
      "inputs": [
        {
          "internalType": "address",
          "name": "from",
          "type": "address"
        },
        {
          "internalType": "address",
          "name": "to",
          "type": "address"
        },
        {
          "internalType": "uint256",
          "name": "tokenId",
          "type": "uint256"
        }
      ],
      "name": "transferFrom",
      "outputs": [],
      "stateMutability": "nonpayable",
      "type": "function"
    },
    {
      "inputs": [
        {
          "internalType": "string",
          "name": "_uri",
          "type": "string"
        }
      ],
      "name": "setBaseURI",
      "outputs": [],
      "stateMutability": "nonpayable",
      "type": "function"
    },
    {
      "inputs": [
        {
          "internalType": "address",
          "name": "to",
          "type": "address"
        },
        {
          "internalType": "string",
          "name": "_elpisHeroName",
          "type": "string"
        }
      ],
      "name": "mint",
      "outputs": [],
      "stateMutability": "nonpayable",
      "type": "function"
    },
    {
      "inputs": [],
      "name": "pause",
      "outputs": [],
      "stateMutability": "nonpayable",
      "type": "function"
    },
    {
      "inputs": [],
      "name": "unpause",
      "outputs": [],
      "stateMutability": "nonpayable",
      "type": "function"
    },
    {
      "inputs": [
        {
          "internalType": "bytes4",
          "name": "interfaceId",
          "type": "bytes4"
        }
      ],
      "name": "supportsInterface",
      "outputs": [
        {
          "internalType": "bool",
          "name": "",
          "type": "bool"
        }
      ],
      "stateMutability": "view",
      "type": "function",
      "constant": true
    }
  ],
  "bytecode": "0x60806040523480156200001157600080fd5b506040516200352738038062003527833981016040819052620000349162000b41565b604080518082018252601681527f456c706973204d6574617665727365204865726f65730000000000000000000060208083019182528351808501909452600384526208a9a960eb1b908401528151919291620000949160029162000a9b565b508051620000aa90600390602084019062000a9b565b5050600c805460ff191690555033620000c56000826200022e565b620000f17f9f2df0fed2c77648de5860a4cc508cd0818c85b8b8a1ab4ceeef8d981c8956a6826200022e565b6200011d7f65d7a28e3265b37a6474929f336521b332c1681b933f6cb9f3376673440d862a826200022e565b600c8054610100600160a81b0319166101006001600160a01b038516021790556040805180820190915260078152665469677265737360c81b60208201526200016890829062000271565b6200019881604051806040016040528060068152602001654d616e74697360d01b8152506200027160201b60201c565b620001c781604051806040016040528060058152602001642b34b132b960d91b8152506200027160201b60201c565b620001f681604051806040016040528060058152602001644372616e6560d81b8152506200027160201b60201c565b6200022681604051806040016040528060068152602001654d6f6e6b657960d01b8152506200027160201b60201c565b505062000ca6565b6200024582826200046460201b62000f971760201c565b60008281526001602090815260409091206200026c91839062000fa162000470821b17901c565b505050565b3360009081527f0781d7cac9c378efa22a7481e4d4d29704a680ddf504b3bc50b517700ee11e6c602052604090205460ff16620002e95760405162461bcd60e51b8152602060048201526011602482015270454d483a206f6e6c79206d696e7465727360781b60448201526064015b60405180910390fd5b6200030b8262000305600d6200049060201b62000fb61760201c565b62000494565b600c60019054906101000a90046001600160a01b03166001600160a01b031663aef843d762000346600d6200049060201b62000fb61760201c565b838560006040518563ffffffff1660e01b81526004016200036b949392919062000b73565b600060405180830381600087803b1580156200038657600080fd5b505af11580156200039b573d6000803e3d6000fd5b50505050600c60019054906101000a90046001600160a01b03166001600160a01b031663d1b34dd8620003da600d6200049060201b62000fb61760201c565b6040518263ffffffff1660e01b8152600401620004159181526040602082018190526004908201526327b832b760e11b606082015260800190565b600060405180830381600087803b1580156200043057600080fd5b505af115801562000445573d6000803e3d6000fd5b5050505062000460600d620005ea60201b62000fba1760201c565b5050565b620004608282620005f3565b600062000487836001600160a01b03841662000693565b90505b92915050565b5490565b6001600160a01b038216620004ec5760405162461bcd60e51b815260206004820181905260248201527f4552433732313a206d696e7420746f20746865207a65726f20616464726573736044820152606401620002e0565b6000818152600460205260409020546001600160a01b031615620005535760405162461bcd60e51b815260206004820152601c60248201527f4552433732313a20746f6b656e20616c7265616479206d696e746564000000006044820152606401620002e0565b6200056160008383620006e5565b6001600160a01b03821660009081526005602052604081208054600192906200058c90849062000c08565b909155505060008181526004602052604080822080546001600160a01b0319166001600160a01b03861690811790915590518392907fddf252ad1be2c89b69c2b068fc378daa952ba7f163c4a11628f55a4df523b3ef908290a45050565b80546001019055565b6000828152602081815260408083206001600160a01b038516845290915290205460ff1662000460576000828152602081815260408083206001600160a01b03851684529091529020805460ff191660011790556200064f3390565b6001600160a01b0316816001600160a01b0316837f2f8788117e7eff1d82e926ec794901d17c78024a50270940304540a733656f0d60405160405180910390a45050565b6000818152600183016020526040812054620006dc575081546001818101845560008481526020808220909301849055845484825282860190935260409020919091556200048a565b5060006200048a565b6200026c838383620006fd60201b62000fc31760201c565b620007158383836200077e60201b620010351760201c565b600c5460ff16156200026c5760405162461bcd60e51b815260206004820152602b60248201527f4552433732315061757361626c653a20746f6b656e207472616e73666572207760448201526a1a1a5b19481c185d5cd95960aa1b6064820152608401620002e0565b620007968383836200026c60201b6200072b1760201c565b6001600160a01b038316620007f457620007ee81600a80546000838152600b60205260408120829055600182018355919091527fc65a7bb8d6351c1cf70c95a316cc6a92839c986682d98bc35f958f4883f9d2a80155565b6200081a565b816001600160a01b0316836001600160a01b0316146200081a576200081a83826200085a565b6001600160a01b03821662000834576200026c8162000907565b826001600160a01b0316826001600160a01b0316146200026c576200026c8282620009c1565b60006001620008748462000a1260201b62000ac91760201c565b62000880919062000c23565b600083815260096020526040902054909150808214620008d4576001600160a01b03841660009081526008602090815260408083208584528252808320548484528184208190558352600990915290208190555b5060009182526009602090815260408084208490556001600160a01b039094168352600881528383209183525290812055565b600a546000906200091b9060019062000c23565b6000838152600b6020526040812054600a805493945090928490811062000946576200094662000c3d565b9060005260206000200154905080600a83815481106200096a576200096a62000c3d565b6000918252602080832090910192909255828152600b9091526040808220849055858252812055600a805480620009a557620009a562000c53565b6001900381819060005260206000200160009055905550505050565b6000620009d98362000a1260201b62000ac91760201c565b6001600160a01b039093166000908152600860209081526040808320868452825280832085905593825260099052919091209190915550565b60006001600160a01b03821662000a7f5760405162461bcd60e51b815260206004820152602a60248201527f4552433732313a2062616c616e636520717565727920666f7220746865207a65604482015269726f206164647265737360b01b6064820152608401620002e0565b506001600160a01b031660009081526005602052604090205490565b82805462000aa99062000c69565b90600052602060002090601f01602090048101928262000acd576000855562000b18565b82601f1062000ae857805160ff191683800117855562000b18565b8280016001018555821562000b18579182015b8281111562000b1857825182559160200191906001019062000afb565b5062000b2692915062000b2a565b5090565b5b8082111562000b26576000815560010162000b2b565b60006020828403121562000b5457600080fd5b81516001600160a01b038116811462000b6c57600080fd5b9392505050565b84815260006020608081840152855180608085015260005b8181101562000ba95787810183015185820160a00152820162000b8b565b8181111562000bbc57600060a083870101525b50601f01601f1916830160a001915062000be3905060408301856001600160a01b03169052565b82606083015295945050505050565b634e487b7160e01b600052601160045260246000fd5b6000821982111562000c1e5762000c1e62000bf2565b500190565b60008282101562000c385762000c3862000bf2565b500390565b634e487b7160e01b600052603260045260246000fd5b634e487b7160e01b600052603160045260246000fd5b600181811c9082168062000c7e57607f821691505b6020821081141562000ca057634e487b7160e01b600052602260045260246000fd5b50919050565b6128718062000cb66000396000f3fe608060405234801561001057600080fd5b50600436106101fb5760003560e01c80635c975abb1161011a578063a22cb465116100ad578063d0def5211161007c578063d0def5211461042d578063d539139314610440578063d547741f14610467578063e63ab1e91461047a578063e985e9c5146104a157600080fd5b8063a22cb465146103e1578063b88d4fde146103f4578063c87b56dd14610407578063ca15c8731461041a57600080fd5b80639010d07c116100e95780639010d07c146103ab57806391d14854146103be57806395d89b41146103d1578063a217fddf146103d957600080fd5b80635c975abb146103725780636352211e1461037d57806370a08231146103905780638456cb59146103a357600080fd5b80632f745c591161019257806342842e0e1161016157806342842e0e1461032657806342966c68146103395780634f6ccce71461034c57806355f804b31461035f57600080fd5b80632f745c59146102d857806336568abe146102eb57806338399d79146102fe5780633f4ba83a1461031e57600080fd5b806318160ddd116101ce57806318160ddd1461027d57806323b872dd1461028f578063248a9ca3146102a25780632f2ff15d146102c557600080fd5b806301ffc9a71461020057806306fdde0314610228578063081812fc1461023d578063095ea7b314610268575b600080fd5b61021361020e36600461218d565b6104dd565b60405190151581526020015b60405180910390f35b6102306104ee565b60405161021f9190612202565b61025061024b366004612215565b610580565b6040516001600160a01b03909116815260200161021f565b61027b61027636600461224a565b61061a565b005b600a545b60405190815260200161021f565b61027b61029d366004612274565b610730565b6102816102b0366004612215565b60009081526020819052604090206001015490565b61027b6102d33660046122b0565b610762565b6102816102e636600461224a565b610784565b61027b6102f93660046122b0565b61081a565b61028161030c366004612215565b600f6020526000908152604090205481565b61027b61083c565b61027b610334366004612274565b6108ca565b61027b610347366004612215565b6108e5565b61028161035a366004612215565b61095f565b61027b61036d366004612388565b6109f2565b600c5460ff16610213565b61025061038b366004612215565b610a52565b61028161039e3660046123bd565b610ac9565b61027b610b50565b6102506103b93660046123d8565b610bc1565b6102136103cc3660046122b0565b610be0565b610230610c09565b610281600081565b61027b6103ef3660046123fa565b610c18565b61027b610402366004612436565b610cdd565b610230610415366004612215565b610d15565b610281610428366004612215565b610def565b61027b61043b3660046124b2565b610e06565b6102817f9f2df0fed2c77648de5860a4cc508cd0818c85b8b8a1ab4ceeef8d981c8956a681565b61027b6104753660046122b0565b610f8d565b6102817f65d7a28e3265b37a6474929f336521b332c1681b933f6cb9f3376673440d862a81565b6102136104af366004612500565b6001600160a01b03918216600090815260076020908152604080832093909416825291909152205460ff1690565b60006104e8826110ed565b92915050565b6060600280546104fd9061252a565b80601f01602080910402602001604051908101604052809291908181526020018280546105299061252a565b80156105765780601f1061054b57610100808354040283529160200191610576565b820191906000526020600020905b81548152906001019060200180831161055957829003601f168201915b5050505050905090565b6000818152600460205260408120546001600160a01b03166105fe5760405162461bcd60e51b815260206004820152602c60248201527f4552433732313a20617070726f76656420717565727920666f72206e6f6e657860448201526b34b9ba32b73a103a37b5b2b760a11b60648201526084015b60405180910390fd5b506000908152600660205260409020546001600160a01b031690565b600061062582610a52565b9050806001600160a01b0316836001600160a01b031614156106935760405162461bcd60e51b815260206004820152602160248201527f4552433732313a20617070726f76616c20746f2063757272656e74206f776e656044820152603960f91b60648201526084016105f5565b336001600160a01b03821614806106af57506106af81336104af565b6107215760405162461bcd60e51b815260206004820152603860248201527f4552433732313a20617070726f76652063616c6c6572206973206e6f74206f7760448201527f6e6572206e6f7220617070726f76656420666f7220616c6c000000000000000060648201526084016105f5565b61072b8383611112565b505050565b61073b335b82611180565b6107575760405162461bcd60e51b81526004016105f590612565565b61072b838383611277565b61076c8282611422565b600082815260016020526040902061072b9082610fa1565b600061078f83610ac9565b82106107f15760405162461bcd60e51b815260206004820152602b60248201527f455243373231456e756d657261626c653a206f776e657220696e646578206f7560448201526a74206f6620626f756e647360a81b60648201526084016105f5565b506001600160a01b03919091166000908152600860209081526040808320938352929052205490565b6108248282611448565b600082815260016020526040902061072b90826114c2565b6108667f65d7a28e3265b37a6474929f336521b332c1681b933f6cb9f3376673440d862a33610be0565b6108c05760405162461bcd60e51b815260206004820152602560248201527f454d483a206d75737420686176652070617573657220726f6c6520746f20756e604482015264706175736560d81b60648201526084016105f5565b6108c86114d7565b565b61072b83838360405180602001604052806000815250610cdd565b6108ee33610735565b6109535760405162461bcd60e51b815260206004820152603060248201527f4552433732314275726e61626c653a2063616c6c6572206973206e6f74206f7760448201526f1b995c881b9bdc88185c1c1c9bdd995960821b60648201526084016105f5565b61095c8161156a565b50565b600061096a600a5490565b82106109cd5760405162461bcd60e51b815260206004820152602c60248201527f455243373231456e756d657261626c653a20676c6f62616c20696e646578206f60448201526b7574206f6620626f756e647360a01b60648201526084016105f5565b600a82815481106109e0576109e06125b6565b90600052602060002001549050919050565b6109fd600033610be0565b610a3b5760405162461bcd60e51b815260206004820152600f60248201526e22a6a41d1037b7363c9030b236b4b760891b60448201526064016105f5565b8051610a4e90600e9060208401906120de565b5050565b6000818152600460205260408120546001600160a01b0316806104e85760405162461bcd60e51b815260206004820152602960248201527f4552433732313a206f776e657220717565727920666f72206e6f6e657869737460448201526832b73a103a37b5b2b760b91b60648201526084016105f5565b60006001600160a01b038216610b345760405162461bcd60e51b815260206004820152602a60248201527f4552433732313a2062616c616e636520717565727920666f7220746865207a65604482015269726f206164647265737360b01b60648201526084016105f5565b506001600160a01b031660009081526005602052604090205490565b610b7a7f65d7a28e3265b37a6474929f336521b332c1681b933f6cb9f3376673440d862a33610be0565b610bb95760405162461bcd60e51b815260206004820152601060248201526f22a6a41d1037b7363c903830bab9b2b960811b60448201526064016105f5565b6108c8611611565b6000828152600160205260408120610bd9908361168c565b9392505050565b6000918252602082815260408084206001600160a01b0393909316845291905290205460ff1690565b6060600380546104fd9061252a565b6001600160a01b038216331415610c715760405162461bcd60e51b815260206004820152601960248201527f4552433732313a20617070726f766520746f2063616c6c65720000000000000060448201526064016105f5565b3360008181526007602090815260408083206001600160a01b03871680855290835292819020805460ff191686151590811790915590519081529192917f17307eab39ab6107e8899845ad3d59bd9653f200f220920489ca2b5937696c31910160405180910390a35050565b610ce73383611180565b610d035760405162461bcd60e51b81526004016105f590612565565b610d0f84848484611698565b50505050565b6000818152600460205260409020546060906001600160a01b0316610d945760405162461bcd60e51b815260206004820152602f60248201527f4552433732314d657461646174613a2055524920717565727920666f72206e6f60448201526e3732bc34b9ba32b73a103a37b5b2b760891b60648201526084016105f5565b6000610d9e6116cb565b90506000815111610dbe5760405180602001604052806000815250610bd9565b80610dc8846116da565b604051602001610dd99291906125cc565b6040516020818303038152906040529392505050565b60008181526001602052604081206104e8906117d8565b610e307f9f2df0fed2c77648de5860a4cc508cd0818c85b8b8a1ab4ceeef8d981c8956a633610be0565b610e705760405162461bcd60e51b8152602060048201526011602482015270454d483a206f6e6c79206d696e7465727360781b60448201526064016105f5565b610e8282610e7d600d5490565b6117e2565b600c546001600160a01b036101009091041663aef843d7610ea2600d5490565b838560006040518563ffffffff1660e01b8152600401610ec594939291906125fb565b600060405180830381600087803b158015610edf57600080fd5b505af1158015610ef3573d6000803e3d6000fd5b5050600c54600d546101009091046001600160a01b0316925063d1b34dd891506040518263ffffffff1660e01b8152600401610f4d9181526040602082018190526004908201526327b832b760e11b606082015260800190565b600060405180830381600087803b158015610f6757600080fd5b505af1158015610f7b573d6000803e3d6000fd5b50505050610a4e600d80546001019055565b6108248282611930565b610a4e8282611956565b6000610bd9836001600160a01b0384166119da565b5490565b80546001019055565b610fce838383611035565b600c5460ff161561072b5760405162461bcd60e51b815260206004820152602b60248201527f4552433732315061757361626c653a20746f6b656e207472616e73666572207760448201526a1a1a5b19481c185d5cd95960aa1b60648201526084016105f5565b6001600160a01b0383166110905761108b81600a80546000838152600b60205260408120829055600182018355919091527fc65a7bb8d6351c1cf70c95a316cc6a92839c986682d98bc35f958f4883f9d2a80155565b6110b3565b816001600160a01b0316836001600160a01b0316146110b3576110b38382611a29565b6001600160a01b0382166110ca5761072b81611ac6565b826001600160a01b0316826001600160a01b03161461072b5761072b8282611b75565b60006001600160e01b0319821663780e9d6360e01b14806104e857506104e882611bb9565b600081815260066020526040902080546001600160a01b0319166001600160a01b038416908117909155819061114782610a52565b6001600160a01b03167f8c5be1e5ebec7d5bd14f71427d1e84f3dd0314c0f7b2291e5b200ac8c7c3b92560405160405180910390a45050565b6000818152600460205260408120546001600160a01b03166111f95760405162461bcd60e51b815260206004820152602c60248201527f4552433732313a206f70657261746f7220717565727920666f72206e6f6e657860448201526b34b9ba32b73a103a37b5b2b760a11b60648201526084016105f5565b600061120483610a52565b9050806001600160a01b0316846001600160a01b0316148061123f5750836001600160a01b031661123484610580565b6001600160a01b0316145b8061126f57506001600160a01b0380821660009081526007602090815260408083209388168352929052205460ff165b949350505050565b826001600160a01b031661128a82610a52565b6001600160a01b0316146112f25760405162461bcd60e51b815260206004820152602960248201527f4552433732313a207472616e73666572206f6620746f6b656e2074686174206960448201526839903737ba1037bbb760b91b60648201526084016105f5565b6001600160a01b0382166113545760405162461bcd60e51b8152602060048201526024808201527f4552433732313a207472616e7366657220746f20746865207a65726f206164646044820152637265737360e01b60648201526084016105f5565b61135f838383611bf9565b61136a600082611112565b6001600160a01b0383166000908152600560205260408120805460019290611393908490612646565b90915550506001600160a01b03821660009081526005602052604081208054600192906113c190849061265d565b909155505060008181526004602052604080822080546001600160a01b0319166001600160a01b0386811691821790925591518493918716917fddf252ad1be2c89b69c2b068fc378daa952ba7f163c4a11628f55a4df523b3ef91a4505050565b60008281526020819052604090206001015461143e8133611c04565b61072b8383611956565b6001600160a01b03811633146114b85760405162461bcd60e51b815260206004820152602f60248201527f416363657373436f6e74726f6c3a2063616e206f6e6c792072656e6f756e636560448201526e103937b632b9903337b91039b2b63360891b60648201526084016105f5565b610a4e8282611c68565b6000610bd9836001600160a01b038416611ccd565b600c5460ff166115205760405162461bcd60e51b815260206004820152601460248201527314185d5cd8589b194e881b9bdd081c185d5cd95960621b60448201526064016105f5565b600c805460ff191690557f5db9ee0a495bf2e6ff9c91a7834c1ba4fdd244a5e8aa4e537bd38aeae4b073aa335b6040516001600160a01b03909116815260200160405180910390a1565b600061157582610a52565b905061158381600084611bf9565b61158e600083611112565b6001600160a01b03811660009081526005602052604081208054600192906115b7908490612646565b909155505060008281526004602052604080822080546001600160a01b0319169055518391906001600160a01b038416907fddf252ad1be2c89b69c2b068fc378daa952ba7f163c4a11628f55a4df523b3ef908390a45050565b600c5460ff16156116575760405162461bcd60e51b815260206004820152601060248201526f14185d5cd8589b194e881c185d5cd95960821b60448201526064016105f5565b600c805460ff191660011790557f62e78cea01bee320cd4e420270b5ea74000d11b0c9f74754ebdbfc544b05a25861154d3390565b6000610bd98383611dc0565b6116a3848484611277565b6116af84848484611dea565b610d0f5760405162461bcd60e51b81526004016105f590612675565b6060600e80546104fd9061252a565b6060816116fe5750506040805180820190915260018152600360fc1b602082015290565b8160005b81156117285780611712816126c7565b91506117219050600a836126f8565b9150611702565b60008167ffffffffffffffff811115611743576117436122dc565b6040519080825280601f01601f19166020018201604052801561176d576020820181803683370190505b5090505b841561126f57611782600183612646565b915061178f600a8661270c565b61179a90603061265d565b60f81b8183815181106117af576117af6125b6565b60200101906001600160f81b031916908160001a9053506117d1600a866126f8565b9450611771565b60006104e8825490565b6001600160a01b0382166118385760405162461bcd60e51b815260206004820181905260248201527f4552433732313a206d696e7420746f20746865207a65726f206164647265737360448201526064016105f5565b6000818152600460205260409020546001600160a01b03161561189d5760405162461bcd60e51b815260206004820152601c60248201527f4552433732313a20746f6b656e20616c7265616479206d696e7465640000000060448201526064016105f5565b6118a960008383611bf9565b6001600160a01b03821660009081526005602052604081208054600192906118d290849061265d565b909155505060008181526004602052604080822080546001600160a01b0319166001600160a01b03861690811790915590518392907fddf252ad1be2c89b69c2b068fc378daa952ba7f163c4a11628f55a4df523b3ef908290a45050565b60008281526020819052604090206001015461194c8133611c04565b61072b8383611c68565b6119608282610be0565b610a4e576000828152602081815260408083206001600160a01b03851684529091529020805460ff191660011790556119963390565b6001600160a01b0316816001600160a01b0316837f2f8788117e7eff1d82e926ec794901d17c78024a50270940304540a733656f0d60405160405180910390a45050565b6000818152600183016020526040812054611a21575081546001818101845560008481526020808220909301849055845484825282860190935260409020919091556104e8565b5060006104e8565b60006001611a3684610ac9565b611a409190612646565b600083815260096020526040902054909150808214611a93576001600160a01b03841660009081526008602090815260408083208584528252808320548484528184208190558352600990915290208190555b5060009182526009602090815260408084208490556001600160a01b039094168352600881528383209183525290812055565b600a54600090611ad890600190612646565b6000838152600b6020526040812054600a8054939450909284908110611b0057611b006125b6565b9060005260206000200154905080600a8381548110611b2157611b216125b6565b6000918252602080832090910192909255828152600b9091526040808220849055858252812055600a805480611b5957611b59612720565b6001900381819060005260206000200160009055905550505050565b6000611b8083610ac9565b6001600160a01b039093166000908152600860209081526040808320868452825280832085905593825260099052919091209190915550565b60006001600160e01b031982166380ac58cd60e01b1480611bea57506001600160e01b03198216635b5e139f60e01b145b806104e857506104e882611ee8565b61072b838383610fc3565b611c0e8282610be0565b610a4e57611c26816001600160a01b03166014611f0d565b611c31836020611f0d565b604051602001611c42929190612736565b60408051601f198184030181529082905262461bcd60e51b82526105f591600401612202565b611c728282610be0565b15610a4e576000828152602081815260408083206001600160a01b0385168085529252808320805460ff1916905551339285917ff6391f5c32d9c69d2a47ea670b442974b53935d1edc7fd64eb21e047a839171b9190a45050565b60008181526001830160205260408120548015611db6576000611cf1600183612646565b8554909150600090611d0590600190612646565b9050818114611d6a576000866000018281548110611d2557611d256125b6565b9060005260206000200154905080876000018481548110611d4857611d486125b6565b6000918252602080832090910192909255918252600188019052604090208390555b8554869080611d7b57611d7b612720565b6001900381819060005260206000200160009055905585600101600086815260200190815260200160002060009055600193505050506104e8565b60009150506104e8565b6000826000018281548110611dd757611dd76125b6565b9060005260206000200154905092915050565b60006001600160a01b0384163b15611edd57604051630a85bd0160e11b81526001600160a01b0385169063150b7a0290611e2e9033908990889088906004016127ab565b6020604051808303816000875af1925050508015611e69575060408051601f3d908101601f19168201909252611e66918101906127e8565b60015b611ec3573d808015611e97576040519150601f19603f3d011682016040523d82523d6000602084013e611e9c565b606091505b508051611ebb5760405162461bcd60e51b81526004016105f590612675565b805181602001fd5b6001600160e01b031916630a85bd0160e11b14905061126f565b506001949350505050565b60006001600160e01b03198216635a05180f60e01b14806104e857506104e8826120a9565b60606000611f1c836002612805565b611f2790600261265d565b67ffffffffffffffff811115611f3f57611f3f6122dc565b6040519080825280601f01601f191660200182016040528015611f69576020820181803683370190505b509050600360fc1b81600081518110611f8457611f846125b6565b60200101906001600160f81b031916908160001a905350600f60fb1b81600181518110611fb357611fb36125b6565b60200101906001600160f81b031916908160001a9053506000611fd7846002612805565b611fe290600161265d565b90505b600181111561205a576f181899199a1a9b1b9c1cb0b131b232b360811b85600f1660108110612016576120166125b6565b1a60f81b82828151811061202c5761202c6125b6565b60200101906001600160f81b031916908160001a90535060049490941c9361205381612824565b9050611fe5565b508315610bd95760405162461bcd60e51b815260206004820181905260248201527f537472696e67733a20686578206c656e67746820696e73756666696369656e7460448201526064016105f5565b60006001600160e01b03198216637965db0b60e01b14806104e857506301ffc9a760e01b6001600160e01b03198316146104e8565b8280546120ea9061252a565b90600052602060002090601f01602090048101928261210c5760008555612152565b82601f1061212557805160ff1916838001178555612152565b82800160010185558215612152579182015b82811115612152578251825591602001919060010190612137565b5061215e929150612162565b5090565b5b8082111561215e5760008155600101612163565b6001600160e01b03198116811461095c57600080fd5b60006020828403121561219f57600080fd5b8135610bd981612177565b60005b838110156121c55781810151838201526020016121ad565b83811115610d0f5750506000910152565b600081518084526121ee8160208601602086016121aa565b601f01601f19169290920160200192915050565b602081526000610bd960208301846121d6565b60006020828403121561222757600080fd5b5035919050565b80356001600160a01b038116811461224557600080fd5b919050565b6000806040838503121561225d57600080fd5b6122668361222e565b946020939093013593505050565b60008060006060848603121561228957600080fd5b6122928461222e565b92506122a06020850161222e565b9150604084013590509250925092565b600080604083850312156122c357600080fd5b823591506122d36020840161222e565b90509250929050565b634e487b7160e01b600052604160045260246000fd5b600067ffffffffffffffff8084111561230d5761230d6122dc565b604051601f8501601f19908116603f01168101908282118183101715612335576123356122dc565b8160405280935085815286868601111561234e57600080fd5b858560208301376000602087830101525050509392505050565b600082601f83011261237957600080fd5b610bd9838335602085016122f2565b60006020828403121561239a57600080fd5b813567ffffffffffffffff8111156123b157600080fd5b61126f84828501612368565b6000602082840312156123cf57600080fd5b610bd98261222e565b600080604083850312156123eb57600080fd5b50508035926020909101359150565b6000806040838503121561240d57600080fd5b6124168361222e565b91506020830135801515811461242b57600080fd5b809150509250929050565b6000806000806080858703121561244c57600080fd5b6124558561222e565b93506124636020860161222e565b925060408501359150606085013567ffffffffffffffff81111561248657600080fd5b8501601f8101871361249757600080fd5b6124a6878235602084016122f2565b91505092959194509250565b600080604083850312156124c557600080fd5b6124ce8361222e565b9150602083013567ffffffffffffffff8111156124ea57600080fd5b6124f685828601612368565b9150509250929050565b6000806040838503121561251357600080fd5b61251c8361222e565b91506122d36020840161222e565b600181811c9082168061253e57607f821691505b6020821081141561255f57634e487b7160e01b600052602260045260246000fd5b50919050565b60208082526031908201527f4552433732313a207472616e736665722063616c6c6572206973206e6f74206f6040820152701ddb995c881b9bdc88185c1c1c9bdd9959607a1b606082015260800190565b634e487b7160e01b600052603260045260246000fd5b600083516125de8184602088016121aa565b8351908301906125f28183602088016121aa565b01949350505050565b84815260806020820152600061261460808301866121d6565b6001600160a01b03949094166040830152506060015292915050565b634e487b7160e01b600052601160045260246000fd5b60008282101561265857612658612630565b500390565b6000821982111561267057612670612630565b500190565b60208082526032908201527f4552433732313a207472616e7366657220746f206e6f6e20455243373231526560408201527131b2b4bb32b91034b6b83632b6b2b73a32b960711b606082015260800190565b60006000198214156126db576126db612630565b5060010190565b634e487b7160e01b600052601260045260246000fd5b600082612707576127076126e2565b500490565b60008261271b5761271b6126e2565b500690565b634e487b7160e01b600052603160045260246000fd5b7f416363657373436f6e74726f6c3a206163636f756e742000000000000000000081526000835161276e8160178501602088016121aa565b7001034b99036b4b9b9b4b733903937b6329607d1b601791840191820152835161279f8160288401602088016121aa565b01602801949350505050565b6001600160a01b03858116825284166020820152604081018390526080606082018190526000906127de908301846121d6565b9695505050505050565b6000602082840312156127fa57600080fd5b8151610bd981612177565b600081600019048311821515161561281f5761281f612630565b500290565b60008161283357612833612630565b50600019019056fea2646970667358221220e66ce411a79d0425c2faf0fc76d0af6f28acd9522b499adca21fee30df23f88e64736f6c634300080c0033",
  "immutableReferences": {},
  "source": "// SPDX-License-Identifier: MIT\n\npragma solidity ^0.8.0;\n\nimport \"./library/ERC721.sol\";\nimport \"./library/ERC721Enumerable.sol\";\nimport \"./library/ERC721Burnable.sol\";\nimport \"./library/ERC721Pausable.sol\";\nimport \"./access/AccessControlEnumerable.sol\";\nimport \"./utils/Context.sol\";\nimport \"./utils/Counters.sol\";\nimport \"./ElpisHeroesData.sol\";\n\n/**\n * @dev {ERC721} token, including:\n *\n *  - ability for holders to burn (destroy) their tokens\n *  - a minter role that allows for token minting (creation)\n *  - a pauser role that allows to stop all token transfers\n *  - token ID and URI autogeneration\n *\n * This contract uses {AccessControl} to lock permissioned functions using the\n * different roles - head to its documentation for details.\n *\n * The account that deploys the contract will be granted the minter and pauser\n * roles, as well as the default admin role, which will let it grant both minter\n * and pauser roles to other accounts.\n */\ncontract ElpisMetaverseHeroes is\n    Context,\n    AccessControlEnumerable,\n    ERC721Enumerable,\n    ERC721Burnable,\n    ERC721Pausable\n{\n    using Counters for Counters.Counter;\n\n    ElpisHeroesData private elpisHeroesData;\n\n    bytes32 public constant MINTER_ROLE = keccak256(\"MINTER_ROLE\");\n    bytes32 public constant PAUSER_ROLE = keccak256(\"PAUSER_ROLE\");\n\n    Counters.Counter private _tokenIdTracker;\n\n    string private _baseTokenURI;\n\n    // map ElpisHero's token id to its index\n    mapping(uint256 => uint256) public elpisHeroIndexes;\n\n    /**\n     * @dev Grants `DEFAULT_ADMIN_ROLE`, `MINTER_ROLE` and `PAUSER_ROLE` to the\n     * account that deploys the contract.\n     *\n     * Token URIs will be autogenerated based on `baseURI` and their token IDs.\n     * See {ERC721-tokenURI}.\n     */\n    constructor(\n        ElpisHeroesData _elpisHeroesData // address admin // string memory baseTokenURI\n    ) ERC721(\"Elpis Metaverse Heroes\", \"EMH\") {\n        // _baseTokenURI = baseTokenURI;\n        address caller = msg.sender;\n\n        _setupRole(DEFAULT_ADMIN_ROLE, caller);\n\n        _setupRole(MINTER_ROLE, caller);\n        _setupRole(PAUSER_ROLE, caller);\n\n        elpisHeroesData = _elpisHeroesData;\n\n        // initially mint 5 heroes to deployedContract\n        mint(caller, \"Tigress\");\n        mint(caller, \"Mantis\");\n        mint(caller, \"Viber\");\n        mint(caller, \"Crane\");\n        mint(caller, \"Monkey\");\n    }\n\n    function _baseURI() internal view virtual override returns (string memory) {\n        return _baseTokenURI;\n    }\n\n    /**\n     * @notice Allows the owner to set the base URI to be used for all token IDs\n     * @param _uri: base URI\n     * @dev Callable by owner\n     */\n    function setBaseURI(string memory _uri) external {\n        require(hasRole(DEFAULT_ADMIN_ROLE, _msgSender()), \"EMH: only admin\");\n        _baseTokenURI = _uri;\n    }\n\n    /**\n     * @dev Creates a new token for `to`. Its token ID will be automatically\n     * assigned (and available on the emitted {IERC721-Transfer} event), and the token\n     * URI autogenerated based on the base URI passed at construction.\n     *\n     * See {ERC721-_mint}.\n     *\n     * Requirements:\n     *\n     * - the caller must have the `MINTER_ROLE`.\n     */\n    function mint(address to, string memory _elpisHeroName) public virtual {\n        require(hasRole(MINTER_ROLE, _msgSender()), \"EMH: only minters\");\n\n        // We cannot just use balanceOf to create the new tokenId because tokens\n        // can be burned (destroyed), so we need a separate counter.\n        _mint(to, _tokenIdTracker.current());\n        elpisHeroesData.saveMetadataOfElpisHero(\n            _tokenIdTracker.current(),\n            _elpisHeroName,\n            to,\n            0\n        );\n        elpisHeroesData.updateStatus(_tokenIdTracker.current(), \"Open\");\n        _tokenIdTracker.increment();\n    }\n\n    /**\n     * @dev Pauses all token transfers.\n     *\n     * See {ERC721Pausable} and {Pausable-_pause}.\n     *\n     * Requirements:\n     *\n     * - the caller must have the `PAUSER_ROLE`.\n     */\n    function pause() public virtual {\n        require(hasRole(PAUSER_ROLE, _msgSender()), \"EMH: only pauser\");\n        _pause();\n    }\n\n    /**\n     * @dev Unpauses all token transfers.\n     *\n     * See {ERC721Pausable} and {Pausable-_unpause}.\n     *\n     * Requirements:\n     *\n     * - the caller must have the `PAUSER_ROLE`.\n     */\n    function unpause() public virtual {\n        require(\n            hasRole(PAUSER_ROLE, _msgSender()),\n            \"EMH: must have pauser role to unpause\"\n        );\n        _unpause();\n    }\n\n    function _beforeTokenTransfer(\n        address from,\n        address to,\n        uint256 tokenId\n    ) internal virtual override(ERC721, ERC721Enumerable, ERC721Pausable) {\n        super._beforeTokenTransfer(from, to, tokenId);\n    }\n\n    /**\n     * @dev See {IERC165-supportsInterface}.\n     */\n    function supportsInterface(bytes4 interfaceId)\n        public\n        view\n        virtual\n        override(AccessControlEnumerable, ERC721, ERC721Enumerable)\n        returns (bool)\n    {\n        return super.supportsInterface(interfaceId);\n    }\n}\n",
  "sourcePath": "E:\\Projects\\Blockchain\\NFT Projects\\nft_marketplace\\contracts\\ElpisMetaverseHeroes.sol",
  "compiler": {
    "name": "solc",
    "version": "0.8.12+commit.f00d7308.Emscripten.clang"
  },
  "schemaVersion": "3.4.5",
  "updatedAt": "2022-02-19T15:16:26.043Z",
  "networkType": "ethereum",
  "devdoc": {
    "details": "{ERC721} token, including:  - ability for holders to burn (destroy) their tokens  - a minter role that allows for token minting (creation)  - a pauser role that allows to stop all token transfers  - token ID and URI autogeneration This contract uses {AccessControl} to lock permissioned functions using the different roles - head to its documentation for details. The account that deploys the contract will be granted the minter and pauser roles, as well as the default admin role, which will let it grant both minter and pauser roles to other accounts.",
    "kind": "dev",
    "methods": {
      "approve(address,uint256)": {
        "details": "See {IERC721-approve}."
      },
      "balanceOf(address)": {
        "details": "See {IERC721-balanceOf}."
      },
      "burn(uint256)": {
        "details": "Burns `tokenId`. See {ERC721-_burn}. Requirements: - The caller must own `tokenId` or be an approved operator."
      },
      "constructor": {
        "details": "Grants `DEFAULT_ADMIN_ROLE`, `MINTER_ROLE` and `PAUSER_ROLE` to the account that deploys the contract. Token URIs will be autogenerated based on `baseURI` and their token IDs. See {ERC721-tokenURI}."
      },
      "getApproved(uint256)": {
        "details": "See {IERC721-getApproved}."
      },
      "getRoleAdmin(bytes32)": {
        "details": "Returns the admin role that controls `role`. See {grantRole} and {revokeRole}. To change a role's admin, use {_setRoleAdmin}."
      },
      "getRoleMember(bytes32,uint256)": {
        "details": "Returns one of the accounts that have `role`. `index` must be a value between 0 and {getRoleMemberCount}, non-inclusive. Role bearers are not sorted in any particular way, and their ordering may change at any point. WARNING: When using {getRoleMember} and {getRoleMemberCount}, make sure you perform all queries on the same block. See the following https://forum.openzeppelin.com/t/iterating-over-elements-on-enumerableset-in-openzeppelin-contracts/2296[forum post] for more information."
      },
      "getRoleMemberCount(bytes32)": {
        "details": "Returns the number of accounts that have `role`. Can be used together with {getRoleMember} to enumerate all bearers of a role."
      },
      "grantRole(bytes32,address)": {
        "details": "Overload {grantRole} to track enumerable memberships"
      },
      "hasRole(bytes32,address)": {
        "details": "Returns `true` if `account` has been granted `role`."
      },
      "isApprovedForAll(address,address)": {
        "details": "See {IERC721-isApprovedForAll}."
      },
      "mint(address,string)": {
        "details": "Creates a new token for `to`. Its token ID will be automatically assigned (and available on the emitted {IERC721-Transfer} event), and the token URI autogenerated based on the base URI passed at construction. See {ERC721-_mint}. Requirements: - the caller must have the `MINTER_ROLE`."
      },
      "name()": {
        "details": "See {IERC721Metadata-name}."
      },
      "ownerOf(uint256)": {
        "details": "See {IERC721-ownerOf}."
      },
      "pause()": {
        "details": "Pauses all token transfers. See {ERC721Pausable} and {Pausable-_pause}. Requirements: - the caller must have the `PAUSER_ROLE`."
      },
      "paused()": {
        "details": "Returns true if the contract is paused, and false otherwise."
      },
      "renounceRole(bytes32,address)": {
        "details": "Overload {renounceRole} to track enumerable memberships"
      },
      "revokeRole(bytes32,address)": {
        "details": "Overload {revokeRole} to track enumerable memberships"
      },
      "safeTransferFrom(address,address,uint256)": {
        "details": "See {IERC721-safeTransferFrom}."
      },
      "safeTransferFrom(address,address,uint256,bytes)": {
        "details": "See {IERC721-safeTransferFrom}."
      },
      "setApprovalForAll(address,bool)": {
        "details": "See {IERC721-setApprovalForAll}."
      },
      "setBaseURI(string)": {
        "details": "Callable by owner",
        "params": {
          "_uri": ": base URI"
        }
      },
      "supportsInterface(bytes4)": {
        "details": "See {IERC165-supportsInterface}."
      },
      "symbol()": {
        "details": "See {IERC721Metadata-symbol}."
      },
      "tokenByIndex(uint256)": {
        "details": "See {IERC721Enumerable-tokenByIndex}."
      },
      "tokenOfOwnerByIndex(address,uint256)": {
        "details": "See {IERC721Enumerable-tokenOfOwnerByIndex}."
      },
      "tokenURI(uint256)": {
        "details": "See {IERC721Metadata-tokenURI}."
      },
      "totalSupply()": {
        "details": "See {IERC721Enumerable-totalSupply}."
      },
      "transferFrom(address,address,uint256)": {
        "details": "See {IERC721-transferFrom}."
      },
      "unpause()": {
        "details": "Unpauses all token transfers. See {ERC721Pausable} and {Pausable-_unpause}. Requirements: - the caller must have the `PAUSER_ROLE`."
      }
    },
    "version": 1
  },
  "userdoc": {
    "kind": "user",
    "methods": {
      "setBaseURI(string)": {
        "notice": "Allows the owner to set the base URI to be used for all token IDs"
      }
    },
    "version": 1
  }
}