{
  "contractName": "ElpisHeroesData",
  "abi": [
    {
      "inputs": [
        {
          "internalType": "uint256",
          "name": "",
          "type": "uint256"
        }
      ],
      "name": "elpisHeroIds",
      "outputs": [
        {
          "internalType": "uint256",
          "name": "",
          "type": "uint256"
        }
      ],
      "stateMutability": "view",
      "type": "function",
      "constant": true
    },
    {
      "inputs": [
        {
          "internalType": "uint256",
          "name": "",
          "type": "uint256"
        }
      ],
      "name": "elpisHeroesData",
      "outputs": [
        {
          "internalType": "uint256",
          "name": "elpisHeroId",
          "type": "uint256"
        },
        {
          "internalType": "string",
          "name": "elpisHeroName",
          "type": "string"
        },
        {
          "internalType": "address",
          "name": "ownerAddress",
          "type": "address"
        },
        {
          "internalType": "uint256",
          "name": "heroPrice",
          "type": "uint256"
        },
        {
          "internalType": "string",
          "name": "status",
          "type": "string"
        },
        {
          "internalType": "uint256",
          "name": "reputation",
          "type": "uint256"
        }
      ],
      "stateMutability": "view",
      "type": "function",
      "constant": true
    },
    {
      "inputs": [
        {
          "internalType": "uint256",
          "name": "_elpisHeroId",
          "type": "uint256"
        },
        {
          "internalType": "string",
          "name": "_elpisHeroName",
          "type": "string"
        },
        {
          "internalType": "address",
          "name": "_ownerAddress",
          "type": "address"
        },
        {
          "internalType": "uint256",
          "name": "_heroPrice",
          "type": "uint256"
        }
      ],
      "name": "saveMetadataOfElpisHero",
      "outputs": [],
      "stateMutability": "nonpayable",
      "type": "function"
    },
    {
      "inputs": [
        {
          "internalType": "uint256",
          "name": "_elpisHeroId",
          "type": "uint256"
        },
        {
          "internalType": "address",
          "name": "_newOwner",
          "type": "address"
        }
      ],
      "name": "updateOwnerOfELpisHero",
      "outputs": [],
      "stateMutability": "nonpayable",
      "type": "function"
    },
    {
      "inputs": [
        {
          "internalType": "uint256",
          "name": "_elpisHeroId",
          "type": "uint256"
        },
        {
          "internalType": "string",
          "name": "_newStatus",
          "type": "string"
        }
      ],
      "name": "updateStatus",
      "outputs": [],
      "stateMutability": "nonpayable",
      "type": "function"
    },
    {
      "inputs": [
        {
          "internalType": "uint256",
          "name": "elpisHeroId",
          "type": "uint256"
        }
      ],
      "name": "getElpiHeroData",
      "outputs": [
        {
          "components": [
            {
              "internalType": "uint256",
              "name": "elpisHeroId",
              "type": "uint256"
            },
            {
              "internalType": "string",
              "name": "elpisHeroName",
              "type": "string"
            },
            {
              "internalType": "address",
              "name": "ownerAddress",
              "type": "address"
            },
            {
              "internalType": "uint256",
              "name": "heroPrice",
              "type": "uint256"
            },
            {
              "internalType": "string",
              "name": "status",
              "type": "string"
            },
            {
              "internalType": "uint256",
              "name": "reputation",
              "type": "uint256"
            }
          ],
          "internalType": "struct ElpisHeroDataObjects.ElpisHeroData",
          "name": "_elpisHeroData",
          "type": "tuple"
        }
      ],
      "stateMutability": "view",
      "type": "function",
      "constant": true
    },
    {
      "inputs": [],
      "name": "getAllElpisData",
      "outputs": [
        {
          "components": [
            {
              "internalType": "uint256",
              "name": "elpisHeroId",
              "type": "uint256"
            },
            {
              "internalType": "string",
              "name": "elpisHeroName",
              "type": "string"
            },
            {
              "internalType": "address",
              "name": "ownerAddress",
              "type": "address"
            },
            {
              "internalType": "uint256",
              "name": "heroPrice",
              "type": "uint256"
            },
            {
              "internalType": "string",
              "name": "status",
              "type": "string"
            },
            {
              "internalType": "uint256",
              "name": "reputation",
              "type": "uint256"
            }
          ],
          "internalType": "struct ElpisHeroDataObjects.ElpisHeroData[]",
          "name": "_elpisHeroesData",
          "type": "tuple[]"
        }
      ],
      "stateMutability": "view",
      "type": "function",
      "constant": true
    }
  ],
  "bytecode": "0x608060405234801561001057600080fd5b50610cff806100206000396000f3fe608060405234801561001057600080fd5b506004361061007d5760003560e01c80637760deea1161005b5780637760deea146100e55780639c75079914610106578063aef843d71461011b578063d1b34dd81461012e57600080fd5b80630b9d8e36146100825780632c99d8d4146100b057806332c1c1d8146100d0575b600080fd5b610095610090366004610945565b610141565b6040516100a7969594939291906109ab565b60405180910390f35b6100c36100be366004610945565b6102a7565b6040516100a79190610a6b565b6100e36100de366004610aa1565b610478565b005b6100f86100f3366004610945565b610532565b6040519081526020016100a7565b61010e610553565b6040516100a79190610acd565b6100e3610129366004610bd2565b61070b565b6100e361013c366004610c31565b610864565b6000818154811061015157600080fd5b6000918252602090912060069091020180546001820180549193509061017690610c78565b80601f01602080910402602001604051908101604052809291908181526020018280546101a290610c78565b80156101ef5780601f106101c4576101008083540402835291602001916101ef565b820191906000526020600020905b8154815290600101906020018083116101d257829003601f168201915b505050506002830154600384015460048501805494956001600160a01b03909316949193509061021e90610c78565b80601f016020809104026020016040519081016040528092919081815260200182805461024a90610c78565b80156102975780601f1061026c57610100808354040283529160200191610297565b820191906000526020600020905b81548152906001019060200180831161027a57829003601f168201915b5050505050908060050154905086565b6102e96040518060c00160405280600081526020016060815260200160006001600160a01b031681526020016000815260200160608152602001600081525090565b60008083815481106102fd576102fd610cb3565b90600052602060002090600602016040518060c00160405290816000820154815260200160018201805461033090610c78565b80601f016020809104026020016040519081016040528092919081815260200182805461035c90610c78565b80156103a95780601f1061037e576101008083540402835291602001916103a9565b820191906000526020600020905b81548152906001019060200180831161038c57829003601f168201915b505050918352505060028201546001600160a01b03166020820152600382015460408201526004820180546060909201916103e390610c78565b80601f016020809104026020016040519081016040528092919081815260200182805461040f90610c78565b801561045c5780601f106104315761010080835404028352916020019161045c565b820191906000526020600020905b81548152906001019060200180831161043f57829003601f168201915b5050509183525050600591909101546020909101529392505050565b6001600160a01b0381166104e25760405162461bcd60e51b815260206004820152602760248201527f41206e6577206f776e657220616464726573732073686f756c64206265206e6f6044820152667420656d70747960c81b606482015260840160405180910390fd5b600082905060008082815481106104fb576104fb610cb3565b6000918252602090912060069091020160020180546001600160a01b0319166001600160a01b039490941693909317909255505050565b6001818154811061054257600080fd5b600091825260209091200154905081565b60606000805480602002602001604051908101604052809291908181526020016000905b8282101561070257838290600052602060002090600602016040518060c0016040529081600082015481526020016001820180546105b490610c78565b80601f01602080910402602001604051908101604052809291908181526020018280546105e090610c78565b801561062d5780601f106106025761010080835404028352916020019161062d565b820191906000526020600020905b81548152906001019060200180831161061057829003601f168201915b505050918352505060028201546001600160a01b031660208201526003820154604082015260048201805460609092019161066790610c78565b80601f016020809104026020016040519081016040528092919081815260200182805461069390610c78565b80156106e05780601f106106b5576101008083540402835291602001916106e0565b820191906000526020600020905b8154815290600101906020018083116106c357829003601f168201915b5050505050815260200160058201548152505081526020019060010190610577565b50505050905090565b6040805160c08101825285815260208082018681526001600160a01b03861683850152606083018590528351808501909452600484526327b832b760e11b848301526080830193909352600060a08301819052805460018101825590805282517f290decd9548b62a8d60345a988386fc84ba6bc95484008f6362f93160ef3e5636006909202918201908155935180519394859490936107cf937f290decd9548b62a8d60345a988386fc84ba6bc95484008f6362f93160ef3e564019201906108ac565b5060408201516002820180546001600160a01b0319166001600160a01b03909216919091179055606082015160038201556080820151805161081b9160048401916020909101906108ac565b5060a0919091015160059091015550506001805480820182556000919091527fb10e2d527612073b26eecdfd717e6a320cf44b4afac2b0732d9fcbe2b7fa0cf601929092555050565b6000829050600080828154811061087d5761087d610cb3565b90600052602060002090600602019050828160040190805190602001906108a59291906108ac565b5050505050565b8280546108b890610c78565b90600052602060002090601f0160209004810192826108da5760008555610920565b82601f106108f357805160ff1916838001178555610920565b82800160010185558215610920579182015b82811115610920578251825591602001919060010190610905565b5061092c929150610930565b5090565b5b8082111561092c5760008155600101610931565b60006020828403121561095757600080fd5b5035919050565b6000815180845260005b8181101561098457602081850181015186830182015201610968565b81811115610996576000602083870101525b50601f01601f19169290920160200192915050565b86815260c0602082015260006109c460c083018861095e565b6001600160a01b03871660408401526060830186905282810360808401526109ec818661095e565b9150508260a0830152979650505050505050565b805182526000602082015160c06020850152610a1f60c085018261095e565b905060018060a01b0360408401511660408501526060830151606085015260808301518482036080860152610a54828261095e565b91505060a083015160a08501528091505092915050565b602081526000610a7e6020830184610a00565b9392505050565b80356001600160a01b0381168114610a9c57600080fd5b919050565b60008060408385031215610ab457600080fd5b82359150610ac460208401610a85565b90509250929050565b6000602080830181845280855180835260408601915060408160051b870101925083870160005b82811015610b2257603f19888603018452610b10858351610a00565b94509285019290850190600101610af4565b5092979650505050505050565b634e487b7160e01b600052604160045260246000fd5b600082601f830112610b5657600080fd5b813567ffffffffffffffff80821115610b7157610b71610b2f565b604051601f8301601f19908116603f01168101908282118183101715610b9957610b99610b2f565b81604052838152866020858801011115610bb257600080fd5b836020870160208301376000602085830101528094505050505092915050565b60008060008060808587031215610be857600080fd5b84359350602085013567ffffffffffffffff811115610c0657600080fd5b610c1287828801610b45565b935050610c2160408601610a85565b9396929550929360600135925050565b60008060408385031215610c4457600080fd5b82359150602083013567ffffffffffffffff811115610c6257600080fd5b610c6e85828601610b45565b9150509250929050565b600181811c90821680610c8c57607f821691505b60208210811415610cad57634e487b7160e01b600052602260045260246000fd5b50919050565b634e487b7160e01b600052603260045260246000fdfea26469706673582212202ef2505a1569714f874a2fd1339067ae584a9d8e56ac71abf3c16f3b91f67f7c64736f6c634300080c0033",
  "immutableReferences": {},
  "source": "pragma solidity ^0.8.0;\npragma experimental ABIEncoderV2;\n\nimport \"./elpisHeroData/ElpisHeroDataStorages.sol\";\nimport \"./ElpisMetaverseHeroes.sol\";\n\n/**\n * @notice - This is the storage contract for elpisHeroesData\n */\ncontract ElpisHeroesData is ElpisHeroDataStorages {\n    uint256[] public elpisHeroIds;\n\n    // constructor() public {}\n\n    /**\n     * @notice - Save metadata of a elpisHero\n     */\n    function saveMetadataOfElpisHero(\n        uint256 _elpisHeroId,\n        string memory _elpisHeroName,\n        address _ownerAddress,\n        uint256 _heroPrice\n    ) public {\n        /// Save metadata of a elpisHero\n        ElpisHeroData memory elpisHeroData = ElpisHeroData({\n            elpisHeroId: _elpisHeroId,\n            elpisHeroName: _elpisHeroName,\n            ownerAddress: _ownerAddress,\n            heroPrice: _heroPrice,\n            status: \"Open\",\n            reputation: 0\n        });\n        elpisHeroesData.push(elpisHeroData);\n\n        /// Update elpisHeroIds\n        elpisHeroIds.push(_elpisHeroId);\n    }\n\n    /**\n     * @notice - Update owner address of a elpisHero by transferring ownership\n     */\n    function updateOwnerOfELpisHero(uint256 _elpisHeroId, address _newOwner)\n        public\n    {\n        require(\n            _newOwner != address(0),\n            \"A new owner address should be not empty\"\n        );\n        /// Identify elpisHero's index. It is the same as tokenId\n        uint256 elpisHeroIndex = _elpisHeroId;\n\n        /// Update metadata of a elpisHero\n        ElpisHeroData storage elpisHeroData = elpisHeroesData[elpisHeroIndex];\n        elpisHeroData.ownerAddress = _newOwner;\n    }\n\n    /**\n     * @notice - Update status (\"Open\" or \"Cancelled\")\n     */\n    function updateStatus(uint256 _elpisHeroId, string memory _newStatus)\n        public\n    {\n        /// Identify elpisHero's index. It is the same as tokenId\n        uint256 elpisHeroIndex = _elpisHeroId;\n\n        /// Update metadata of a elpisHero\n        ElpisHeroData storage elpisHeroData = elpisHeroesData[elpisHeroIndex];\n        elpisHeroData.status = _newStatus;\n    }\n\n    ///-----------------\n    /// Getter methods\n    ///-----------------\n    function getElpiHeroData(uint256 elpisHeroId)\n        public\n        view\n        returns (ElpisHeroData memory _elpisHeroData)\n    {\n        /// [note]: index is the same as elpisHero token id\n        ElpisHeroData memory elpisHeroData = elpisHeroesData[elpisHeroId];\n        return elpisHeroData;\n    }\n\n    function getAllElpisData()\n        public\n        view\n        returns (ElpisHeroData[] memory _elpisHeroesData)\n    {\n        return elpisHeroesData;\n    }\n}\n",
  "sourcePath": "E:\\Projects\\Blockchain\\NFT Projects\\nft_marketplace\\contracts\\ElpisHeroesData.sol",
  "compiler": {
    "name": "solc",
    "version": "0.8.12+commit.f00d7308.Emscripten.clang"
  },
  "schemaVersion": "3.4.5",
  "updatedAt": "2022-02-19T15:16:26.024Z",
  "networkType": "ethereum",
  "devdoc": {
    "kind": "dev",
    "methods": {},
    "version": 1
  },
  "userdoc": {
    "kind": "user",
    "methods": {
      "getElpiHeroData(uint256)": {
        "notice": "----------------- Getter methods -----------------"
      },
      "saveMetadataOfElpisHero(uint256,string,address,uint256)": {
        "notice": "- Save metadata of a elpisHero"
      },
      "updateOwnerOfELpisHero(uint256,address)": {
        "notice": "- Update owner address of a elpisHero by transferring ownership"
      },
      "updateStatus(uint256,string)": {
        "notice": "- Update status (\"Open\" or \"Cancelled\")"
      }
    },
    "notice": "- This is the storage contract for elpisHeroesData",
    "version": 1
  }
}